:1000000019C033C032C031C030C02FC02EC02DC087
:100010002CC02BC02AC029C028C027C026C025C09C
:1000200024C023C0E0C521C0A1C51FC01EC01DC083
:100030001CC01BC011241FBECFEFD4E0DEBFCDBF5C
:1000400011E0A0E0B1E0E4E3F1E102C005900D921F
:10005000A035B107D9F721E0A0E5B1E001C01D92BC
:10006000A136B207E1F766D263C8CACFCF93DF9358
:10007000CDB7DEB79AD180E0CDD181E0ECD10000E0
:10008000DF91CF910895CF93DF9300D0CDB7DEB746
:1000900089836A838A8180935801698185E050D180
:1000A00060E081E14DD180915801682F82E148D113
:1000B00060E083E145D160E084E142D160E085E128
:1000C0003FD160E086E13CD166E086E039D168E06E
:1000D00080E036D163E081E033D163E082E030D16B
:1000E0006FE484E02DD160E08CE12AD19ED0000045
:1000F0000F900F90DF91CF910895CF93DF9300D0B1
:10010000CDB7DEB79A83898380E084D189819A81D3
:1001100045E0BC018BE02BD181E07CD100000F9049
:100120000F90DF91CF910895CF93DF9300D0CDB79B
:10013000DEB79A83898389819A8145E0BC018AE090
:1001400016D189819A8145E0BC0180E110D100007F
:100150000F900F90DF91CF910895CF93DF9300D050
:10016000CDB7DEB79A83898380E054D176D080E022
:1001700072D181EE80D081E06ED180E06CD180EAD6
:100180007AD02091580189819A81622FB5D081E07F
:1001900062D181E03FD100000F900F90DF91CF91AD
:1001A0000895CF93DF931F92CDB7DEB70FD0898329
:1001B0008981882F90E080739927892B11F080E046
:1001C00001C081E00F90DF91CF910895CF93DF932D
:1001D0001F92CDB7DEB780E03ED18FEF4CD0898340
:1001E00081E039D189810F90DF91CF910895CF932C
:1001F000DF931F92CDB7DEB7E9DF89838981882F2E
:1002000090E080729927892B11F080E00AC08981E3
:10021000882F90E080719927892B11F081E001C02F
:100220008FEF0F90DF91CF910895CF93DF93CDB7EC
:10023000DEB780E010D182EE1ED081E00CD160E705
:1002400087E07ED080E0E6D06BE080E079D081E08E
:10025000E1D00000DF91CF910895CF93DF93CDB728
:10026000DEB760E787E06CD06AE080E069D000002C
:10027000DF91CF910895CF93DF9300D01F92CDB738
:10028000DEB78B8319821A8280E006D119822AC0D8
:100290008B81882F90E02981222F30E047E050E0C9
:1002A000BA01621B730B9B0102C0959587952A9535
:1002B000E2F781709927892B19F081E00ED102C0F5
:1002C00080E00BD181E0E8D08A81880F8A8326D133
:1002D000882319F08A8181608A8380E0DDD089815A
:1002E0008F5F89838981883098F28A810F900F907F
:1002F0000F90DF91CF910895CF93DF9300D000D07E
:10030000CDB7DEB79B838A836C8319820DC0898148
:10031000882F90E02A813B81820F931FFC0180810E
:10032000AADF89818F5F898399818C81981778F3FF
:1003300000000F900F900F900F90DF91CF910895D4
:10034000CF93DF9300D0CDB7DEB789836A8380E097
:1003500082D089818F7180628EDF8A818CDF81E01B
:100360007AD000000F900F90DF91CF910895CF9336
:10037000DF9300D000D0CDB7DEB789837B836A835B
:100380004C8380E068D089818F71806274DF8A81BC
:100390009B816C81B1DF81E05ED000000F900F90F7
:1003A0000F900F90DF91CF910895CF93DF93CDB74A
:1003B000DEB787E290E027E230E0F901208121609A
:1003C000FC01208387E290E027E230E0F901208100
:1003D0002260FC01208387E290E027E230E0F9010F
:1003E00020812460FC01208387E290E027E230E056
:1003F000F90120812860FC01208387E290E027E258
:1004000030E0F90120812F7EFC0120830000DF9184
:10041000CF910895CF93DF931F92CDB7DEB7898335
:100420008981882351F088E290E028E230E0F901E8
:1004300020812160FC01208309C088E290E028E24D
:1004400030E0F90120812E7FFC01208300000F9015
:10045000DF91CF910895CF93DF931F92CDB7DEB791
:1004600089838981882351F088E290E028E230E096
:10047000F90120812260FC01208309C088E290E01C
:1004800028E230E0F90120812D7FFC01208300006B
:100490000F90DF91CF910895CF93DF931F92CDB747
:1004A000DEB789838981882351F088E290E028E2D1
:1004B00030E0F90120812460FC01208309C088E23A
:1004C00090E028E230E0F90120812B7FFC012083BD
:1004D00000000F90DF91CF910895CF93DF931F928B
:1004E000CDB7DEB789838981882351F088E290E017
:1004F00028E230E0F90120812860FC01208309C056
:1005000088E290E028E230E0F9012081277FFC01B9
:10051000208300000F90DF91CF910895CF93DF9358
:10052000CDB7DEB786E290E0FC0180818071DF917B
:10053000CF910895CF93DF93CDB7DEB72F970FB646
:10054000F894DEBF0FBECDBF78949ED0CFD047D1F8
:100550008DE5809354018DE5809355018DE5809361
:1005600056018DE58093570181DD64E082E08BDDEB
:1005700086E491E0D9DD8BE491E0BFDD198278C09B
:100580008BE290E02BE230E0F90120812095FC0124
:10059000208380E090E0AAE7B3E48A839B83AC8366
:1005A000BD8320E030E04AEF54E46A817B818C8196
:1005B0009D81FCD3DC01CB018E839F83A887B98703
:1005C00020E030E040E85FE36E817F818885998597
:1005D0006CD388232CF481E090E09B878A873BC012
:1005E00020E03FEF4FE757E46E817F818885998552
:1005F000D9D318163CF520E030E040E251E46A819E
:100600007B818C819D81D2D3DC01CB01BC01CD01EA
:1006100050D3DC01CB019B878A870FC088EC90E028
:100620009D878C878C859D850197F1F79D878C87A9
:100630008A859B8501979B878A878A859B85892BDD
:1006400069F713C06E817F818885998532D3DC017B
:10065000CB019B878A878A859B859F878E878E851E
:100660009F850197F1F79F878E8789818F5F8983A7
:100670008981843008F484CF809150018823E1F38C
:1006800010925001CED0F8CFCF93DF93CDB7DEB725
:1006900085EC90E0FC01108284EC90E027E6FC0100
:1006A000208380EC90E020EC30E0F9012081226092
:1006B000FC01208382EC90E022EC30E0F901208103
:1006C0002660FC01208380E290E0FBD390935C01E4
:1006D00080935B0180915B0190915C01909352014A
:1006E000809351010000DF91CF910895CF93DF9364
:1006F000CDB7DEB78AE290E022ECFC012083000057
:10070000DF91CF910895CF93DF9300D01F92CDB7A3
:10071000DEB79A8389836B8380915B0190915C0142
:10072000909352018093510120915B0130915C01C3
:100730008B81882F90E0820F931F90935A018093B2
:1007400059018B81482F50E080915B0190915C01B1
:1007500029813A81B901E3D481EC90E021EC30E0C9
:10076000F90120812864FC01208381EC90E021ECD8
:1007700030E0F90120812F76FC0120838091510126
:10078000909152010196909352018093510186EC11
:1007900090E0209151013091520121503109F9012D
:1007A0002081FC01208300000F900F900F90DF91BB
:1007B000CF910895CF93DF93CDB7DEB7209151014C
:1007C000309152018091590190915A0128173907AF
:1007D00011F081E001C080E0DF91CF910895CF93C7
:1007E000DF93CDB7DEB780915B0190915C01909370
:1007F00052018093510181EC90E021EC30E0F9014D
:100800002081277BFC01208381EC90E021EC30E00B
:10081000F90120812069FC0120830000DF91CF9144
:100820000895CF93DF93CDB7DEB76E970FB6F894E8
:10083000DEBF0FBECDBF80915B0190915C014BE0AC
:1008400050E0BC0186E091E05DD4892B09F0AAC09C
:1008500061E180E291E057DF0000ACDF8823E9F737
:100860008BE290E02BE230E0F90120812068FC016E
:1008700020838FE7809354018FE7809355018FE7A2
:10088000809356018FE78093570184E591E065DC02
:10089000000087DC8823E9F7AADC8093530180916C
:1008A0005301882309F07EC0198278C08BE290E062
:1008B0002BE230E0F90120812095FC01208380E0CB
:1008C00090E0AAE7B3E48F839887A987BA8720E0EE
:1008D00030E04AEF54E46F81788589859A8566D245
:1008E000DC01CB018B879C87AD87BE8720E030E0A1
:1008F00040E85FE36B857C858D859E85D6D1882316
:100900002CF481E090E0988B8F873BC020E03FEF94
:100910004FE757E46B857C858D859E8543D21816FD
:100920003CF520E030E040E251E46F817885898534
:100930009A853CD2DC01CB01BC01CD01BAD1DC01EE
:10094000CB01988B8F870FC088EC90E09A8B898BB6
:1009500089899A890197F1F79A8B898B8F85988974
:100960000197988B8F878F859889892B69F713C09A
:100970006B857C858D859E859CD1DC01CB01988B18
:100980008F878F8598899C8B8B8B8B899C8901970E
:10099000F1F79C8B8B8B89818F5F89838981843070
:1009A00008F484CF80915B0190915C014CE050E0B1
:1009B000BC0183E191E0A6D3892B09F0AAC062E1D2
:1009C00083E391E0A0DE0000F5DE8823E9F78BE207
:1009D00090E02BE230E0F90120812F77FC012083A9
:1009E0008DE5809354018DE5809355018DE58093CD
:1009F00056018DE58093570184E591E0AEDB000060
:100A0000D0DB8823E9F7F3DB809353018091530116
:100A1000882309F07EC01A8278C08BE290E02BE236
:100A200030E0F90120812095FC01208380E090E0F6
:100A3000AAE7B3E48B839C83AD83BE8320E030E0E0
:100A40004AEF54E46B817C818D819E81AFD1DC01C2
:100A5000CB018D8B9E8BAF8BB88F20E030E040E8D0
:100A60005FE36D897E898F89988D1FD188232CF44F
:100A700081E090E09A8F898F3BC020E03FEF4FE705
:100A800057E46D897E898F89988D8CD118163CF535
:100A900020E030E040E251E46B817C818D819E81D9
:100AA00085D1DC01CB01BC01CD0103D1DC01CB013F
:100AB0009A8F898F0FC088EC90E09C8F8B8F8B8DE5
:100AC0009C8D0197F1F79C8F8B8F898D9A8D019763
:100AD0009A8F898F898D9A8D892B69F713C06D89BB
:100AE0007E898F89988DE5D0DC01CB019A8F898F23
:100AF000898D9A8D9E8F8D8F8D8D9E8D0197F1F7AB
:100B00009E8F8D8F8A818F5F8A838A81843008F4DB
:100B100084CF65DE80915B0190915C0190935201DE
:100B20008093510100006E960FB6F894DEBF0FBEA1
:100B3000CDBFDF91CF910895CF93DF93CDB7DEB7CF
:100B400081EC90E021EC30E0F9012081277BFC0171
:100B5000208381EC90E021EC30E0F90120812F76B8
:100B6000FC0120830000DF91CF9108951F920F9226
:100B700000905F000F9211242F933F938F939F93C8
:100B8000EF93FF93CF93DF93CDB7DEB72091510161
:100B9000309152018091590190915A0128173907DB
:100BA00099F086EC90E02091510130915201F901C9
:100BB0002081FC0120838091510190915201019686
:100BC00090935201809351010000DF91CF91FF91EA
:100BD000EF919F918F913F912F910F9000925F0025
:100BE0000F901F9018951F920F9200905F000F9228
:100BF00011242F933F934F935F936F937F938F9322
:100C00009F93AF93BF93EF93FF93CF93DF93CDB7B2
:100C1000DEB780915B0190915C019C01205E3F4FAB
:100C200080915101909152012817390709F1809163
:100C300051019091520126EC30E0F9012081FC0134
:100C400020838091510190915201FC018081843276
:100C500051F080915101909152010196909352016F
:100C6000809351010DC068DF81E08093500108C07E
:100C700080915B0190915C019093520180935101AE
:100C80000000DF91CF91FF91EF91BF91AF919F91C4
:100C90008F917F916F915F914F913F912F910F9025
:100CA00000925F000F901F9018952FD008F481E0FC
:100CB000089557D088F09F5790F0B92F9927B751D2
:100CC000A0F0D1F0660F771F881F991F1AF0BA9510
:100CD000C9F712C0B13081F05ED0B1E008955BC0B9
:100CE000672F782F8827B85F39F0B93FCCF3869506
:100CF00077956795B395D9F73EF490958095709563
:100D000061957F4F8F4F9F4F0895990F0008550FA2
:100D1000AA0BE0E8FEEF16161706E807F907C0F081
:100D200012161306E407F50798F0621B730B840B89
:100D3000950B39F40A2661F0232B242B252B21F463
:100D400008950A2609F4A140A6958FEF811D811D03
:100D5000089557FD9058440F551F59F05F3F71F0AB
:100D60004795880F97FB991F61F09F3F79F0879512
:100D70000895121613061406551FF2CF4695F1DF9B
:100D800008C0161617061806991FF1CF869571052B
:100D9000610508940895E894BB2766277727CB015F
:100DA00097F90895B2DF08F48FEF08950BD078C05B
:100DB00069D028F06ED018F0952309F05AC05FC0B2
:100DC0001124EACFC6DFA0F3959FD1F3950F50E031
:100DD000551F629FF001729FBB27F00DB11D639FED
:100DE000AA27F00DB11DAA1F649F6627B00DA11D93
:100DF000661F829F2227B00DA11D621F739FB00D39
:100E0000A11D621F839FA00D611D221F749F3327A8
:100E1000A00D611D231F849F600D211D822F762F41
:100E20006A2F11249F5750408AF0E1F088234AF03E
:100E3000EE0FFF1FBB1F661F771F881F915050408A
:100E4000A9F79E3F510570F014C0A6CF5F3FECF3A9
:100E5000983EDCF3869577956795B795F795E79576
:100E60009F5FC1F7FE2B880F911D9695879597F987
:100E7000089597F99F6780E870E060E008959FEF1C
:100E800080EC089500240A94161617061806090621
:100E9000089500240A9412161306140605060895F0
:100EA000092E0394000C11F4882352F0BB0F40F478
:100EB000BF2B11F460FF04C06F5F7F4F8F4F9F4FB8
:100EC00008950F931F93CF93DF938230910510F411
:100ED00082E090E0E0915F01F091600120E030E07D
:100EE000A0E0B0E0309719F1408151810281138177
:100EF00048175907C8F08417950769F4109731F01F
:100F000012960C93129713961C9327C000935F01BF
:100F10001093600122C02115310519F042175307C3
:100F200018F49A01BD01EF01DF01F801DBCF2115B3
:100F30003105F9F0281B390B2430310580F48A8102
:100F40009B816115710521F0FB019383828304C0AD
:100F50009093600180935F01FE01329644C0FE01D0
:100F6000E20FF31F81939193225031093983288333
:100F70003AC020915D0130915E01232B41F4209114
:100F800002013091030130935E0120935D012091B5
:100F90000001309101012115310541F42DB73EB713
:100FA0004091040150910501241B350BE0915D0136
:100FB000F0915E01E217F307A0F42E1B3F0B2817F8
:100FC000390778F0AC014E5F5F4F2417350748F0C2
:100FD0004E0F5F1F50935E0140935D01819391938B
:100FE00002C0E0E0F0E0CF01DF91CF911F910F91BF
:100FF0000895CF93DF93009709F481C0FC013297E5
:1010000013821282A0915F01B0916001109781F468
:1010100020813181820F931F20915D0130915E010B
:101020002817390751F5F0935E01E0935D0167C021
:10103000ED0120E030E0CE17DF0740F44A815B810C
:101040009E0141155105F1F0EA01F5CFD383C2832A
:1010500040815181840F951FC817D90759F48881A1
:101060009981840F951F0296918380838A819B8149
:10107000938382832115310529F4F0936001E09375
:101080005F013DC0E901FB83EA8349915991C40F97
:10109000D51FEC17FD0761F480819181840F951FA6
:1010A0000296E90199838883828193819B838A8355
:1010B000E0E0F0E012968D919C911397009719F063
:1010C000FD01DC01F7CF8D919C9111979D012E5F61
:1010D0003F4F820F931F20915D0130915E012817D1
:1010E000390769F4309729F41092600110925F017A
:1010F00002C013821282B0935E01A0935D01DF9162
:10110000CF910895FB01DC0104C08D9101908019FD
:1011100021F441505040C8F7881B990B0895FB01FA
:10112000DC0102C001900D9241505040D8F7089563
:04113000F894FFCF61
:101134000000610120005455524E5F4C45445F4FFE
:101144004E00005455524E5F4C45445F4F46460096
:101154005475726E696E67206C6564206F6E212011
:101164000A00005475726E696E67206C6564206FA6
:10117400666621200A00E7E7E7E7E7D7D7D7D7D79E
:00000001FF
