:100000000C9434000C9451000C9451000C94510049
:100010000C9451000C9451000C9451000C9451001C
:100020000C9451000C9451000C9451000C9451000C
:100030000C9451000C9451000C9451000C945100FC
:100040000C9451000C9451000C94C30D0C9451006D
:100050000C94890D0C9451000C9451000C94510097
:100060000C9451000C94510011241FBECFEFD8E026
:10007000DEBFCDBF11E0A0E0B1E0E4E1F4E202C0F8
:1000800005900D92A832B107D9F711E0A8E2B1E0CE
:1000900001C01D92A936B107E1F70E9491060C94A8
:1000A00008120C940000DF93CF93CDB7DEB780E049
:1000B000CF91DF910895DF93CF930F92CDB7DEB745
:1000C000898389810F90CF91DF9108950F931F93BA
:1000D000DF93CF9300D0CDB7DEB780915401882352
:1000E00011F080E06AC087E190E061E070E00E947A
:1000F0009F0F909329018093280182E090E061E0B6
:1001000070E00E949F0F90932C0180932B0182E05E
:1001100090E061E070E00E949F0F90932F01809328
:100120002E0183E0898317C08981082F10E081E0C8
:1001300090E061E070E00E949F0F9C01C801880F71
:10014000991F800F911F885D9E4FFC013183208392
:1001500089818F5F898389818C3030F380E290E0E0
:1001600061E070E00E949F0F9093530180935201D1
:100170008091520190915301009711F480E01DC0CD
:100180001A8214C08A81282F30E0C901880F991F74
:10019000820F931F885D9E4FFC01808191810097A3
:1001A00011F480E00AC08A818F5F8A838A818C3053
:1001B00048F381E08093540181E00F900F90CF913C
:1001C000DF911F910F910895DF93CF93CDB7DEB7E5
:1001D00029970FB6F894DEBF0FBECDBF80915201B4
:1001E000909153019A838983809152019091530198
:1001F0004F969C838B83F7C089819A81FC01808113
:10020000813009F0EBC089819A810496FC018081DC
:10021000823009F0E3C0D5C08B819C81FC018081D4
:10022000873109F0C9C08B819C810297FC018081D4
:10023000833009F0C1C08B819C810297282F89816E
:100240009A81F22FF81B8F2F88870E94530089878D
:100250008885282F30E049815A818985BA01A90112
:100260000E942906898789850E945B0089878B8186
:100270009C810197FC0190818985981711F083E09A
:10028000C0C089819A810296FC01808180935501CA
:1002900089819A810396FC01808180934D01898137
:1002A0009A810596FC018081853010F085E0A9C017
:1002B00089819A810596FC018081882F90E0880FC2
:1002C000991F835E9E4FFC018081918190934F0125
:1002D00080934E0189819A810196FC0180818093EF
:1002E000510189819A8106969E838D831F825CC00D
:1002F0008F81282F30E0C901880F991F820F931F2B
:10030000885D9E4FFC01808191812D813E81F901A4
:100310002081222F30E0B9010E94F6108F81282F12
:1003200030E08D819E81FC014081C901880F991FB9
:10033000820F931F865D9E4FFC0140838F81282F83
:1003400030E0C901880F991F820F931F885D9E4F6F
:10035000FC01808191812D813E81A9014F5F5F4F1A
:100360002D813E81F9012081222F30E0BA01A901BF
:100370000E94C1118D819E81FC018081882F90E0B7
:1003800001962D813E81820F931F9E838D838B81E9
:100390009C819C01225030408D819E818217930761
:1003A00040F48F818F5F8F838F818C3008F4A0CFD2
:1003B00001C0000080E025C08B819C8101979C8357
:1003C0008B8380915201909153019C012A5F3F4F92
:1003D0008B819C812817390709F01ECF89819A816A
:1003E00001969A83898380915201909153019C01D7
:1003F0002A5E3F4F89819A812817390709F0FCCE80
:1004000081E029960FB6F894DEBF0FBECDBFCF9125
:10041000DF910895DF93CF93CDB7DEB728970FB65E
:10042000F894DEBF0FBECDBF8E836F834887809167
:1004300052019091530160E070E040E250E00E9470
:10044000CA11809152019091530121E0FC01208357
:10045000809151018F3F31F4809151018F5F8093E2
:10046000510102C0109251018091520190915301AB
:10047000019620915101FC012083809152019091BD
:10048000530102962885FC012083809152019091AE
:100490005301039621E0FC01208380915201909149
:1004A0005301049622E0FC01208380915201909137
:1004B000530105962E81FC0120838F818D3010F031
:1004C00087E08CC0809152019091530106969A83E7
:1004D00089831B824DC08B81282F30E0C901880F92
:1004E000991F820F931F865D9E4FFC012081898199
:1004F0009A81FC01208389819A81BC016F5F7F4FC3
:100500008B81282F30E0C901880F991F820F931F1C
:10051000885D9E4FFC01408151818B81282F30E006
:10052000C901880F991F820F931F865D9E4FFC01A2
:100530008081282F30E0CB01BA01A9010E94C111AE
:100540008B81282F30E0C901880F991F820F931FDC
:10055000865D9E4FFC018081882F90E00196298165
:100560003A81820F931F9A8389838B818F5F8B835C
:100570009B818F81981708F4AECF0E9453008C8323
:1005800089819A81282F8091520190915301F22FF5
:10059000F81B8F2F8D8340915201509153018D8113
:1005A000282F30E08C81BA01A9010E9429068C8392
:1005B0008C810E945B008C8389819A8123E0FC01FD
:1005C000208389819A8101962C81FC012083898175
:1005D0009A81029627E1FC0120838AE028960FB6D3
:1005E000F894DEBF0FBECDBFCF91DF910895DF93AA
:1005F000CF93CDB7DEB780914E0190914F01FC01B2
:100600000995CF91DF910895DF93CF930F92CDB7E6
:10061000DEB780915501815061E00E94DB0B809133
:100620005201909153010E944A0900000E947709EB
:100630008823E1F70E94A10989838981882311F425
:1006400080E006C08981813011F481E001C081E041
:100650000F90CF91DF910895DF93CF93CDB7DEB7A1
:10066000809152019091530160E20E945A0CCF9107
:10067000DF9108950F931F93DF93CF9300D000D0A5
:10068000CDB7DEB789837B836A834C838981082F4A
:1006900010E08981282F30E0C901880F991F820F4F
:1006A000931F885D9E4FFC01808191812C81222FB8
:1006B00030E0B9010E94F6109C01C801880F991F13
:1006C000800F911F885D9E4FFC01318320838981BB
:1006D000282F30E0C901880F991F820F931F885D72
:1006E0009E4FFC01808191812C81222F30E04A8134
:1006F0005B81BA01A9010E94C1118981282F30E0D4
:10070000C901880F991F820F931F865D9E4F2C8110
:10071000FC0120830F900F900F900F90CF91DF91ED
:100720001F910F910895DF93CF93CDB7DEB7CF918F
:10073000DF910895DF93CF93CDB7DEB7CF91DF91EF
:1007400008950F931F93DF93CF93CDB7DEB7A09794
:100750000FB6F894DEBF0FBECDBF80E090E0A8ECEE
:10076000B2E48B839C83AD83BE836B817C818D815E
:100770009E8120E030E04AE755E40E94140FDC013E
:10078000CB018F839887A987BA8711E06F8178851D
:1007900089859A8520E030E040E85FE30E94930E6F
:1007A00088230CF010E0112329F081E090E09C8771
:1007B0008B8746C011E06F81788589859A8520E016
:1007C0003FEF4FE757E40E94100F18160CF010E0AF
:1007D000112361F16B817C818D819E8120E030E06D
:1007E00040E251E40E94140FDC01CB01BC01CD01B9
:1007F0000E94970EDC01CB019C878B8712C080E999
:1008000091E09E878D878D859E858C01C80101971B
:10081000F1F78C011E870D878B859C8501979C873E
:100820008B878B859C85009751F717C06F817885E2
:1008300089859A850E94970EDC01CB019C878B8766
:100840008B859C85988B8F878F8598898C01C801B3
:100850000197F1F78C01188B0F8784E060E042E08C
:100860000E940A0281E061E00E94DB0B809152014C
:10087000909153010E944A0900000E947709882341
:10088000E1F70E94A10989838981882319F48FEFF8
:100890008F8F04C08981813009F41F8E80E090E041
:1008A000A8E4B2E4898B9A8BAB8BBC8B69897A897B
:1008B0008B899C8920E030E04AE755E40E94140FC0
:1008C000DC01CB018D8B9E8BAF8BB88F11E06D89D6
:1008D0007E898F89988D20E030E040E85FE30E94B8
:1008E000930E88230CF010E0112329F081E090E0B2
:1008F0009A8F898F46C011E06D897E898F89988D86
:1009000020E03FEF4FE757E40E94100F18160CF05D
:1009100010E0112361F169897A898B899C8920E033
:1009200030E040E251E40E94140FDC01CB01BC0135
:10093000CD010E94970EDC01CB019A8F898F12C0E6
:1009400080E991E09C8F8B8F8B8D9C8D8C01C801F1
:100950000197F1F78C011C8F0B8F898D9A8D019770
:100960009A8F898F898D9A8D009751F717C06D895D
:100970007E898F89988D0E94970EDC01CB019A8F1A
:10098000898F898D9A8D9E8F8D8F8D8D9E8D8C01F7
:10099000C8010197F1F78C011E8F0D8F84E060E094
:1009A00043E00E940A0282E061E00E94DB0B80913A
:1009B0005201909153010E944A0900000E94770958
:1009C0008823E1F70E94A1098A838A81882319F488
:1009D0008FEF88A304C08A81813009F418A29E0198
:1009E000215E3F4F80E0B90141E00E943A03CE0111
:1009F0004F969C012F5F3F4F81E0B90141E00E947B
:100A00003A0380E062E040E00E940A0280915201D5
:100A10009091530160E20E945A0CA0960FB6F89490
:100A2000DEBF0FBECDBFCF91DF911F910F91089513
:100A30000F931F93DF93CF93CDB7DEB762970FB6B7
:100A4000F894DEBF0FBECDBF80E090E0A8ECB2E42A
:100A50008B839C83AD83BE836B817C818D819E81E2
:100A600020E030E04AE755E40E94140FDC01CB019E
:100A70008F839887A987BA8711E06F8178858985E8
:100A80009A8520E030E040E85FE30E94930E8823DF
:100A90000CF010E0112329F081E090E09C878B8717
:100AA00046C011E06F81788589859A8520E03FEF07
:100AB0004FE757E40E94100F18160CF010E01123B6
:100AC00061F16B817C818D819E8120E030E040E28C
:100AD00051E40E94140FDC01CB01BC01CD010E9446
:100AE000970EDC01CB019C878B8712C080E991E0D7
:100AF0009E878D878D859E858C01C8010197F1F7B2
:100B00008C011E870D878B859C8501979C878B8721
:100B10008B859C85009751F717C06F8178858985F3
:100B20009A850E94970EDC01CB019C878B878B8571
:100B30009C85988B8F878F8598898C01F8013197D8
:100B4000F1F78F01188B0F8780912801909129016F
:100B5000FC018081898B8989882F90E0009721F0A2
:100B60008130910519F147C084E060E042E00E94C5
:100B70000A0281E061E00E94DB0B809152019091BA
:100B800053010E944A0900000E9477098823E1F777
:100B90000E94A10989838981882319F48FEF8A8BA8
:100BA0002AC08981813021F51A8A25C084E060E05D
:100BB00043E00E940A0282E061E00E94DB0B809128
:100BC0005201909153010E944A0900000E94770946
:100BD0008823E1F70E94A1098A838A81882319F476
:100BE0008FEF8A8B08C08A81813021F41A8A03C072
:100BF000000001C000009E012F5E3F4F80E0B90160
:100C000041E00E943A039E012E5E3F4F81E0B90110
:100C100042E00E943A0381E062E040E00E940A0262
:100C2000809152019091530160E20E945A0C6296A9
:100C30000FB6F894DEBF0FBECDBFCF91DF911F91ED
:100C40000F910895DF93CF93CDB7DEB7CF91DF91AA
:100C50000895DF93CF93CDB7DEB72B970FB6F894F7
:100C6000DEBF0FBECDBF8F83798768875B874A87DA
:100C7000888599859A8389833CC089819A81FC0102
:100C800080818E8389819A8101969A83898380E805
:100C900090E09C838B8329C08F81882F90E080789F
:100CA000907021E0009709F420E02D838E81282F99
:100CB00030E08B819C8182239323009731F09D81CA
:100CC00081E08927882F90E08D838F81880F8F8323
:100CD0008D81882321F09F8187E089278F838B81F5
:100CE0009C81969587959C838B838B819C810097B3
:100CF00099F621E08A859B85009709F420E08A8592
:100D00009B8501979B878A87222309F0B6CF8F8125
:100D10002B960FB6F894DEBF0FBECDBFCF91DF91FB
:100D20000895DF93CF930F92CDB7DEB7F8940E946A
:100D3000CD060E942E0C0E94DF0C81E060E00E9434
:100D4000DB0B789401C0000080916401882329F0B6
:100D5000F8940E94150D0E94DF0C0E94F908882368
:100D600081F0F89480915201909153010E942809DA
:100D70000E94E40089838981882311F40E942C0356
:100D800078940E948007982F81E089278823D9F2E0
:100D900081E060E00E94DB0BD7CFDF93CF93CDB72C
:100DA000DEB78AE290E02EEFFC01208384E290E03F
:100DB00029E2FC01208387E290E02FEDFC012083F3
:100DC000CF91DF910895DF93CF93CDB7DEB70E9427
:100DD0001B0B80E00E944F0B81E00E946F0BCF91B4
:100DE000DF910895DF93CF9300D0CDB7DEB789832D
:100DF0006A838A8180935E01898180935F0185E0A7
:100E000069810E949E0A81E160E00E949E0A9091A1
:100E10005E0182E1692F0E949E0A83E160E00E94E8
:100E20009E0A84E160E00E949E0A85E160E00E94E3
:100E30009E0A86E160E00E949E0A86E066E00E94CB
:100E40009E0A80E068E00E949E0A81E063E00E94C2
:100E50009E0A82E063E00E949E0A84E06FE40E94A2
:100E60009E0A8CE160E00E949E0A0F900F90CF9145
:100E7000DF910895DF93CF93CDB7DEB790915F01F7
:100E800085E0692F41E00E94FC0A982F81E08927C4
:100E9000882311F080E031C086E066E041E00E94E6
:100EA000FC0A982F81E08927882311F080E025C073
:100EB00080E068E041E00E94FC0A982F81E08927E9
:100EC000882311F080E019C084E06FE441E00E94C3
:100ED000FC0A982F81E08927882311F080E00DC05B
:100EE0008CE160E041E00E94FC0A982F81E08927B4
:100EF000882311F080E001C081E0CF91DF91089557
:100F0000DF93CF93CDB7DEB790915F0185E0692F76
:100F100041E00E94FC0A882311F081E001C080E0DA
:100F2000CF91DF9108950F931F93DF93CF93CDB7A8
:100F3000DEB76D970FB6F894DEBF0FBECDBF8BE264
:100F400090E02BE230E0F90120812F77FC01208333
:100F500019828DC08BE290E02BE230E0F901308104
:100F600020E82327FC01208380E090E0AAEFB2E490
:100F70008A839B83AC83BD836A817B818C819D81C5
:100F800020E030E04AE755E40E94140FDC01CB0179
:100F90008E839F83A887B98711E06E817F818885C2
:100FA000998520E030E040E85FE30E94930E8823BB
:100FB0000CF010E0112329F081E090E09B878A87F4
:100FC00046C011E06E817F818885998520E03FEFE2
:100FD0004FE757E40E94100F18160CF010E0112391
:100FE00061F16A817B818C819D8120E030E040E26B
:100FF00051E40E94140FDC01CB01BC01CD010E9421
:10100000970EDC01CB019B878A8712C080E991E0B3
:101010009D878C878C859D858C01C8010197F1F790
:101020008C011D870C878A859B8501979B878A8702
:101030008A859B85009751F717C06E817F818885CF
:1010400099850E94970EDC01CB019B878A878A8550
:101050009B859F878E878E859F858C01F8013197B0
:10106000F1F78F011F870E8789818F5F89838981BF
:10107000863008F46FCF80E090E0AAE7B3E4888B75
:10108000998BAA8BBB8B688979898A899B8920E097
:1010900030E04AE755E40E94140FDC01CB018C8B51
:1010A0009D8BAE8BBF8B11E06C897D898E899F896A
:1010B00020E030E040E85FE30E94930E88230CF0CC
:1010C00010E0112329F081E090E0998F888F46C0CD
:1010D00011E06C897D898E899F8920E03FEF4FE781
:1010E00057E40E94100F18160CF010E0112361F164
:1010F000688979898A899B8920E030E040E251E45F
:101100000E94140FDC01CB01BC01CD010E94970E9F
:10111000DC01CB01998F888F12C080E991E09B8F11
:101120008A8F8A8D9B8D8C01C8010197F1F78C0104
:101130001B8F0A8F888D998D0197998F888F888D45
:10114000998D009751F717C06C897D898E899F8989
:101150000E94970EDC01CB01998F888F888D998D25
:101160009D8F8C8F8C8D9D8D8C01F8013197F1F7BF
:101170008F011D8F0C8F6D960FB6F894DEBF0FBEDA
:10118000CDBFCF91DF911F910F910895DF93CF9342
:1011900000D0CDB7DEB79A83898380E00E944F0BE1
:1011A00029813A818BE0B90145E00E94DB0A81E0A8
:1011B0000E944F0B0F900F90CF91DF910895DF9316
:1011C000CF9300D0CDB7DEB79A83898329813A8146
:1011D0008AE0B90145E00E94DB0A29813A8180E179
:1011E000B90145E00E94DB0A0F900F90CF91DF918B
:1011F0000895DF93CF930F92CDB7DEB70E948D098C
:1012000089838981882F90E080749070009711F015
:1012100081E007C00E941509982F81E0992309F009
:1012200080E00F90CF91DF910895DF93CF930F92DD
:10123000CDB7DEB787E19E012F5F3F4FB90141E097
:101240000E94B80A898181700F90CF91DF91089533
:10125000DF93CF9300D0CDB7DEB79A83898380E048
:101260000E946F0B81E60E94FB0940915E0189811B
:101270009A8129813A81B9010E94430A81E00E9442
:101280006F0B87E060E40E949E0A0F900F90CF9151
:10129000DF910895DF93CF9300D0CDB7DEB79A8367
:1012A000898380E00E944F0B0E94DE0980E00E944B
:1012B0006F0B81EE0E94FB0981E00E946F0B80E0C2
:1012C0000E946F0B80EA0E94FB0920915E018981D8
:1012D0009A81622F0E947A0A81E00E946F0B81E05E
:1012E0000E944F0B0F900F90CF91DF910895DF93E5
:1012F000CF930F92CDB7DEB70E948D098983898184
:10130000882F90E080739070009711F080E001C00A
:1013100081E00F90CF91DF910895DF93CF930F92EB
:10132000CDB7DEB780E00E946F0B8FEF0E94FB0904
:10133000898381E00E946F0B89810F90CF91DF91AB
:101340000895DF93CF930F92CDB7DEB70E948D093A
:1013500089838981882F90E080729070009711F0C6
:1013600080E00AC08981882F90E08071907000979A
:1013700011F081E001C08FEF0F90CF91DF910895C0
:10138000DF93CF93CDB7DEB780E00E946F0B82EE84
:101390000E94FB0981E00E946F0B87E060E70E94DA
:1013A0009E0A80E00E944F0B80E06BE00E949E0A44
:1013B00081E00E944F0BCF91DF910895DF93CF938F
:1013C000CDB7DEB787E060E70E949E0A80E06AE062
:1013D0000E949E0ACF91DF910895DF93CF93CDB7FE
:1013E000DEB780E00E944F0B80E068E00E949E0A1A
:1013F000CF91DF910895DF93CF9300D00F92CDB7B7
:10140000DEB78B8319821A8280E00E948F0B1982CB
:1014100030C08B81882F90E02981222F30E047E077
:1014200050E0BA01621B730B9B01022E02C095951E
:1014300087950A94E2F781709070882321F081E00B
:101440000E94AF0B03C080E00E94AF0B81E00E94BE
:101450008F0B8A81880F8A830E94CF0B882319F013
:101460008A8181608A8380E00E948F0B89818F5FEF
:1014700089838981883068F28A810F900F900F905C
:10148000CF91DF9108950F931F93DF93CF9300D0F7
:1014900000D000D0CDB7DEB79B838A837D836C8379
:1014A0004E83198218C08981882F90E02C813D815C
:1014B0008901080F191F8981882F90E02A813B81BB
:1014C000820F931FFC0180810E94FB09F801808339
:1014D00089818F5F898399818E81981720F3269661
:1014E0000FB6F894DEBF0FBECDBFCF91DF911F9135
:1014F0000F910895DF93CF9300D000D0CDB7DEB722
:101500009B838A836C8319820EC08981882F90E027
:101510002A813B81820F931FFC0180810E94FB097D
:1015200089818F5F898399818C81981770F30F90DF
:101530000F900F900F90CF91DF910895DF93CF938D
:1015400000D0CDB7DEB789836A8380E00E946F0B3D
:1015500089818F7180620E94FB098A810E94FB0948
:1015600081E00E946F0B0F900F90CF91DF91089553
:10157000DF93CF9300D000D0CDB7DEB789837B83D4
:101580006A834C8380E00E946F0B89818F710E9477
:10159000FB098A819B812A813B81B9014C810E9490
:1015A000430A81E00E946F0B0F900F900F900F90F5
:1015B000CF91DF910895DF93CF9300D000D0CDB7C6
:1015C000DEB789837B836A834C8380E00E946F0B44
:1015D00089818F7180620E94FB098A819B816C8165
:1015E0000E947A0A81E00E946F0B0F900F900F907B
:1015F0000F90CF91DF910895DF93CF9300D000D06B
:10160000CDB7DEB78A836B834C838A819E012F5FBF
:101610003F4FB9014C810E94B80A99818B8198177C
:1016200011F481E001C080E00F900F900F900F90B7
:10163000CF91DF910895DF93CF93CDB7DEB787E2E7
:1016400090E027E230E0F90120812160FC01208355
:1016500087E290E027E230E0F90120812260FC017E
:10166000208387E290E027E230E0F90120812460C6
:10167000FC01208387E290E027E230E0F90120813D
:101680002860FC01208387E290E027E230E0F90146
:1016900020812F7EFC012083CF91DF910895DF937D
:1016A000CF930F92CDB7DEB789838981882351F01C
:1016B00088E290E028E230E0F90120812160FC011D
:1016C000208309C088E290E028E230E0F90120811F
:1016D0002E7FFC0120830F90CF91DF910895DF933F
:1016E000CF930F92CDB7DEB789838981882351F0DC
:1016F00088E290E028E230E0F90120812260FC01DC
:10170000208309C088E290E028E230E0F9012081DE
:101710002D7FFC0120830F90CF91DF910895DF93FF
:10172000CF930F92CDB7DEB789838981882351F09B
:1017300088E290E028E230E0F90120812460FC0199
:10174000208309C088E290E028E230E0F90120819E
:101750002B7FFC0120830F90CF91DF910895DF93C1
:10176000CF930F92CDB7DEB789838981882351F05B
:1017700088E290E028E230E0F90120812860FC0155
:10178000208309C088E290E028E230E0F90120815E
:10179000277FFC0120830F90CF91DF910895DF9385
:1017A000CF93CDB7DEB786E290E0FC0180818071F7
:1017B000CF91DF910895DF93CF9300D00F92CDB7F3
:1017C000DEB78A836B830E946600198212C00E9472
:1017D000ED090E94E3068091270160E20E94F20673
:1017E0000E943A07882319F081E0898302C00E9491
:1017F0009307998181E08927882349F78B81882382
:1018000099F480911B0190911C010E94DF088A814C
:10181000882F90E0880F991F8B5E9E4FFC0180817E
:1018200091810E94C60812C08A81882F90E0880F9B
:10183000991F8B5E9E4FFC01808191810E94DF0881
:1018400080911B0190911C010E94C6080E94C00952
:101850000F900F900F90CF91DF910895DF93CF936A
:10186000CDB7DEB785EC90E0FC01108284EC90E00F
:101870002FECFC01208380EC90E020EC30E0F901BB
:1018800020812260FC01208382EC90E022EC30E099
:10189000F90120812660FC0120830E94660080916E
:1018A0005201909153019093610180936001CF9117
:1018B000DF910895DF93CF9300D00F92CDB7DEB7BD
:1018C0009A8389836B83000080EC90E0FC01808127
:1018D000882F90E0807290700097B1F38091520150
:1018E0009091530190936101809360012091520186
:1018F000309153018B81882F90E0820F931F90933A
:1019000063018093620180915201909153012B8178
:10191000222F30E049815A81BA01A9010E94C111E8
:1019200080EC90E020EC30E0F9012081206CFC019B
:10193000208381EC90E021EC30E0F90120812864E3
:10194000FC01208381EC90E021EC30E0F901208162
:101950002F76FC0120837894809160019091610141
:101960000196909361018093600186EC90E0209154
:10197000520130915301F9012081FC0120830000C4
:101980000E94CA0C8823E1F70F900F900F90CF911F
:10199000DF910895DF93CF93CDB7DEB7209160013B
:1019A000309161018091620190916301281739079C
:1019B00011F081E001C080E0CF91DF910895DF93C5
:1019C000CF93CDB7DEB7000080EC90E0FC018081C2
:1019D000882F90E0807290700097B1F3809152014F
:1019E00090915301909361018093600180EC90E0AD
:1019F00020EC30E0F9012081206CFC01208381EC97
:101A000090E021EC30E0F9012081277BFC0120836C
:101A100081EC90E021EC30E0F90120812069FC01AB
:101A200020837894CF91DF910895DF93CF9300D0F6
:101A300000D00F92CDB7DEB7109264010E94E4008F
:101A400089838981882309F043C0809155018130C1
:101A500019F40E94F7023CC00E9404038A838A8121
:101A6000882F90E08130910531F08230910571F03E
:101A70000097B9F021C088E08D839E012B5F3F4F16
:101A800080E0B90141E00E943A0316C088E08C83EF
:101A90009E012C5F3F4F80E0B90141E00E943A0374
:101AA0000BC089E08B839E012D5F3F4F80E0B90121
:101AB00041E00E943A03000084E061E040E00E94BF
:101AC0000A02809152019091530160E20E945A0CE7
:101AD0000F900F900F900F900F90CF91DF9108957E
:101AE000DF93CF93CDB7DEB781EC90E021EC30E00F
:101AF000F9012081277BFC01208381EC90E021EC1F
:101B000030E0F90120812F76FC012083CF91DF9115
:101B100008951F920F920FB60F9211242F933F93A7
:101B20008F939F93EF93FF93DF93CF93CDB7DEB760
:101B30002091600130916101809162019091630177
:101B40002817390799F086EC90E0209160013091D8
:101B50006101F9012081FC01208380916001909155
:101B6000610101969093610180936001CF91DF91B3
:101B7000FF91EF919F918F913F912F910F900FBE09
:101B80000F901F9018951F920F920FB60F9211246D
:101B90002F933F934F935F936F937F938F939F9375
:101BA000AF93BF93EF93FF93DF93CF9300D000D019
:101BB000CDB7DEB780915201909153019C01205E18
:101BC0003F4F80916001909161012817390709F416
:101BD00082C0809160019091610126EC30E0F901B2
:101BE0002081FC0120838091600190916101FC01C2
:101BF0008081873151F40E94E400882331F40E94EF
:101C0000700D81E08093640178C0809160019091B3
:101C10006101FC0180818F3709F053C081E0898325
:101C2000809160019091610101969C838B8381E09A
:101C30008A8331C020916001309161018A81882FAF
:101C400090E0909581959F4F280F391F8091520108
:101C5000909153012817390748F4809152019091CF
:101C600053014F9690936101809360012091600130
:101C7000309161018A81882F90E0909581959F4FE6
:101C8000820F931FFC0180818F3711F0198206C0EB
:101C90008A818F5F8A838A81843060F28981882378
:101CA00049F080915201909153019093610180938A
:101CB000600123C08B819C819093610180936001BE
:101CC0001CC0809160019091610101969093610127
:101CD0008093600112C080915201909153019093C2
:101CE000610180936001809160019091610126EC17
:101CF00030E0F9012081FC0120832496DEBFCDBFB6
:101D0000CF91DF91FF91EF91BF91AF919F918F9113
:101D10007F916F915F914F913F912F910F900FBEE7
:101D20000F901F9018952FD008F481E0089557D098
:101D300088F09F5790F0B92F9927B751A0F0D1F0B4
:101D4000660F771F881F991F1AF0BA95C9F712C03E
:101D5000B13081F05ED0B1E008955BC0672F782F7D
:101D60008827B85F39F0B93FCCF3869577956795AA
:101D7000B395D9F73EF490958095709561957F4F16
:101D80008F4F9F4F0895990F0008550FAA0BE0E859
:101D9000FEEF16161706E807F907C0F0121613062D
:101DA000E407F50798F0621B730B840B950B39F46D
:101DB0000A2661F0232B242B252B21F408950A26D3
:101DC00009F4A140A6958FEF811D811D089557FD4F
:101DD0009058440F551F59F05F3F71F04795880F99
:101DE00097FB991F61F09F3F79F087950895121630
:101DF00013061406551FF2CF4695F1DF08C01616DC
:101E000017061806991FF1CF86957105610508948C
:101E10000895E894BB2766277727CB0197F90895A3
:101E2000B2DF08F48FEF08950BD078C069D028F0A6
:101E30006ED018F0952309F05AC05FC01124EACF84
:101E4000C6DFA0F3959FD1F3950F50E0551F629F19
:101E5000F001729FBB27F00DB11D639FAA27F00D03
:101E6000B11DAA1F649F6627B00DA11D661F829F2A
:101E70002227B00DA11D621F739FB00DA11D621F0F
:101E8000839FA00D611D221F749F3327A00D611D2C
:101E9000231F849F600D211D822F762F6A2F11240E
:101EA0009F5750408AF0E1F088234AF0EE0FFF1F61
:101EB000BB1F661F771F881F91505040A9F79E3F98
:101EC000510570F014C0A6CF5F3FECF3983EDCF3F1
:101ED000869577956795B795F795E7959F5FC1F7D5
:101EE000FE2B880F911D9695879597F9089597F980
:101EF0009F6780E870E060E008959FEF80EC0895B0
:101F000000240A94161617061806090608950024D8
:101F10000A9412161306140605060895092E039452
:101F2000000C11F4882352F0BB0F40F4BF2B11F4C6
:101F300060FF04C06F5F7F4F8F4F9F4F0895EF92F8
:101F4000FF920F931F93CF93DF93689F8001699F48
:101F5000100D789F100D1124C8010E94C30FE82EA8
:101F6000E7017E01F92EE701209731F08E2D60E028
:101F700070E0A8010E94CA117E01CE01CDB7DEB784
:101F8000E6E00C94F911CF93DF938230910510F4C1
:101F900082E090E0E0916701F091680140E050E05C
:101FA00020E030E026C06081718168177907E0F099
:101FB0006817790781F4828193812115310531F009
:101FC000D90113969C938E9312972BC0909368011E
:101FD0008093670126C04115510519F064177507F4
:101FE00018F4AB01E901DF019F0172816381E72FE2
:101FF000F62F3097C1F64115510501F1481B590BD9
:102000004430510580F412968D919C91139720973E
:1020100019F09B838A8304C09093680180936701C1
:10202000FD01329646C0FD01E40FF51F81939193A7
:102030004250504011965C934E933BC020916501F5
:10204000309166012115310541F420910201309152
:1020500003013093660120936501209104013091C2
:1020600005012115310541F42DB73EB7409100011E
:1020700050910101241B350BE0916501F09166013F
:10208000E217F307A0F42E1B3F0B2817390778F04F
:10209000AC014E5F5F4F2417350748F04E0F5F1FAE
:1020A00050936601409365018193919302C0E0E0F3
:1020B000F0E0CF01DF91CF910895CF93DF930097A8
:1020C00009F491C0FC01329713821282609167017A
:1020D000709168016115710581F420813181280FAB
:1020E000391F80916501909166018217930799F5D8
:1020F000F0936601E093650176C0DB0180E090E03B
:1021000002C0CD01D901AE17BF0748F412962D9138
:102110003C91139721153105A1F7CD0121C0B3835F
:10212000A283EF01499159919E01240F351FA217F7
:10213000B30779F42D913C911197240F351F2E5F31
:102140003F4F3183208312962D913C911397338317
:102150002283009729F4F0936801E093670143C05C
:10216000DC011396FC93EE9312974D915D91A40FB1
:10217000B51FEA17FB0769F420813181240F351F51
:102180002E5F3F4FEC0139832883228133813B83CB
:102190002A83E0E0F0E002C0FB01BC01DB01129603
:1021A0008D919C9113970097B9F79B012E5F3F4F3C
:1021B0008D919C911197820F931F409165015091D1
:1021C00066014817590779F4309729F4109268018D
:1021D0001092670102C01382128222503040309365
:1021E000660120936501DF91CF910895A0E0B0E0F2
:1021F000ECEFF0E10C94D7118C01CB010115110526
:1022000029F40E94C30F082F192FB5C0D8011297C7
:102210009801260F371F2A173B0708F4AAC0ED9034
:10222000FC901197E616F706D0F045E0E416F104AD
:1022300008F4A1C0A701445050404617570708F4BE
:102240009AC0A70142505040461B570BF9014193D9
:1022500051936D937C93CF010E945D108CC05B0104
:10226000AE18BF0848018E0C9F1CE0916701F091E9
:102270006801CC24DD24C0E0D0E041C0E815F905B8
:1022800099F560817181AB014E5F5F4F4A155B0527
:1022900058F1AB014A195B09CC24DD246894C1F8DC
:1022A000C40ED51E8280A380E5E0CE16D10448F08E
:1022B000F9018282A3825183408311969C938E936D
:1022C00009C0C7010296860F971F11969C938E93A3
:1022D000E82DFA2D209719F0FB83EA834CC0F09388
:1022E0006801E093670147C040815181C416D5065B
:1022F00008F46A01EF0152814381E52FF42F3097F2
:1023000009F0BCCF4091650150916601481559050F
:10231000E9F4C816D906D0F44091040150910501A2
:102320004115510541F44DB75EB7609100017091C0
:102330000101461B570B24173507D8F4309366016B
:102340002093650111969C938E9315C00E94C30F34
:10235000C82EE6016E01D92EE601209751F08C2D92
:10236000B801A7010E94C111C8010E945D10860139
:1023700002C000E010E0C801CDB7DEB7ECE00C947D
:10238000F311FB01DC0102C001900D92415050405D
:10239000D8F70895DC0101C06D9341505040E0F73B
:1023A00008952F923F924F925F926F927F928F92F9
:1023B0009F92AF92BF92CF92DF92EF92FF920F93D4
:1023C0001F93CF93DF93CDB7DEB7CA1BDB0B0FB6DE
:1023D000F894DEBF0FBECDBF09942A88398848889B
:1023E0005F846E847D848C849B84AA84B984C88431
:1023F000DF80EE80FD800C811B81AA81B981CE0F28
:10240000D11D0FB6F894DEBF0FBECDBFED0108950C
:04241000F894FFCF6E
:10241400200069010000F0F0F0F0C9A4A4A4A4A471
:10242400F0F0F0F0F00B01100106010B0193039A98
:0824340003A103180522067044
:00000001FF
