S020000050726F796563746F20646520706C616361206D6F7472697A2E73726563E0
S11300000C9434000C9451000C9451000C94510045
S11300100C9451000C9451000C9451000C94510018
S11300200C9451000C9451000C9451000C94510008
S11300300C9451000C9451000C9451000C945100F8
S11300400C9451000C9451000C9451000C945100E8
S11300500C9451000C9451000C9451000C945100D8
S11300600C9451000C94510011241FBECFEFD8E022
S1130070DEBFCDBF11E0A0E0B1E0E6EBF8E302C0E3
S113008005900D92A832B107D9F711E0A8E2B1E0CA
S113009001C01D92AF35B107E1F70E9402130C9421
S11300A0591C0C940000DF93CF93CDB7DEB780E0EA
S11300B0CF91DF910895DF93CF930F92CDB7DEB741
S11300C0898389810F90CF91DF9108950F931F93B6
S11300D0DF93CF9300D0CDB7DEB78091570188234B
S11300E011F080E06AC087E190E061E070E00E9476
S11300F0F01990932E0180932D0182E090E061E04D
S113010070E00E94F019909331018093300182E0F5
S113011090E061E070E00E94F019909334018093C4
S1130120330183E0898317C08981082F10E081E0BF
S113013090E061E070E00E94F0199C01C801880F12
S1130140991F800F911F835D9E4FFC013183208393
S113015089818F5F898389818C3030F380E290E0DC
S113016061E070E00E94F01990935601809355016C
S11301708091550190915601009711F480E01DC0C3
S11301801A8214C08A81282F30E0C901880F991F70
S1130190820F931F835D9E4FFC01808191810097A4
S11301A011F480E00AC08A818F5F8A838A818C304F
S11301B048F381E08093570181E00F900F90CF9135
S11301C0DF911F910F910895DF93CF93CDB7DEB7E1
S11301D029970FB6F894DEBF0FBECDBF80915501AD
S11301E0909156019A83898380915501909156018B
S11301F04F969C838B8307C189819A81FC018081FE
S1130200813009F0FBC089819A810496FC018081C8
S1130210823009F0F3C0E5C08B819C81FC018081B0
S1130220873109F0D9C08B819C810297FC018081C0
S1130230833009F0D1C08B819C810297282F89815A
S11302409A81F22FF81B8F2F88870E945300898789
S11302508885282F30E049815A818985BA01A9010E
S11302600E949A12898789850E945B0089878B8105
S11302709C810197FC0190818985981711F083E096
S1130280D0C089819A810296FC018081833049F033
S113029089819A810296FC0180818F3F11F084E06C
S11302A0C0C089819A810296FC01808180935801A3
S11302B089819A810396FC0180818093510189810F
S11302C09A810596FC018081853010F085E0A9C0F3
S11302D089819A810596FC018081882F90E0880F9E
S11302E0991F825E9E4FFC018081918190935301FE
S11302F08093520189819A810196FC0180818093C7
S1130300540189819A8106969E838D831F825CC0E5
S11303108F81282F30E0C901880F991F820F931F06
S1130320835D9E4FFC01808191812D813E81F90185
S11303302081222F30E0B9010E94471B8F81282F92
S113034030E08D819E81FC014081C901880F991F95
S1130350820F931F815D9E4FFC0140838F81282F64
S113036030E0C901880F991F820F931F835D9E4F50
S1130370FC01808191812D813E81A9014F5F5F4FF6
S11303802D813E81F9012081222F30E0BA01A9019B
S11303900E94121C8D819E81FC018081882F90E037
S11303A001962D813E81820F931F9E838D838B81C5
S11303B09C819C01225030408D819E81821793073D
S11303C040F48F818F5F8F838F818C3008F4A0CFAE
S11303D001C0000080E025C08B819C8101979C8333
S11303E08B8380915501909156019C012A5F3F4F68
S11303F08B819C812817390709F00ECF89819A8156
S113040001969A83898380915501909156019C01AC
S11304102A5E3F4F89819A812817390709F0ECCE6B
S113042081E029960FB6F894DEBF0FBECDBFCF9101
S1130430DF910895DF93CF93CDB7DEB7809152015A
S113044090915301FC010995CF91DF910895DF93B9
S1130450CF93CDB7DEB728970FB6F894DEBF0FBEA3
S1130460CDBF8E836F83488780915501909156014B
S113047060E070E040E250E00E941B1C8091550156
S11304809091560121E0FC012083809154018F3F1B
S113049031F4809154018F5F8093540102C0109213
S11304A05401809155019091560101962091540177
S11304B0FC01208380915501909156010296288574
S11304C0FC0120838091550190915601039623E00D
S11304D0FC0120838091550190915601049622E0FD
S11304E0FC012083809155019091560105962E813F
S11304F0FC0120838F818D3010F087E08CC08091C7
S113050055019091560106969A8389831B824DC0AA
S11305108B81282F30E0C901880F991F820F931F08
S1130520815D9E4FFC01208189819A81FC01208399
S113053089819A81BC016F5F7F4F8B81282F30E0C6
S1130540C901880F991F820F931F835D9E4FFC0181
S1130550408151818B81282F30E0C901880F991F78
S1130560820F931F815D9E4FFC018081282F30E014
S1130570CB01BA01A9010E94121C8B81282F30E003
S1130580C901880F991F820F931F815D9E4FFC0143
S11305908081882F90E0019629813A81820F931FF0
S11305A09A8389838B818F5F8B839B818F8198173B
S11305B008F4AECF0E9453008C8389819A81282F3E
S11305C08091550190915601F22FF81B8F2F8D8346
S11305D040915501509156018D81282F30E08C8136
S11305E0BA01A9010E949A128C838C810E945B003B
S11305F08C8389819A8123E0FC01208389819A81FB
S113060001962C81FC01208389819A81029627E13D
S1130610FC0120838AE028960FB6F894DEBF0FBE53
S1130620CDBFCF91DF9108950F931F93DF93CF93A5
S113063000D000D0CDB7DEB789837B836A834C8337
S11306408981082F10E08981282F30E0C901880FA3
S1130650991F820F931F835D9E4FFC0180819181BE
S11306602C81222F30E0B9010E94471B9C01C80154
S1130670880F991F800F911F835D9E4FFC0131836A
S113068020838981282F30E0C901880F991F820FA8
S1130690931F835D9E4FFC01808191812C81222FC9
S11306A030E04A815B81BA01A9010E94121C898150
S11306B0282F30E0C901880F991F820F931F815D95
S11306C09E4F2C81FC0120830F900F900F900F9070
S11306D0CF91DF911F910F9108950F931F93DF9393
S11306E0CF93CDB7DEB760970FB6F894DEBF0FBED9
S11306F0CDBF198208C18981482F50E08981282FF4
S113070030E0C901880F991F820F931F835D9E4FAC
S1130710FC0180819181FC012081CA01865D9E4F8C
S1130720FC0120838981882F90E08130910581F03C
S113073082309105B9F0009709F0E2C08981882FD1
S113074090E0865D9E4FFC0180810E94830CD8C09E
S11307508981882F90E0865D9E4FFC0180810E94F4
S11307606C06CEC08981882F90E0865D9E4FFC0187
S113077080818F3F09F0C3C01A82A1C085E290E056
S113078025E230E0F901308121E02327FC012083B8
S113079085E290E025E230E0F901308122E0232770
S11307A0FC01208385E290E025E230E0F90130810C
S11307B024E02327FC01208380E090E0A8E4B3E454
S11307C08B839C83AD83BE836B817C818D819E8171
S11307D020E030E04AE755E40E946519DC01CB01D2
S11307E08F839887A987BA8711E06F817885898577
S11307F09A8520E030E040E85FE30E94E418882313
S11308000CF010E0112329F081E090E09C878B87A5
S113081046C011E06F81788589859A8520E03FEF95
S11308204FE757E40E94611918160CF010E01123E9
S113083061F16B817C818D819E8120E030E040E21A
S113084051E40E946519DC01CB01BC01CD010E9479
S1130850E818DC01CB019C878B8712C080E991E00A
S11308609E878D878D859E858C01C8010197F1F740
S11308708C011E870D878B859C8501979C878B87B0
S11308808B859C85009751F717C06F817885898582
S11308909A850E94E818DC01CB019C878B878B85A5
S11308A09C85988B8F878F8598898C01F801319767
S11308B0F1F78F01188B0F878A818F5F8A838A8172
S11308C0863008F45BCF85E290E025E230E0F90160
S11308D020812E7FFC01208385E290E025E230E038
S11308E0F90120812D7FFC01208385E290E025E23F
S11308F030E0F90120812B7FFC01208301C000003E
S113090089818F5F89838981833008F4F4CE60966E
S11309100FB6F894DEBF0FBECDBFCF91DF911F910C
S11309200F9108950F931F93DF93CF93CDB7DEB745
S113093061970FB6F894DEBF0FBECDBF80912D0135
S113094090912E01FC0180818A83809130019091E5
S11309503101FC0180818B838A81882F90E0813072
S1130960910551F08230910559F0009709F0CBC000
S11309708B810E94830CC7C08B810E946C06C3C00C
S11309801982A1C085E290E025E230E0F9013081CE
S113099021E02327FC01208385E290E025E230E07A
S11309A0F901308122E02327FC01208385E290E0D5
S11309B025E230E0F901308124E02327FC01208383
S11309C080E090E0A8E4B3E48C839D83AE83BF838E
S11309D06C817D818E819F8120E030E04AE755E47F
S11309E00E946519DC01CB0188879987AA87BB8798
S11309F011E0688579858A859B8520E030E040E8B0
S1130A005FE30E94E41888230CF010E0112329F01E
S1130A1081E090E09D878C8746C011E068857985E8
S1130A208A859B8520E03FEF4FE757E40E946119D8
S1130A3018160CF010E0112361F16C817D818E8118
S1130A409F8120E030E040E251E40E946519DC011E
S1130A50CB01BC01CD010E94E818DC01CB019D87CC
S1130A608C8712C080E991E09F878E878E859F8551
S1130A708C01C8010197F1F78C011F870E878C85C3
S1130A809D8501979D878C878C859D85009751F75F
S1130A9017C0688579858A859B850E94E818DC01E2
S1130AA0CB019D878C878C859D85998B888B8889C4
S1130AB099898C01F8013197F1F78F01198B088B13
S1130AC089818F5F89838981863008F45BCF85E2D1
S1130AD090E025E230E0F90120812E7FFC012083A3
S1130AE085E290E025E230E0F90120812D7FFC01D0
S1130AF0208385E290E025E230E0F90120812B7F1C
S1130B00FC01208300008A81882F90E0865D9E4F3F
S1130B102B81FC01208361960FB6F894DEBF0FBED3
S1130B20CDBFCF91DF911F910F910895DF93CF93A4
S1130B30CDB7DEB7CF91DF9108950F931F93DF9365
S1130B40CF93CDB7DEB760970FB6F894DEBF0FBE74
S1130B50CDBF80E090E0A8ECB2E48A839B83AC83B1
S1130B60BD836A817B818C819D8120E030E04AE7EE
S1130B7055E40E946519DC01CB018E839F83A8870D
S1130B80B98711E06E817F818885998520E030E006
S1130B9040E85FE30E94E41888230CF010E011237E
S1130BA029F081E090E09B878A8746C011E06E813E
S1130BB07F818885998520E03FEF4FE757E40E94C5
S1130BC0611918160CF010E0112361F16A817B8120
S1130BD08C819D8120E030E040E251E40E9465195F
S1130BE0DC01CB01BC01CD010E94E818DC01CB0182
S1130BF09B878A8712C080E991E09D878C878C85CA
S1130C009D858C01C8010197F1F78C011D870C8724
S1130C108A859B8501979B878A878A859B85009710
S1130C2051F717C06E817F81888599850E94E818E5
S1130C30DC01CB019B878A878A859B859F878E876A
S1130C408E859F858C01F8013197F1F78F011F87FD
S1130C500E8780912D0190912E01FC018081888B5B
S1130C609E01205F3F4F80E0B90141E00E941403E0
S1130C708889882F90E09C01265D3E4F81E0B90170
S1130C8042E00E94140381E062E04CE70E942702E4
S1130C9080E061E00E949118809155019091560185
S1130CA00E94001600000E942D168823E1F70E947E
S1130CB05716898360960FB6F894DEBF0FBECDBF7A
S1130CC0CF91DF911F910F910895DF93CF93CDB70B
S1130CD0DEB7CF91DF9108950F931F93DF93CF93E6
S1130CE0CDB7DEB7C757D0400FB6F894DEBF0FBEFE
S1130CF0CDBF9E0129583F4FF901808385E290E0E2
S1130D0025E230E0F90120812260FC01208385E2A4
S1130D1090E025E230E0F90120812460FC01208389
S1130D20CE0189589F4FFC018081883008F0CDC5E1
S1130D30CE0189589F4FFC018081282F30E080919B
S1130D402801882F90E0A901481B590BCA01992357
S1130D501CF4909581959F4FAC0128EC30E0429FA4
S1130D60C001439F900D529F900D11249E838D834B
S1130D70CE0189589F4FFC018081282F30E080915B
S1130D802801882F90E0A901481B590BCA011816A5
S1130D9019060CF025C21A82198219C28BE290E05E
S1130DA023E0FC01208380E090E0A0E8BFE38F8390
S1130DB09887A987BA876F81788589859A8520E085
S1130DC030E04AE755E40E946519DC01CB018B87CA
S1130DD09C87AD87BE8711E06B857C858D859E855C
S1130DE020E030E040E85FE30E94E41888230CF040
S1130DF010E0112329F081E090E0988B8F8746C0A2
S1130E0011E06B857C858D859E8520E03FEF4FE763
S1130E1057E40E94611918160CF010E0112361F1D7
S1130E206F81788589859A8520E030E040E251E43D
S1130E300E946519DC01CB01BC01CD010E94E818B8
S1130E40DC01CB01988B8F8712C080E991E09A8BEB
S1130E50898B89899A898C01C8010197F1F78C01E2
S1130E601A8B098B8F8598890197988B8F878F852B
S1130E709889009751F717C06B857C858D859E8571
S1130E800E94E818DC01CB01988B8F878F859889A5
S1130E909C8B8B8B8B899C898C01F8013197F1F7A2
S1130EA08F011C8B0B8B8BE290E026E0FC012083EE
S1130EB080E090E0A0E8BFE38D8B9E8BAF8BB88F72
S1130EC06D897E898F89988D20E030E04AE755E46A
S1130ED00E946519DC01CB01898F9A8FAB8FBC8F7F
S1130EE011E0698D7A8D8B8D9C8D20E030E040E897
S1130EF05FE30E94E41888230CF010E0112329F02A
S1130F0081E090E09E8F8D8F46C011E0698D7A8DCF
S1130F108B8D9C8D20E03FEF4FE757E40E946119D1
S1130F2018160CF010E0112361F16D897E898F8908
S1130F30988D20E030E040E251E40E946519DC0124
S1130F40CB01BC01CD010E94E818DC01CB019E8FCE
S1130F508D8F12C080E991E098A38F8F8F8D98A117
S1130F608C01C8010197F1F78C0118A30F8F8D8DA7
S1130F709E8D01979E8F8D8F8D8D9E8D009751F73D
S1130F8017C0698D7A8D8B8D9C8D0E94E818DC01C9
S1130F90CB019E8F8D8F8D8D9E8D9AA389A389A160
S1130FA09AA18C01F8013197F1F78F011AA309A3D3
S1130FB08BE290E02CE0FC01208380E090E0A0E84C
S1130FC0BFE38BA39CA3ADA3BEA36BA17CA18DA106
S1130FD09EA120E030E04AE755E40E946519DC0157
S1130FE0CB018FA398A7A9A7BAA711E06FA178A5F1
S1130FF089A59AA520E030E040E85FE30E94E41868
S113100088230CF010E0112329F081E090E09CA7E4
S11310108BA746C011E06FA178A589A59AA520E009
S11310203FEF4FE757E40E94611918160CF010E0E7
S1131030112361F16BA17CA18DA19EA120E030E080
S113104040E251E40E946519DC01CB01BC01CD01F1
S11310500E94E818DC01CB019CA78BA712C080E991
S113106091E09EA78DA78DA59EA58C01C80101972F
S1131070F1F78C011EA70DA78BA59CA501979CA732
S11310808BA78BA59CA5009751F717C06FA178A5D6
S113109089A59AA50E94E818DC01CB019CA78BA71F
S11310A08BA59CA598AB8FA78FA598A98C01F80157
S11310B03197F1F78F0118AB0FA78BE290E029E08D
S11310C0FC01208380E090E0A0E8BFE389AB9AAB09
S11310D0ABABBCAB69A97AA98BA99CA920E030E091
S11310E04AE755E40E946519DC01CB018DAB9EAB48
S11310F0AFABB8AF11E06DA97EA98FA998AD20E080
S113110030E040E85FE30E94E41888230CF010E02C
S1131110112329F081E090E09AAF89AF46C011E035
S11311206DA97EA98FA998AD20E03FEF4FE757E462
S11311300E94611918160CF010E0112361F169A9DD
S11311407AA98BA99CA920E030E040E251E40E94F6
S11311506519DC01CB01BC01CD010E94E818DC015A
S1131160CB019AAF89AF12C080E991E09CAF8BAFFD
S11311708BAD9CAD8C01C8010197F1F78C011CAFBC
S11311800BAF89AD9AAD01979AAF89AF89AD9AAD8E
S1131190009751F717C06DA97EA98FA998AD0E9439
S11311A0E818DC01CB019AAF89AF89AD9AAD9EAF47
S11311B08DAF8DAD9EAD8C01F8013197F1F78F01A4
S11311C01EAF0DAF89819A8101969A838983298103
S11311D03A818D819E812817390708F4DFCD6AC3CF
S11311E01C821B825FC38BE290E02CE0FC01208315
S11311F09E01215C3F4F80E090E0A0E8BFE3F9014D
S113120080839183A283B3838E010D5B1F4FCE0134
S1131210CF96FC01608171818281938120E030E06E
S11312204AE755E40E946519DC01CB01F80180838B
S11312309183A283B383CE018D5B9F4F11E0FC01A8
S1131240608171818281938120E030E040E85FE336
S11312500E94E41888230CF010E0112349F0CE0119
S1131260895B9F4F21E030E0FC013183208373C010
S1131270CE018D5B9F4F11E0FC0160817181828101
S1131280938120E03FEF4FE757E40E94611918165D
S11312900CF010E0112309F44CC0CE01CF96FC01F0
S11312A0608171818281938120E030E040E251E4E9
S11312B00E946519DC01CB018E01095B1F4FBC0143
S11312C0CD010E94E818DC01CB01F80191838083F1
S11312D027C0CE01875B9F4F20E931E0FC013183B9
S11312E02083CE01875B9F4FFC01808191818C011B
S11312F0C8010197F1F78C01CE01875B9F4FFC0178
S113130011830083CE01895B9F4F9E01295B3F4F70
S1131310F9012081318121503040FC013183208347
S1131320CE01895B9F4FFC0180819181009789F6F2
S11313302FC08E01095B1F4FCE018D5B9F4FFC01B7
S113134060817181828193810E94E818DC01CB0164
S1131350F80191838083CE01855B9F4F9E01295BB9
S11313603F4FF90120813181FC0131832083CE017B
S1131370855B9F4FFC01808191818C01C80101979D
S1131380F1F78C01CE01855B9F4FFC011183008333
S11313908BE290E026E0FC0120839E01235B3F4F1B
S11313A080E090E0A0E8BFE3F90180839183A28309
S11313B0B3838E010F5A1F4FCE01835B9F4FFC01F5
S11313C0608171818281938120E030E04AE755E4B5
S11313D00E946519DC01CB01F80180839183A2830B
S11313E0B383CE018F5A9F4F11E0FC01608171815C
S11313F08281938120E030E040E85FE30E94E418BA
S113140088230CF010E0112349F0CE018B5A9F4F32
S113141021E030E0FC013183208374C0CE018F5A77
S11314209F4F11E0FC01608171818281938120E0F2
S11314303FEF4FE757E40E94611918160CF010E0D3
S1131440112309F44DC0CE01835B9F4FFC016081E1
S113145071818281938120E030E040E251E40E9476
S11314606519DC01CB018E010B5A1F4FBC01CD0164
S11314700E94E818DC01CB01F8019183808327C026
S1131480CE01895A9F4F20E931E0FC01318320834A
S1131490CE01895A9F4FFC01808191818C01C80142
S11314A00197F1F78C01CE01895A9F4FFC011183FA
S11314B00083CE018B5A9F4F9E012B5A3F4FF90157
S11314C02081318121503040FC0131832083CE01C1
S11314D08B5A9F4FFC0180819181009789F62FC020
S11314E08E010B5A1F4FCE018F5A9F4FFC01608112
S11314F07181828193810E94E818DC01CB01F8019B
S113150091838083CE01875A9F4F9E012B5A3F4F70
S1131510F90120813181FC0131832083CE01875A76
S11315209F4FFC01808191818C01C8010197F1F7E3
S11315308C01CE01875A9F4FFC01118300838BE2FB
S113154090E023E0FC0120839E01255A3F4F80E078
S113155090E0A0E8BFE3F90180839183A283B38381
S11315608E01015A1F4FCE01855A9F4FFC016081A5
S113157071818281938120E030E04AE755E40E9442
S11315806519DC01CB01F80180839183A283B383C5
S1131590CE01815A9F4F11E0FC01608171818281EB
S11315A0938120E030E040E85FE30E94E418882360
S11315B00CF010E0112349F0CE018D599F4F21E02A
S11315C030E0FC013183208374C0CE01815A9F4FE7
S11315D011E0FC01608171818281938120E03FEF01
S11315E04FE757E40E94611918160CF010E011231C
S11315F009F44DC0CE01855A9F4FFC016081718171
S11316008281938120E030E040E251E40E94651938
S1131610DC01CB018E010D591F4FBC01CD010E948D
S1131620E818DC01CB01F8019183808327C0CE0147
S11316308B599F4F20E931E0FC0131832083CE0197
S11316408B599F4FFC01808191818C01C8010197C6
S1131650F1F78C01CE018B599F4FFC01118300835C
S1131660CE018D599F4F9E012D593F4FF901208185
S1131670318121503040FC0131832083CE018D59CA
S11316809F4FFC0180819181009789F62FC08E01C4
S11316900D591F4FCE01815A9F4FFC01608171810A
S11316A0828193810E94E818DC01CB01F8019183C7
S11316B08083CE0189599F4F9E012D593F4FF901D7
S11316C020813181FC0131832083CE0189599F4FD0
S11316D0FC01808191818C01C8010197F1F78C0193
S11316E0CE0189599F4FFC01118300838BE290E066
S11316F029E0FC0120839E0127593F4F80E090E0C0
S1131700A0E8BFE3F90180839183A283B3838E01B0
S113171003591F4FCE0187599F4FFC01608171818E
S11317208281938120E030E04AE755E40E94651904
S1131730DC01CB01F80180839183A283B383CE01C2
S113174083599F4F11E0FC016081718182819381F3
S113175020E030E040E85FE30E94E41888230CF0C6
S113176010E0112349F0CE018F589F4F21E030E063
S1131770FC013183208374C0CE0183599F4F11E053
S1131780FC01608171818281938120E03FEF4FE70A
S113179057E40E94611918160CF010E0112309F4A3
S11317A04DC0CE0187599F4FFC01608171818281B8
S11317B0938120E030E040E251E40E946519DC01AD
S11317C0CB018E010F581F4FBC01CD010E94E818B8
S11317D0DC01CB01F8019183808327C0CE018D58B1
S11317E09F4F20E931E0FC0131832083CE018D58E5
S11317F09F4FFC01808191818C01C8010197F1F711
S11318008C01CE018D589F4FFC0111830083CE01C2
S11318108F589F4F9E012F583F4FF90120813181EE
S113182021503040FC0131832083CE018F589F4FDB
S1131830FC0180819181009789F62FC08E010F5899
S11318401F4FCE0183599F4FFC01608171818281BA
S113185093810E94E818DC01CB01F8019183808315
S1131860CE018B589F4F9E012F583F4FF901208185
S11318703181FC0131832083CE018B589F4FFC01C1
S1131880808191818C01C8010197F1F78C01CE010F
S11318908B589F4FFC01118300838B819C8101969F
S11318A09C838B832B813C818D819E8128173907F2
S11318B008F499CC8BE290E0FC011082CE018958A7
S11318C09F4FFC0180818093280185E290E025E20E
S11318D030E0F90120812D7FFC01208385E290E036
S11318E025E230E0F90120812B7FFC012083C958D7
S11318F0DF4F0FB6F894DEBF0FBECDBFCF91DF919F
S11319001F910F9108950F931F93DF93CF93CDB73A
S1131910DEB7C757D0400FB6F894DEBF0FBECDBFB9
S11319209E0129583F4FF901808385E290E025E22A
S113193030E0F90120812260FC01208385E290E0FF
S113194025E230E0F90120812460FC012083CE01EE
S113195089589F4FFC018081843008F0CDC5CE01A9
S113196089589F4FFC018081282F30E08091290104
S1131970882F90E0A901481B590BCA0199231CF434
S1131980909581959F4FAC0122E330E0429FC001C6
S1131990439F900D529F900D11249E838D83CE0101
S11319A089589F4FFC018081282F30E080912801C5
S11319B0882F90E0A901481B590BCA011816190673
S11319C00CF025C21A82198219C28BE290E020E33E
S11319D0FC01208380E090E0A0E8BFE38F83988738
S11319E0A987BA876F81788589859A8520E030E058
S11319F04AE755E40E946519DC01CB018B879C877B
S1131A00AD87BE8711E06B857C858D859E8520E042
S1131A1030E040E85FE30E94E41888230CF010E013
S1131A20112329F081E090E0988B8F8746C011E064
S1131A306B857C858D859E8520E03FEF4FE757E4DD
S1131A400E94611918160CF010E0112361F16F81E6
S1131A50788589859A8520E030E040E251E40E944F
S1131A606519DC01CB01BC01CD010E94E818DC0141
S1131A70CB01988B8F8712C080E991E09A8B898B78
S1131A8089899A898C01C8010197F1F78C011A8B15
S1131A90098B8F8598890197988B8F878F85988973
S1131AA0009751F717C06B857C858D859E850E94B4
S1131AB0E818DC01CB01988B8F878F8598899C8BE4
S1131AC08B8B8B899C898C01F8013197F1F78F01FD
S1131AD01C8B0B8B8BE290E020E6FC01208380E0E2
S1131AE090E0A0E8BFE38D8B9E8BAF8BB88F6D89A0
S1131AF07E898F89988D20E030E04AE755E40E9482
S1131B006519DC01CB01898F9A8FAB8FBC8F11E0F3
S1131B10698D7A8D8B8D9C8D20E030E040E85FE309
S1131B200E94E41888230CF010E0112329F081E0CE
S1131B3090E09E8F8D8F46C011E0698D7A8D8B8DDC
S1131B409C8D20E03FEF4FE757E40E94611918167F
S1131B500CF010E0112361F16D897E898F89988DD5
S1131B6020E030E040E251E40E946519DC01CB0141
S1131B70BC01CD010E94E818DC01CB019E8F8D8F42
S1131B8012C080E991E098A38F8F8F8D98A18C016A
S1131B90C8010197F1F78C0118A30F8F8D8D9E8DCD
S1131BA001979E8F8D8F8D8D9E8D009751F717C055
S1131BB0698D7A8D8B8D9C8D0E94E818DC01CB0198
S1131BC09E8F8D8F8D8D9E8D9AA389A389A19AA1B5
S1131BD08C01F8013197F1F78F011AA309A38BE265
S1131BE090E020ECFC01208380E090E0A0E8BFE3DB
S1131BF08BA39CA3ADA3BEA36BA17CA18DA19EA12D
S1131C0020E030E04AE755E40E946519DC01CB018D
S1131C108FA398A7A9A7BAA711E06FA178A589A552
S1131C209AA520E030E040E85FE30E94E4188823AE
S1131C300CF010E0112329F081E090E09CA78BA721
S1131C4046C011E06FA178A589A59AA520E03FEFD1
S1131C504FE757E40E94611918160CF010E01123A5
S1131C6061F16BA17CA18DA19EA120E030E040E256
S1131C7051E40E946519DC01CB01BC01CD010E9435
S1131C80E818DC01CB019CA78BA712C080E991E086
S1131C909EA78DA78DA59EA58C01C8010197F1F77C
S1131CA08C011EA70DA78BA59CA501979CA78BA7AC
S1131CB08BA59CA5009751F717C06FA178A589A59E
S1131CC09AA50E94E818DC01CB019CA78BA78BA5E1
S1131CD09CA598AB8FA78FA598A98C01F801319783
S1131CE0F1F78F0118AB0FA78BE290E020E9FC011C
S1131CF0208380E090E0A0E8BFE389AB9AABABAB74
S1131D00BCAB69A97AA98BA99CA920E030E04AE779
S1131D1055E40E946519DC01CB018DAB9EABAFABE2
S1131D20B8AF11E06DA97EA98FA998AD20E030E08D
S1131D3040E85FE30E94E41888230CF010E01123CC
S1131D4029F081E090E09AAF89AF46C011E06DA917
S1131D507EA98FA998AD20E03FEF4FE757E40E949A
S1131D60611918160CF010E0112361F169A97AA920
S1131D708BA99CA920E030E040E251E40E9465195F
S1131D80DC01CB01BC01CD010E94E818DC01CB01D0
S1131D909AAF89AF12C080E991E09CAF8BAF8BAD55
S1131DA09CAD8C01C8010197F1F78C011CAF0BAFFE
S1131DB089AD9AAD01979AAF89AF89AD9AAD009775
S1131DC051F717C06DA97EA98FA998AD0E94E81894
S1131DD0DC01CB019AAF89AF89AD9AAD9EAF8DAFCF
S1131DE08DAD9EAD8C01F8013197F1F78F011EAFD7
S1131DF00DAF89819A8101969A83898329813A81D9
S1131E008D819E812817390708F4DFCD6AC31C82AF
S1131E101B825FC38BE290E020ECFC0120839E01D7
S1131E20215C3F4F80E090E0A0E8BFE3F9018083AC
S1131E309183A283B3838E010D5B1F4FCE01CF9696
S1131E40FC01608171818281938120E030E04AE766
S1131E5055E40E946519DC01CB01F801808391836C
S1131E60A283B383CE018D5B9F4F11E0FC0160819F
S1131E7071818281938120E030E040E85FE30E9439
S1131E80E41888230CF010E0112349F0CE01895B9B
S1131E909F4F21E030E0FC013183208373C0CE01E9
S1131EA08D5B9F4F11E0FC01608171818281938180
S1131EB020E03FEF4FE757E40E94611918160CF039
S1131EC010E0112309F44CC0CE01CF96FC016081CF
S1131ED071818281938120E030E040E251E40E94EC
S1131EE06519DC01CB018E01095B1F4FBC01CD01DB
S1131EF00E94E818DC01CB01F8019183808327C09C
S1131F00CE01875B9F4F20E931E0FC0131832083C0
S1131F10CE01875B9F4FFC01808191818C01C801B8
S1131F200197F1F78C01CE01875B9F4FFC01118370
S1131F300083CE01895B9F4F9E01295B3F4FF901CE
S1131F402081318121503040FC0131832083CE0136
S1131F50895B9F4FFC0180819181009789F62FC096
S1131F608E01095B1F4FCE018D5B9F4FFC01608189
S1131F707181828193810E94E818DC01CB01F80110
S1131F8091838083CE01855B9F4F9E01295B3F4FE8
S1131F90F90120813181FC0131832083CE01855BED
S1131FA09F4FFC01808191818C01C8010197F1F759
S1131FB08C01CE01855B9F4FFC01118300838BE272
S1131FC090E020E6FC0120839E01235B3F4F80E0EC
S1131FD090E0A0E8BFE3F90180839183A283B383F7
S1131FE08E010F5A1F4FCE01835B9F4FFC0160810E
S1131FF071818281938120E030E04AE755E40E94B8
S11320006519DC01CB01F80180839183A283B3833A
S1132010CE018F5A9F4F11E0FC0160817181828152
S1132020938120E030E040E85FE30E94E4188823D5
S11320300CF010E0112349F0CE018B5A9F4F21E0A0
S113204030E0FC013183208374C0CE018F5A9F4F4E
S113205011E0FC01608171818281938120E03FEF76
S11320604FE757E40E94611918160CF010E0112391
S113207009F44DC0CE01835B9F4FFC0160817181E7
S11320808281938120E030E040E251E40E946519AE
S1132090DC01CB018E010B5A1F4FBC01CD010E9404
S11320A0E818DC01CB01F8019183808327C0CE01BD
S11320B0895A9F4F20E931E0FC0131832083CE010E
S11320C0895A9F4FFC01808191818C01C80101973D
S11320D0F1F78C01CE01895A9F4FFC0111830083D3
S11320E0CE018B5A9F4F9E012B5A3F4FF9012081FD
S11320F0318121503040FC0131832083CE018B5A41
S11321009F4FFC0180819181009789F62FC08E0139
S11321100B5A1F4FCE018F5A9F4FFC016081718172
S1132120828193810E94E818DC01CB01F80191833C
S11321308083CE01875A9F4F9E012B5A3F4FF9014E
S113214020813181FC0131832083CE01875A9F4F46
S1132150FC01808191818C01C8010197F1F78C0108
S1132160CE01875A9F4FFC01118300838BE290E0DC
S113217020E3FC0120839E01255A3F4F80E090E03C
S1132180A0E8BFE3F90180839183A283B3838E0126
S1132190015A1F4FCE01855A9F4FFC016081718106
S11321A08281938120E030E04AE755E40E9465197A
S11321B0DC01CB01F80180839183A283B383CE0138
S11321C0815A9F4F11E0FC0160817181828193816A
S11321D020E030E040E85FE30E94E41888230CF03C
S11321E010E0112349F0CE018D599F4F21E030E0DA
S11321F0FC013183208374C0CE01815A9F4F11E0CA
S1132200FC01608171818281938120E03FEF4FE77F
S113221057E40E94611918160CF010E0112309F418
S11322204DC0CE01855A9F4FFC016081718182812E
S1132230938120E030E040E251E40E946519DC0122
S1132240CB018E010D591F4FBC01CD010E94E8182E
S1132250DC01CB01F8019183808327C0CE018B5927
S11322609F4F20E931E0FC0131832083CE018B595B
S11322709F4FFC01808191818C01C8010197F1F786
S11322808C01CE018B599F4FFC0111830083CE0139
S11322908D599F4F9E012D593F4FF9012081318166
S11322A021503040FC0131832083CE018D599F4F52
S11322B0FC0180819181009789F62FC08E010D5910
S11322C01F4FCE01815A9F4FFC0160817181828131
S11322D093810E94E818DC01CB01F801918380838B
S11322E0CE0189599F4F9E012D593F4FF9012081FD
S11322F03181FC0131832083CE0189599F4FFC0138
S1132300808191818C01C8010197F1F78C01CE0184
S113231089599F4FFC01118300838BE290E020E9EF
S1132320FC0120839E0127593F4F80E090E0A0E804
S1132330BFE3F90180839183A283B3838E010359A0
S11323401F4FCE0187599F4FFC01608171818281AB
S1132350938120E030E04AE755E40E946519DC01EE
S1132360CB01F80180839183A283B383CE01835987
S11323709F4F11E0FC01608171818281938120E093
S113238030E040E85FE30E94E41888230CF010E09A
S1132390112349F0CE018F589F4F21E030E0FC011A
S11323A03183208374C0CE0183599F4F11E0FC0117
S11323B0608171818281938120E03FEF4FE757E490
S11323C00E94611918160CF010E0112309F44DC095
S11323D0CE0187599F4FFC01608171818281938175
S11323E020E030E040E251E40E946519DC01CB01B9
S11323F08E010F581F4FBC01CD010E94E818DC016B
S1132400CB01F8019183808327C0CE018D589F4F63
S113241020E931E0FC0131832083CE018D589F4FA8
S1132420FC01808191818C01C8010197F1F78C0135
S1132430CE018D589F4FFC0111830083CE018F582C
S11324409F4F9E012F583F4FF90120813181215028
S11324503040FC0131832083CE018F589F4FFC0113
S113246080819181009789F62FC08E010F581F4FEC
S1132470CE0183599F4FFC016081718182819381D8
S11324800E94E818DC01CB01F80191838083CE011E
S11324908B589F4F9E012F583F4FF9012081318166
S11324A0FC0131832083CE018B589F4FFC01808136
S11324B091818C01C8010197F1F78C01CE018B58F1
S11324C09F4FFC01118300838B819C8101969C8327
S11324D08B832B813C818D819E812817390708F4D9
S11324E099CC8BE290E0FC011082CE0189589F4F79
S11324F0FC0180818093290185E290E025E230E0AF
S1132500F90120812D7FFC01208385E290E025E202
S113251030E0F90120812B7FFC012083C958DF4F73
S11325200FB6F894DEBF0FBECDBFCF91DF911F91E0
S11325300F910895DF93CF93CDB7DEB72B970FB6E6
S1132540F894DEBF0FBECDBF8F83798768875B8722
S11325504A87888599859A8389833CC089819A8131
S1132560FC0180818E8389819A8101969A83898373
S113257080E890E09C838B8329C08F81882F90E032
S11325808078907021E0009709F420E02D838E81FB
S1132590282F30E08B819C8182239323009731F094
S11325A09D8181E08927882F90E08D838F81880F1A
S11325B08F838D81882321F09F8187E089278F83F2
S11325C08B819C81969587959C838B838B819C8141
S11325D0009799F621E08A859B85009709F420E00D
S11325E08A859B8501979B878A87222309F0B6CF2A
S11325F08F812B960FB6F894DEBF0FBECDBFCF915F
S1132600DF910895DF93CF930F92CDB7DEB70E9489
S11326102D1380E060E00E94911801C000000E9428
S1132620AF15882371F080915501909156010E9455
S1132630DE150E94E40089838981882311F40E94B5
S11326401A020E943614982F81E08927882331F3D7
S113265080E060E00E949118E2CFDF93CF93CDB782
S1132660DEB78AE290E02FEFFC01208384E290E061
S11326702FE2FC01208387E290E02FEDFC01208310
S1132680CF91DF910895DF93CF93CDB7DEB70E944A
S1132690D11780E00E94051881E00E942518CF918F
S11326A0DF910895DF93CF9300D0CDB7DEB7898350
S11326B06A838A8180935901898180935A0185E0D4
S11326C069810E94541781E160E00E94541790913F
S11326D0590182E1692F0E94541783E160E00E944E
S11326E0541784E160E00E94541785E160E00E9481
S11326F0541786E160E00E94541786E066E00E9469
S1132700541780E068E00E94541781E063E00E945F
S1132710541782E063E00E94541784E06FE40E943F
S113272054178CE160E00E9454170F900F90CF91E2
S1132730DF910895DF93CF93CDB7DEB790915A011F
S113274085E0692F41E00E94B217982F81E0892724
S1132750882311F080E087C081E160E041E00E94BD
S1132760B217982F81E08927882311F080E07BC07D
S11327709091590182E1692F41E00E94B217982F8C
S113278081E08927882311F080E06DC083E160E057
S113279041E00E94B217982F81E08927882311F025
S11327A080E061C084E160E041E00E94B217982FAC
S11327B081E08927882311F080E055C085E160E03D
S11327C041E00E94B217982F81E08927882311F0F5
S11327D080E049C086E160E041E00E94B217982F92
S11327E081E08927882311F080E03DC086E066E01F
S11327F041E00E94B217982F81E08927882311F0C5
S113280080E031C080E068E041E00E94B217982F78
S113281081E08927882311F080E025C081E063E00E
S113282041E00E94B217982F81E08927882311F094
S113283080E019C084E06FE441E00E94B217982F51
S113284081E08927882311F080E00DC08CE160E0ED
S113285041E00E94B217982F81E08927882311F064
S113286080E001C081E0CF91DF910895DF93CF93A1
S1132870CDB7DEB790915A0185E0692F41E00E94FF
S1132880B217882311F081E001C080E0CF91DF917D
S113289008950F931F93DF93CF93CDB7DEB76D9752
S11328A00FB6F894DEBF0FBECDBF85E290E025E2FF
S11328B030E0F90120812D7FFC01208319828DC035
S11328C085E290E025E230E0F901308122E023271F
S11328D0FC01208380E090E0AAEFB2E48A839B832A
S11328E0AC83BD836A817B818C819D8120E030E053
S11328F04AE755E40E946519DC01CB018E839F836E
S1132900A887B98711E06E817F818885998520E049
S113291030E040E85FE30E94E41888230CF010E004
S1132920112329F081E090E09B878A8746C011E05B
S11329306E817F818885998520E03FEF4FE757E4DA
S11329400E94611918160CF010E0112361F16A81DC
S11329507B818C819D8120E030E040E251E40E9443
S11329606519DC01CB01BC01CD010E94E818DC0132
S1132970CB019B878A8712C080E991E09D878C8771
S11329808C859D858C01C8010197F1F78C011D8709
S11329900C878A859B8501979B878A878A859B8577
S11329A0009751F717C06E817F81888599850E94B1
S11329B0E818DC01CB019B878A878A859B859F87E2
S11329C08E878E859F858C01F8013197F1F78F01F1
S11329D01F870E8789818F5F89838981863008F4F8
S11329E06FCF80E090E0AAE7B3E4888B998BAA8B41
S11329F0BB8B688979898A899B8920E030E04AE722
S1132A0055E40E946519DC01CB018C8B9D8BAE8B48
S1132A10BF8B11E06C897D898E899F8920E030E02D
S1132A2040E85FE30E94E41888230CF010E01123CF
S1132A3029F081E090E0998F888F46C011E06C897D
S1132A407D898E899F8920E03FEF4FE757E40E94FC
S1132A50611918160CF010E0112361F16889798965
S1132A608A899B8920E030E040E251E40E946519A4
S1132A70DC01CB01BC01CD010E94E818DC01CB01D3
S1132A80998F888F12C080E991E09B8F8A8F8A8DFD
S1132A909B8D8C01C8010197F1F78C011B8F0A8F64
S1132AA0888D998D0197998F888F888D998D00973E
S1132AB051F717C06C897D898E899F890E94E81817
S1132AC0DC01CB01998F888F888D998D9D8F8C8F98
S1132AD08C8D9D8D8C01F8013197F1F78F011D8F3D
S1132AE00C8F6D960FB6F894DEBF0FBECDBFCF919D
S1132AF0DF911F910F910895DF93CF9300D0CDB74D
S1132B00DEB79A83898380E00E94051829813A817F
S1132B108BE0B90145E00E94911781E00E940518FD
S1132B200F900F90CF91DF910895DF93CF9300D052
S1132B30CDB7DEB79A83898329813A818AE0B901C6
S1132B4045E00E94911729813A8180E1B90145E06D
S1132B500E9491170F900F90CF91DF910895DF930A
S1132B60CF930F92CDB7DEB70E9443168983898134
S1132B70882F90E080749070009711F081E007C076
S1132B800E94CB15982F81E0992309F080E00F90E3
S1132B90CF91DF910895DF93CF930F92CDB7DEB736
S1132BA087E19E012F5F3F4FB90141E00E946E17FC
S1132BB0898181700F90CF91DF910895DF93CF9336
S1132BC000D0CDB7DEB79A83898380E00E942518B0
S1132BD081E60E94B1164091590189819A81298127
S1132BE03A81B9010E94F91681E00E94251887E014
S1132BF060E40E9454170F900F90CF91DF910895D5
S1132C00DF93CF9300D0CDB7DEB79A83898380E07A
S1132C100E9405180E94941680E00E94251881EEF7
S1132C200E94B11681E00E94251880E00E942518B8
S1132C3080EA0E94B1162091590189819A81622FFC
S1132C400E94301781E00E94251881E00E94051837
S1132C500F900F90CF91DF910895DF93CF930F9250
S1132C60CDB7DEB70E94431689838981882F90E00F
S1132C7080739070009711F080E001C081E00F90A4
S1132C80CF91DF910895DF93CF930F92CDB7DEB745
S1132C9080E00E9425188FEF0E94B116898381E09D
S1132CA00E94251889810F90CF91DF910895DF93B9
S1132CB0CF930F92CDB7DEB70E94431689838981E3
S1132CC0882F90E080729070009711F080E00AC025
S1132CD08981882F90E080719070009711F081E0D5
S1132CE001C08FEF0F90CF91DF910895DF93CF93C1
S1132CF0CDB7DEB780E00E94251882EE0E94B1169F
S1132D0081E00E94251887E060E70E94541780E064
S1132D100E94051880E06BE00E94541781E00E9435
S1132D200518CF91DF910895DF93CF93CDB7DEB728
S1132D3087E060E70E94541780E06AE00E9454171D
S1132D40CF91DF910895DF93CF93CDB7DEB780E0C5
S1132D500E94051880E068E00E945417CF91DF912B
S1132D600895DF93CF9300D00F92CDB7DEB78B8356
S1132D7019821A8280E00E944518198230C08B8122
S1132D80882F90E02981222F30E047E050E0BA01FB
S1132D90621B730B9B01022E02C0959587950A94C2
S1132DA0E2F781709070882321F081E00E94651819
S1132DB003C080E00E94651881E00E9445188A8162
S1132DC0880F8A830E948518882319F08A8181607C
S1132DD08A8380E00E94451889818F5F8983898175
S1132DE0883068F28A810F900F900F90CF91DF9115
S1132DF008950F931F93DF93CF9300D000D000D09A
S1132E00CDB7DEB79B838A837D836C834E8319821F
S1132E1018C08981882F90E02C813D818901080F99
S1132E20191F8981882F90E02A813B81820F931F8B
S1132E30FC0180810E94B116F801808389818F5F33
S1132E40898399818E81981720F326960FB6F8947A
S1132E50DEBF0FBECDBFCF91DF911F910F910895BB
S1132E60DF93CF9300D000D0CDB7DEB79B838A83A6
S1132E706C8319820EC08981882F90E02A813B815E
S1132E80820F931FFC0180810E94B11689818F5F9C
S1132E90898399818C81981770F30F900F900F900C
S1132EA00F90CF91DF910895DF93CF9300D0CDB7EA
S1132EB0DEB789836A8380E00E94251889818F7137
S1132EC080620E94B1168A810E94B11681E00E943C
S1132ED025180F900F90CF91DF910895DF93CF9332
S1132EE000D000D0CDB7DEB789837B836A834C835F
S1132EF080E00E94251889818F710E94B1168A8111
S1132F009B812A813B81B9014C810E94F91681E0A1
S1132F100E9425180F900F900F900F90CF91DF9182
S1132F200895DF93CF9300D000D0CDB7DEB7898367
S1132F307B836A834C8380E00E94251889818F718A
S1132F4080620E94B1168A819B816C810E94301735
S1132F5081E00E9425180F900F900F900F90CF9151
S1132F60DF910895DF93CF9300D000D0CDB7DEB7C3
S1132F708A836B834C838A819E012F5F3F4FB90103
S1132F804C810E946E1799818B81981711F481E00E
S1132F9001C080E00F900F900F900F90CF91DF91C0
S1132FA00895DF93CF93CDB7DEB787E290E027E2B1
S1132FB030E0F90120812160FC01208387E290E068
S1132FC027E230E0F90120812260FC01208387E2BE
S1132FD090E027E230E0F90120812460FC012083A5
S1132FE087E290E027E230E0F90120812860FC01CB
S1132FF0208387E290E027E230E0F90120812F7EF0
S1133000FC012083CF91DF910895DF93CF930F923A
S1133010CDB7DEB789838981882351F088E290E0B7
S113302028E230E0F90120812160FC01208309C0FD
S113303088E290E028E230E0F90120812E7FFC0153
S113304020830F90CF91DF910895DF93CF930F9258
S1133050CDB7DEB789838981882351F088E290E077
S113306028E230E0F90120812260FC01208309C0BC
S113307088E290E028E230E0F90120812D7FFC0114
S113308020830F90CF91DF910895DF93CF930F9218
S1133090CDB7DEB789838981882351F088E290E037
S11330A028E230E0F90120812460FC01208309C07A
S11330B088E290E028E230E0F90120812B7FFC01D6
S11330C020830F90CF91DF910895DF93CF930F92D8
S11330D0CDB7DEB789838981882351F088E290E0F7
S11330E028E230E0F90120812860FC01208309C036
S11330F088E290E028E230E0F9012081277FFC019A
S113310020830F90CF91DF910895DF93CF93CDB7B4
S1133110DEB786E290E0FC0180818071CF91DF917F
S11331200895DF93CF9300D00F92CDB7DEB78A8393
S11331306B830E946600198212C00E94A3160E942B
S1133140431380911D0160E20E9452130E949A135E
S1133150882319F081E0898302C00E94491499816F
S113316081E08927882349F78B81813099F4809104
S11331701B0190911C010E9495158A81882F90E073
S1133180880F991F8B5E9E4FFC01808191810E9464
S11331907C1512C08A81882F90E0880F991F8B5E5E
S11331A09E4FFC01808191810E94951580911B01A5
S11331B090911C010E947C150E9476160F900F902E
S11331C00F90CF91DF9108952FD008F481E00895F6
S11331D057D088F09F5790F0B92F9927B751A0F096
S11331E0D1F0660F771F881F991F1AF0BA95C9F797
S11331F012C0B13081F05ED0B1E008955BC0672F9A
S1133200782F8827B85F39F0B93FCCF38695779546
S11332106795B395D9F73EF490958095709561952F
S11332207F4F8F4F9F4F0895990F0008550FAA0B9A
S1133230E0E8FEEF16161706E807F907C0F01216C5
S11332401306E407F50798F0621B730B840B950BC8
S113325039F40A2661F0232B242B252B21F408951D
S11332600A2609F4A140A6958FEF811D811D0895BA
S113327057FD9058440F551F59F05F3F71F0479523
S1133280880F97FB991F61F09F3F79F08795089508
S1133290121613061406551FF2CF4695F1DF08C027
S11332A0161617061806991FF1CF86957105610544
S11332B008940895E894BB2766277727CB0197F9EC
S11332C00895B2DF08F48FEF08950BD078C069D069
S11332D028F06ED018F0952309F05AC05FC011246D
S11332E0EACFC6DFA0F3959FD1F3950F50E0551FA9
S11332F0629FF001729FBB27F00DB11D639FAA2747
S1133300F00DB11DAA1F649F6627B00DA11D661F95
S1133310829F2227B00DA11D621F739FB00DA11DB6
S1133320621F839FA00D611D221F749F3327A00D70
S1133330611D231F849F600D211D822F762F6A2F0C
S113334011249F5750408AF0E1F088234AF0EE0F91
S1133350FF1FBB1F661F771F881F91505040A9F79E
S11333609E3F510570F014C0A6CF5F3FECF3983E2A
S1133370DCF3869577956795B795F795E7959F5F05
S1133380C1F7FE2B880F911D9695879597F908959F
S113339097F99F6780E870E060E008959FEF80EC04
S11333A0089500240A9416161706180609060895A7
S11333B000240A9412161306140605060895092E0D
S11333C00394000C11F4882352F0BB0F40F4BF2B7C
S11333D011F460FF04C06F5F7F4F8F4F9F4F0895BC
S11333E0EF92FF920F931F93CF93DF93689F800117
S11333F0699F100D789F100D1124C8010E94141AA2
S1133400E82EE7017E01F92EE701209731F08E2D99
S113341060E070E0A8010E941B1C7E01CE01CDB7C4
S1133420DEB7E6E00C944A1CCF93DF93823091051B
S113343010F482E090E0E0915D01F0915E0140E0E3
S113344050E020E030E026C0608171816817790780
S1133450E0F06817790781F48281938121153105A1
S113346031F0D90113969C938E9312972BC09093AD
S11334705E0180935D0126C04115510519F0641762
S1133480750718F4AB01E901DF019F0172816381C3
S1133490E72FF62F3097C1F64115510501F1481B6E
S11334A0590B4430510580F412968D919C911397D9
S11334B0209719F09B838A8304C090935E018093C4
S11334C05D01FD01329646C0FD01E40FF51F8193B5
S11334D091934250504011965C934E933BC020917F
S11334E05B0130915C012115310541F42091020109
S11334F03091030130935C0120935B01209104011E
S1133500309105012115310541F42DB73EB74091A5
S1133510000150910101241B350BE0915B01F091F6
S11335205C01E217F307A0F42E1B3F0B28173907A1
S113353078F0AC014E5F5F4F2417350748F04E0F0B
S11335405F1F50935C0140935B018193919302C090
S1133550E0E0F0E0CF01DF91CF910895CF93DF93C6
S1133560009709F491C0FC01329713821282609192
S11335705D0170915E016115710581F420813181D5
S1133580280F391F80915B0190915C01821793078A
S113359099F5F0935C01E0935B0176C0DB0180E078
S11335A090E002C0CD01D901AE17BF0748F41296CE
S11335B02D913C91139721153105A1F7CD0121C01F
S11335C0B383A283EF01499159919E01240F351FC2
S11335D0A217B30779F42D913C911197240F351F4D
S11335E02E5F3F4F3183208312962D913C91139788
S11335F033832283009729F4F0935E01E0935D0105
S113360043C0DC011396FC93EE9312974D915D91A8
S1133610A40FB51FEA17FB0769F420813181240F39
S1133620351F2E5F3F4FEC0139832883228133817C
S11336303B832A83E0E0F0E002C0FB01BC01DB0134
S113364012968D919C9113970097B9F79B012E5F69
S11336503F4F8D919C911197820F931F40915B0175
S113366050915C014817590779F4309729F4109266
S11336705E0110925D0102C013821282225030401A
S113368030935C0120935B01DF91CF910895A0E01A
S1133690B0E0EDE4FBE10C94281C8C01CB01011596
S11336A0110529F40E94141A082F192FB5C0D80146
S11336B012979801260F371F2A173B0708F4AAC050
S11336C0ED90FC901197E616F706D0F045E0E4166D
S11336D0F10408F4A1C0A70144505040461757070D
S11336E008F49AC0A70142505040461B570BF901F9
S11336F0419351936D937C93CF010E94AE1A8CC079
S11337005B01AE18BF0848018E0C9F1CE0915D015F
S1133710F0915E01CC24DD24C0E0D0E041C0E81586
S1133720F90599F560817181AB014E5F5F4F4A15D0
S11337305B0558F1AB014A195B09CC24DD2468947C
S1133740C1F8C40ED51E8280A380E5E0CE16D10454
S113375048F0F9018282A3825183408311969C939D
S11337608E9309C0C7010296860F971F11969C93EA
S11337708E93E82DFA2D209719F0FB83EA834CC031
S1133780F0935E01E0935D0147C040815181C4160E
S1133790D50608F46A01EF0152814381E52FF42F25
S11337A0309709F0BCCF40915B0150915C01481502
S11337B05905E9F4C816D906D0F440910401509192
S11337C005014115510541F44DB75EB76091000103
S11337D070910101461B570B24173507D8F4309319
S11337E05C0120935B0111969C938E9315C00E94FB
S11337F0141AC82EE6016E01D92EE601209751F065
S11338008C2DB801A7010E94121CC8010E94AE1A97
S1133810860102C000E010E0C801CDB7DEB7ECE0DD
S11338200C94441CFB01DC0102C001900D92415038
S11338305040D8F70895DC0101C06D9341505040C9
S1133840E0F708952F923F924F925F926F927F928A
S11338508F929F92AF92BF92CF92DF92EF92FF929C
S11338600F931F93CF93DF93CDB7DEB7CA1BDB0B48
S11338700FB6F894DEBF0FBECDBF09942A883988ED
S113388048885F846E847D848C849B84AA84B984F4
S1133890C884DF80EE80FD800C811B81AA81B98100
S11338A0CE0FD11D0FB6F894DEBF0FBECDBFED0114
S10938B00895F894FFCF17
S11338B620005F010000F0F0F0F0C9A4A4A4A4A4C1
S11338C6F0F0F0F0F00B01100106010601706D0333
S10B38D6920496059D056506A8
S9030000FC
