:100000000C9434000C9449000C9449000C94490061
:100010000C9449000C9449000C9449000C9449003C
:100020000C9449000C9449000C9449000C9449002C
:100030000C9449000C9449000C9449000C9449001C
:100040000C9449000C9449000C9449000C9449000C
:100050000C9449000C9449000C9449000C944900FC
:100060000C9449000C94490011241FBECFEFD8E036
:10007000DEBFCDBF11E0A0E0B1E0ECEAF0E002C0ED
:1000800005900D92A430B107D9F70E944B000C9453
:1000900054000C9400008FEF8AB9809100018F3ECC
:0C00A00011F081E08BB9FFCFF894FFCF86
:0400AC00EFBEADDE18
:00000001FF
