:1000000019C033C032C031C030C02FC02EC02DC087
:100010002CC02BC02AC029C028C027C026C025C09C
:1000200024C023C022C021C020C01FC01EC01DC0CC
:100030001CC01BC011241FBECFEFD4E0DEBFCDBF5C
:1000400011E0A0E0B1E0E2EFF9E002C005900D920E
:10005000AE34B107D9F711E0AEE4B1E001C01D92B2
:10006000AC35B107E1F774D1C2C4CACF80E021E05A
:100070009BB190589BB995B1922795B94FEF54E336
:100080006CE0415050406040E1F700C000008F5FDD
:10009000883071F75F982898089580914E0190916B
:1000A0004F0122D4813049F0813028F0823039F07C
:1000B000833041F406C05B9808955A9808955E987D
:1000C00008955D98089580914E0190914F010CD450
:1000D000813049F0813028F0823039F0833041F4AA
:1000E00006C05B9A08955A9A08955E9A08955D9A9B
:1000F0000895EF92FF920F931F93CF93DF93809118
:1001000056018823F1F58CE190E061E070E098D22F
:10011000E82EE7017E01F92EE701F0924F01E0920F
:100120004E018CE190E061E070E08AD2082F192F37
:1001300080935001909351018CE190E061E070E078
:100140007FD2E82EF92E809352019093530180E2E2
:1001500090E061E070E074D2282F392F8093540131
:1001600090935501209779F00115110571F0E11474
:10017000F10469F02115310561F081E080935601A9
:1001800009C080E007C080E005C080E003C080E0D7
:1001900001C080E0DF91CF911F910F91FF90EF9010
:1001A00008958F929F92AF92BF92CF92DF92EF927B
:1001B000FF920F931F93CF93DF937C015B0105E3C5
:1001C00011E0C0E0D0E0D8014C9111965C91E42F91
:1001D000F52FDF010D900020E9F79D0121503040FF
:1001E0002E1B3F0BC70160E270E0B1D30097A9F06E
:1001F000FE01EE0FFF1FEE0FFF1FEC0FFD1FD501DD
:10020000EB5CFE4F85E001900D928150E1F7F50126
:100210008281882369F481E057C0C230D10509F496
:1002200050C021960B5F1F4FC330D10561F6EFCF51
:1002300010E000E20F2EFEE4CF2EF1E0DF2EF02DD5
:10024000C7016BE570E040E250E06BD3882EE4011B
:100250004E01992EE401C7016DE570E040E250E0E7
:1002600060D3209729F0482F592F4115510529F4C3
:1002700081E0112349F580E027C00993DA010C934E
:100280004C1B5D0BCA01AA2797FDA095BA2F8D3193
:100290009105A105B105B8F4E12FF0E0EE0FFF1FC5
:1002A000EC0DFD1D80819181FE016C2F7F2F46D3C7
:1002B0001F5FD50112968C911297181708F281E0F2
:1002C00003C080E001C080E0DF91CF911F910F91CA
:1002D000FF90EF90DF90CF90BF90AF909F908F9066
:1002E00008958EEF8AB989E284B98FED87B90895B0
:1002F000DF93CF93CDB7DEB72A970FB6F894DEBF62
:100300000FBECDBFDE011196E9E4F1E085E001907A
:100310000D928150E1F7DE011696E4E4F1E085E00C
:1003200001900D928150E1F7E4DE83D180E460E238
:1003300028D1CE010196BFD0CE010696CAD02A960A
:100340000FB6F894DEBF0FBECDBFCF91DF910895F9
:10035000EF92FF920F931F93DF93CF9300D000D0C3
:100360000F92CDB7DEB7BDDFC3DF0F2EFEE4EF2E59
:10037000F1E0FF2EF02D8E010F5F1F4F3AD1882341
:10038000E9F380915401909155013FD1809154013E
:1003900090915501B801A70104DF882379F3EC811E
:1003A000FD810995EBCFE0ECF0E0908195FFFDCF6A
:1003B0008093C600E0ECF0E080818823ECF7809128
:1003C000C6000895CF92DF92EF92FF920F931F9392
:1003D000CF93DF93F42E442389F0E82E062F172FB6
:1003E000C82EE6016E01D92EE6018991DCDFF80105
:1003F00081938F016E01CE18CF14B8F3DF91CF91A6
:100400001F910F91FF90EF90DF90CF900895EF92A2
:10041000FF920F931F93CF93DF93162F662361F004
:10042000082FE82EE7017E01F92EE7018991BBDF55
:100430007E01E01AE116D0F3DF91CF911F910F9169
:10044000FF90EF900895E4ECF0E011821082549A4E
:1004500080EC8093C200A1ECB0E08C9188618C9319
:100460008FE991E0918380830895389A399A0895AD
:10047000882311F0409A089540980895882311F038
:10048000419A0895419808950F931F93CF93DF9356
:10049000082FEB01142F80E0F1DF802F8F71806235
:1004A00082DFCE01612FB3DF81E0E8DFDF91CF9102
:1004B0001F910F910895CF93DF93EC018AE0BE0165
:1004C00045E0E2DF80E1BE0145E0DEDFDF91CF9174
:1004D0000895CF93DF93EC0180E0CADF8BE0BE018B
:1004E00045E0D2DF81E0C4DFDF91CF9108950F9323
:1004F0001F93CF93DF93082FEB01142F80E0BEDF13
:10050000802F8F7150DFCE01BE01412F5BDF81E074
:10051000B5DFDF91CF911F910F910895DF93CF93B6
:100520000F92CDB7DEB787E1BE016F5F7F4F41E02D
:10053000DEDF898181700F90CF91DF9108950F9355
:100540001F93082F162F80E099DF802F8F71806214
:100550002ADF812F28DF81E091DF1F910F9108951D
:1005600080E08CDF82EE1FDF81E088DF87E060E7DC
:10057000E6DF80E07DDF80E06BE0E1DF81E078DFD7
:100580000895982F6093570185E0692FD8DF81E1A6
:1005900060E0D5DF82E160915701D1DF83E160E067
:1005A000CEDF84E160E0CBDF85E160E0C8DF86E19B
:1005B00060E0C5DF86E066E0C2DF80E068E0BFDFC4
:1005C00081E063E0BCDF82E063E0B9DF84E06FE4F8
:1005D000B6DF8CE160E0B3DFC3DF08951F9380E0F6
:1005E0004DDF8FEFE0DE182F81E048DF812F1F9174
:1005F0000895F4DF86FD06C091DF91E0882319F0AD
:1006000090E001C091E0892F0895CF93DF93EC0132
:1006100080E034DF81E6C7DECE01BE0140915701A4
:10062000D1DE81E02BDF87E060E489DFDF91CF91CD
:1006300008951BDF08DF80E01BDF81E01FDF0895E6
:10064000EF92FF920F931F93CF93DF93689F8001E8
:10065000699F100D789F100D1124C80112D0E82E4B
:10066000E7017E01F92EE701209729F08E2D60E049
:1006700070E0A80192D17E01CE01CDB7DEB7E6E0F1
:10068000A7C1CF93DF938230910510F482E090E010
:10069000E0915A01F0915B0140E050E020E030E051
:1006A00026C06081718168177907E0F068177907C3
:1006B00081F4828193812115310531F0D90113969E
:1006C0009C938E9312972BC090935B0180935A0159
:1006D00026C04115510519F06417750718F4AB01D0
:1006E000E901DF019F0172816381E72FF62F3097C7
:1006F000C1F64115510501F1481B590B4430510514
:1007000080F412968D919C911397209719F09B83FA
:100710008A8304C090935B0180935A01FD01329655
:1007200046C0FD01E40FF51F819391934250504064
:1007300011965C934E933BC0209158013091590122
:100740002115310541F4209131013091320130936E
:100750005901209358012091330130913401211522
:10076000310541F42DB73EB740912F015091300132
:10077000241B350BE0915801F0915901E217F30762
:10078000A0F42E1B3F0B2817390778F0AC014E5F01
:100790005F4F2417350748F04E0F5F1F50935901E4
:1007A000409358018193919302C0E0E0F0E0CF01C3
:1007B000DF91CF910895CF93DF93009709F491C013
:1007C000FC0132971382128260915A0170915B0191
:1007D0006115710581F420813181280F391F8091C5
:1007E0005801909159018217930799F5F093590197
:1007F000E093580176C0DB0180E090E002C0CD01BB
:10080000D901AE17BF0748F412962D913C9113976A
:1008100021153105A1F7CD0121C0B383A283EF01DA
:10082000499159919E01240F351FA217B30779F4FE
:100830002D913C911197240F351F2E5F3F4F31832F
:10084000208312962D913C91139733832283009736
:1008500029F4F0935B01E0935A0143C0DC01139645
:10086000FC93EE9312974D915D91A40FB51FEA177B
:10087000FB0769F420813181240F351F2E5F3F4F24
:10088000EC0139832883228133813B832A83E0E092
:10089000F0E002C0FB01BC01DB0112968D919C913E
:1008A00013970097B9F79B012E5F3F4F8D919C9155
:1008B0001197820F931F4091580150915901481789
:1008C000590779F4309729F410925B0110925A017C
:1008D00002C013821282225030403093590120937B
:1008E0005801DF91CF910895FC0188279927E8945A
:1008F00021912032E9F3293010F02E30C8F32B3249
:1009000039F02D3231F4689403C04ED0820F911D1E
:10091000219120532A30C8F31EF4909581959F4F62
:100920000895FC014150504030F001900616D1F777
:100930003197CF010895882799270895FB01DC019D
:1009400002C001900D9241505040D8F708952115F2
:10095000310511F11F930F93240F351F680F791F75
:10096000FA011191AF01DC01A617B70780F40D91D0
:100970000117D1F7CD01FA01E217F30750F4A617DA
:10098000B70728F40D9101900015B1F3ECCF81E089
:1009900090E001970F911F910895DC0101C06D93C4
:1009A00041505040E0F708957AE0979F902D879F3F
:1009B000802D910D112408952A88398848885F84F4
:1009C0006E847D848C849B84AA84B984C884DF80EF
:1009D000EE80FD800C811B81AA81B981CE0FD11DD3
:1009E0000FB6F894DEBF0FBECDBFED010895F894A9
:0209F000FFCF37
:1009F2005455524E5F52454C41595F4F4E0054552B
:100A0200524E5F52454C41595F4F4646004255494E
:100A12004C545F494E5F4C45445F5445535400204B
:100A2200005C01000000010163000E01014D001D88
:0E0A320001003600E7E7E7E7E7D7D7D7D7D7C9
:00000001FF
