S0220000507275656261206C65647320706C61636120706F74656E6369612E7372656347
S11300000C9434000C943E000C943E000C943E007E
S11300100C943E000C943E000C943E000C943E0064
S11300200C943E000C943E000C943E000C943E0054
S11300300C943E000C943E000C943E000C943E0044
S11300400C943E000C943E000C943E000C943E0034
S11300500C943E000C943E000C943E000C943E0024
S11300600C943E000C943E0011241FBECFEFD8E048
S1130070DEBFCDBF0E9447000C945A000C940000D0
S11300808EEF8AB989E284B98FED87B908950E9409
S1130090400091E08BB180588BB985B1892785B92F
S11300A02FEF33ED40E3215030404040E1F700C0F2
S10B00B00000F0CFF894FFCF2B
S9030000FC
