S00A000052582E7372656370
S113000019C033C032C031C030C02FC02EC02DC083
S11300102CC02BC02AC029C028C027C026C025C098
S113002024C023C022C021C020C01FC01EC01DC0C8
S11300301CC01BC011241FBECFEFD4E0DEBFCDBF58
S113004011E0A0E0B1E0E4EBF3E002C005900D9212
S1130050AA30B107D9F721E0AAE0B1E001C01D92AE
S1130060A031B207E1F75ED1A3C1CACF389A399A59
S11300703A9A3B9A3C980895882311F0409A08953F
S113008040980895882311F0419A0895419808955D
S1130090EDDF80E0F1DF81E0F5DF0895882311F0E2
S11300A0429A089542980895882311F0439A089536
S11300B043980895EF92FF921F93CF93DF93E82E16
S11300C080E0ECDFC7E0D0E010E0F12C97010C2ECB
S11300D002C0359527950A94E2F720FF03C081E01A
S11300E0E3DF02C080E0E0DF81E0D8DF110F349964
S11300F0116080E0D3DF219748F7812FDF91CF9102
S11301001F91FF90EF900895CF9380E0BBDF8FEFB6
S1130110D1DFC82F81E0B6DF8C2FCF910895EF9205
S1130120FF920F931F93CF93DF93442399F0EC0135
S1130130062F172F4150E42EF12C2FEFE21AF20A6A
S1130140E80EF91E8991B6DFF80181938F01CE156F
S1130150DF05C1F7DF91CF911F910F91FF90EF90D1
S113016008950F931F93CF93DF93662369F0EC01F7
S11301706150062F10E00F5F1F4F080F191F899160
S113018099DFC017D107D9F7DF91CF911F910F9154
S11301900895CF93DF93C82FD62F80E073DF8C2F81
S11301A08F71806287DF8D2F85DF81E06BDFDF91C8
S11301B0CF910895CF93DF93EC0180E063DF81E674
S11301C079DF40910F01BE01CE01A9DF81E05ADF42
S11301D060E487E0DEDFDF91CF91089580E052DFB5
S11301E082EE68DF81E04EDF60E787E0D2DF80E007
S11301F043DF6BE080E0CDDF81E03EDF0895609374
S11302000F01682F85E0C5DF60E081E1C2DF609106
S11302100F0182E1BEDF60E083E1BBDF60E084E1E7
S1130220B8DF60E085E1B5DF60E086E1B2DF66E07B
S113023086E0AFDF68E080E0ACDF63E081E0A9DF67
S113024063E082E0A6DF6FE484E0A3DF60E08CE19A
S1130250A0DFC4DF08950F931F93CF93DF93082F7C
S1130260EB01142F80E00EDF802F8F7123DF412FED
S1130270BE01CE0154DF81E005DFDF91CF911F91F4
S11302800F910895CF93DF931F92CDB7DEB741E06E
S1130290BE016F5F7F4F87E1DEDF898181700F9040
S11302A0DF91CF91089530DF86FD06C0EBDF91E04A
S11302B0882319F090E001C091E0892F08950F93ED
S11302C01F93CF93DF93C82F8B01D42F80E0DADE06
S11302D08C2F8F718062EEDE6D2FC80142DF81E0CA
S11302E0D1DEDF91CF911F910F910895CF93DF93CA
S11302F0EC0180E0C1DE45E0BE018BE0E0DF81E09F
S1130300BBDEDF91CF910895CF93DF93EC0145E0FD
S1130310BC018AE0D4DF45E0BE0180E1D0DFDF919B
S1130320CF910895B5DE64E082E069DF85E091E075
S1130330EBDF80E091E0DADF8FEF8AB91BB884E06D
S11303409BB190959BB92FE73AE196E0215030405C
S11303509040E1F700C00000815091F7CFEFA3DF98
S11303608823E9F38BE091E025DF80910B018D3543
S113037061F080910C018D3541F080910D018D3536
S113038021F080910E018D3509F41BB880910B0189
S11303908F3761F080910C018F3741F080910D010E
S11303A08F3721F080910E018F37C9F6CBB9D7CFA3
S10703B0F894FFCFEB
S10D03B4E7E7E7E7E7D7D7D7D7D785
S9030000FC
