S020000050726F796563746F20646520706C616361206D6F7472697A2E73726563E0
S11300000C9434000C9451000C9451000C94510045
S11300100C9451000C9451000C9451000C94510018
S11300200C9451000C9451000C9451000C94510008
S11300300C9451000C9451000C9451000C945100F8
S11300400C9451000C9451000C9451000C945100E8
S11300500C9451000C9451000C9451000C945100D8
S11300600C9451000C94510011241FBECFEFD8E022
S1130070DEBFCDBF11E0A0E0B1E0E0EDFEE202C0E2
S113008005900D92A036B107D9F711E0A0E6B1E0D2
S113009001C01D92A137B107E1F70E94E30E0C9451
S11300A066170C940000DF93CF93CDB7DEB7809131
S11300B06A01882311F080E046C08CE190E061E0A1
S11300C070E00E94821590936301809362018CE139
S11300D090E061E070E00E94821590936501809346
S11300E064018CE190E061E070E00E9482159093DD
S11300F067018093660180E290E061E070E00E9415
S113010082159093690180936801809162019091B6
S11301106301009791F080916401909165010097CB
S113012061F08091660190916701009731F08091B0
S1130130680190916901009711F480E004C081E0A6
S113014080936A0181E0CF91DF9108950F931F930B
S1130150DF93CF93CDB7DEB760970FB6F894DEBFC9
S11301600FBECDBF9C878B877E876D87588B4F874B
S113017019824EC08981282F30E0C901880F991F48
S1130180880F991F820F931F8F5A9E4FFC01008185
S113019011818981282F30E0C901880F991F880FA8
S11301A0991F820F931F8F5A9E4FFC01808191816A
S11301B00E943A179C018B859C8560E270E0A8013F
S11301C00E940D170097E1F08981282F30E04D85BA
S11301D05E85C901880F991F880F991F820F931F8D
S11301E09C012F5A3E4FCA0145E0F90100802F5F60
S11301F03F4FFC010082019641504423B1F70CC0EB
S11302008981823011F480E077C089818F5F89838E
S11302108981833008F4AECF1A8263C08B859C85B4
S11302206BE570E040E250E00E94F7169C838B83FC
S11302308B859C856DE570E040E250E00E94F716E6
S11302409E838D838B819C81009721F08D819E817B
S1130250009731F48A81882309F04CC080E04CC0B7
S11302608B819C8120E2FC0120838D819E8120E290
S1130270FC0120838B819C8101969C838B832D813F
S11302803E818B819C81A901481B590BCA01AA2775
S113029097FDA095BA2F8F839887A987BA878F81F6
S11302A09885A985BA858D319105A105B10510F010
S11302B080E022C08A81882F90E0880F991F2F85C3
S11302C03889820F931FFC01808191812F813885A9
S11302D04B815C81BA01A9010E9404178A818F5F56
S11302E08A838D859E85FC0192818A81891708F411
S11302F095CF01C0000081E060960FB6F894DEBF90
S11303000FBECDBFCF91DF911F910F9108950F9331
S11303101F93DF93CF93CDB7DEB7C757D0400FB647
S1130320F894DEBF0FBECDBF85E290E025E230E059
S1130330F90120812260FC01208385E290E025E21E
S113034030E0F90120812460FC0120838091620166
S1130350909163010E94D9168D838D81883008F0B5
S1130360C3C58D81282F30E080916001882F90E0F3
S1130370A901481B590BCA0199231CF49095819536
S11303809F4FAC012FEA30E0429FC001439F900D84
S1130390529F900D11249F838E838D81282F30E0EE
S11303A080916001882F90E0F901E81BF90BCF01DF
S11303B0181619060CF025C21A82198219C28BE28A
S11303C090E023E0FC01208380E090E0A0E8BFE31C
S11303D088879987AA87BB87688579858A859B855D
S11303E020E030E04AE755E40E94F714DC01CB0139
S11303F08C879D87AE87BF8711E06C857D858E8550
S11304009F8520E030E040E85FE30E947614882373
S11304100CF010E0112329F081E090E0998B888B97
S113042046C011E06C857D858E859F8520E03FEF79
S11304304FE757E40E94F31418160CF010E0112350
S113044061F1688579858A859B8520E030E040E20A
S113045051E40E94F714DC01CB01BC01CD010E94E0
S11304607A14DC01CB01998B888B12C080E991E06E
S11304709B8B8A8B8A899B898C01C8010197F1F730
S11304808C011B8B0A8B888999890197998B888B9E
S113049088899989009751F717C06C857D858E8569
S11304A09F850E947A14DC01CB01998B888B888903
S11304B099899D8B8C8B8C899D898C01F80131974E
S11304C0F1F78F011D8B0C8B8BE290E026E0FC0191
S11304D0208380E090E0A0E8BFE38E8B9F8BA88F01
S11304E0B98F6E897F89888D998D20E030E04AE745
S11304F055E40E94F714DC01CB018A8F9B8FAC8FEB
S1130500BD8F11E06A8D7B8D8C8D9D8D20E030E058
S113051040E85FE30E94761488230CF010E0112376
S113052029F081E090E09F8F8E8F46C011E06A8DA4
S11305307B8D8C8D9D8D20E03FEF4FE757E40E942B
S1130540F31418160CF010E0112361F16E897F8901
S1130550888D998D20E030E040E251E40E94F71448
S1130560DC01CB01BC01CD010E947A14DC01CB017A
S11305709F8F8E8F12C080E991E099A388A388A1F0
S113058099A18C01C8010197F1F78C0119A308A363
S11305908E8D9F8D01979F8F8E8F8E8D9F8D00974F
S11305A051F717C06A8D7B8D8C8D9D8D0E947A14B6
S11305B0DC01CB019F8F8E8F8E8D9F8D9BA38AA391
S11305C08AA19BA18C01F8013197F1F78F011BA33C
S11305D00AA38BE290E02CE0FC01208380E090E011
S11305E0A0E8BFE38CA39DA3AEA3BFA36CA17DA190
S11305F08EA19FA120E030E04AE755E40E94F71461
S1130600DC01CB0188A799A7AAA7BBA711E068A51D
S113061079A58AA59BA520E030E040E85FE30E942D
S1130620761488230CF010E0112329F081E090E087
S11306309DA78CA746C011E068A579A58AA59BA5AE
S113064020E03FEF4FE757E40E94F31418160CF034
S113065010E0112361F16CA17DA18EA19FA120E086
S113066030E040E251E40E94F714DC01CB01BC010C
S1130670CD010E947A14DC01CB019DA78CA712C086
S113068080E991E09FA78EA78EA59FA58C01C80144
S11306900197F1F78C011FA70EA78CA59DA50197C3
S11306A09DA78CA78CA59DA5009751F717C068A599
S11306B079A58AA59BA50E947A14DC01CB019DA78C
S11306C08CA78CA59DA599AB88AB88A999A98C0109
S11306D0F8013197F1F78F0119AB08AB8BE290E089
S11306E029E0FC01208380E090E0A0E8BFE38AAB2E
S11306F09BABACABBDAB6AA97BA98CA99DA920E03F
S113070030E04AE755E40E94F714DC01CB018EABDC
S11307109FABA8AFB9AF11E06EA97FA988AD99AD21
S113072020E030E040E85FE30E94761488230CF078
S113073010E0112329F081E090E09BAF8AAF46C01E
S113074011E06EA97FA988AD99AD20E03FEF4FE796
S113075057E40E94F31418160CF010E0112361F111
S11307606AA97BA98CA99DA920E030E040E251E46C
S11307700E94F714DC01CB01BC01CD010E947A1464
S1130780DC01CB019BAF8AAF12C080E991E09DAF41
S11307908CAF8CAD9DAD8C01C8010197F1F78C0134
S11307A01DAF0CAF8AAD9BAD01979BAF8AAF8AADED
S11307B09BAD009751F717C06EA97FA988AD99AD7D
S11307C00E947A14DC01CB019BAF8AAF8AAD9BAD4A
S11307D09FAF8EAF8EAD9FAD8C01F8013197F1F7CD
S11307E08F011FAF0EAF89819A8101969A83898305
S11307F029813A818E819F812817390708F4DFCD3A
S11308006CC31C821B8261C38BE290E02CE0FC0170
S113081020839E01205C3F4F80E090E0A0E8BFE38E
S1130820F90180839183A283B3838E010C5B1F4FF4
S1130830CE01805C9F4FFC01608171818281938134
S113084020E030E04AE755E40E94F714DC01CB01D4
S1130850F80180839183A283B383CE018C5B9F4F85
S113086011E0FC01608171818281938120E030E09C
S113087040E85FE30E94761488230CF010E0112313
S113088049F0CE01885B9F4F21E030E0FC013183C9
S1130890208374C0CE018C5B9F4F11E0FC0160810A
S11308A071818281938120E03FEF4FE757E40E94FA
S11308B0F31418160CF010E0112309F44DC0CE0106
S11308C0805C9F4FFC01608171818281938120E073
S11308D030E040E251E40E94F714DC01CB018E01C8
S11308E0085B1F4FBC01CD010E947A14DC01CB01CF
S11308F0F8019183808327C0CE01865B9F4F20E956
S113090031E0FC0131832083CE01865B9F4FFC01E3
S1130910808191818C01C8010197F1F78C01CE018E
S1130920865B9F4FFC0111830083CE01885B9F4F40
S11309309E01285B3F4FF9012081318121503040D5
S1130940FC0131832083CE01885B9F4FFC018081B1
S11309509181009789F62FC08E01085B1F4FCE014D
S11309608C5B9F4FFC0160817181828193810E9425
S11309707A14DC01CB01F80191838083CE01845B7E
S11309809F4F9E01285B3F4FF90120813181FC017B
S113099031832083CE01845B9F4FFC018081918150
S11309A08C01C8010197F1F78C01CE01845B9F4F44
S11309B0FC01118300838BE290E026E0FC0120839C
S11309C09E01225B3F4F80E090E0A0E8BFE3F90185
S11309D080839183A283B3838E010E5A1F4FCE016D
S11309E0825B9F4FFC01608171818281938120E051
S11309F030E04AE755E40E94F714DC01CB01F8012A
S1130A0080839183A283B383CE018E5A9F4F11E0DA
S1130A10FC01608171818281938120E030E040E8B3
S1130A205FE30E94761488230CF010E0112349F050
S1130A30CE018A5A9F4F21E030E0FC0131832083AC
S1130A4074C0CE018E5A9F4F11E0FC016081718108
S1130A508281938120E03FEF4FE757E40E94F31433
S1130A6018160CF010E0112309F44DC0CE01825B7E
S1130A709F4FFC01608171818281938120E030E08D
S1130A8040E251E40E94F714DC01CB018E010A5AC2
S1130A901F4FBC01CD010E947A14DC01CB01F80187
S1130AA09183808327C0CE01885A9F4F20E931E08B
S1130AB0FC0131832083CE01885A9F4FFC01808141
S1130AC091818C01C8010197F1F78C01CE01885AFC
S1130AD09F4FFC0111830083CE018A5A9F4F9E01D0
S1130AE02A5A3F4FF9012081318121503040FC01C5
S1130AF031832083CE018A5A9F4FFC0180819181EA
S1130B00009789F62FC08E010A5A1F4FCE018E5AC4
S1130B109F4FFC0160817181828193810E947A14CC
S1130B20DC01CB01F80191838083CE01865A9F4F6B
S1130B309E012A5A3F4FF90120813181FC01318302
S1130B402083CE01865A9F4FFC01808191818C01C4
S1130B50C8010197F1F78C01CE01865A9F4FFC0121
S1130B60118300838BE290E023E0FC0120839E014B
S1130B70245A3F4F80E090E0A0E8BFE3F90180836E
S1130B809183A283B3838E01005A1F4FCE01845AEE
S1130B909F4FFC01608171818281938120E030E06C
S1130BA04AE755E40E94F714DC01CB01F801808385
S1130BB09183A283B383CE01805A9F4F11E0FC013D
S1130BC0608171818281938120E030E040E85FE3BD
S1130BD00E94761488230CF010E0112349F0CE0112
S1130BE08C599F4F21E030E0FC013183208374C095
S1130BF0CE01805A9F4F11E0FC0160817181828196
S1130C00938120E03FEF4FE757E40E94F314181656
S1130C100CF010E0112309F44DC0CE01845A9F4F0B
S1130C20FC01608171818281938120E030E040E2A7
S1130C3051E40E94F714DC01CB018E010C591F4FC3
S1130C40BC01CD010E947A14DC01CB01F80191832F
S1130C50808327C0CE018A599F4F20E931E0FC01EF
S1130C6031832083CE018A599F4FFC018081918179
S1130C708C01C8010197F1F78C01CE018A599F4F6D
S1130C80FC0111830083CE018C599F4F9E012C5986
S1130C903F4FF9012081318121503040FC013183E3
S1130CA02083CE018C599F4FFC0180819181009754
S1130CB089F62FC08E010C591F4FCE01805A9F4FC9
S1130CC0FC0160817181828193810E947A14DC012C
S1130CD0CB01F80191838083CE0188599F4F9E01F7
S1130CE02C593F4FF90120813181FC01318320834C
S1130CF0CE0188599F4FFC01808191818C01C801EC
S1130D000197F1F78C01CE0188599F4FFC011183A3
S1130D1000838BE290E029E0FC0120839E012659A8
S1130D203F4F80E090E0A0E8BFE3F9018083918326
S1130D30A283B3838E0102591F4FCE0186599F4F60
S1130D40FC01608171818281938120E030E04AE777
S1130D5055E40E94F714DC01CB01F80180839183F0
S1130D60A283B383CE0182599F4F11E0FC016081BD
S1130D7071818281938120E030E040E85FE30E944A
S1130D80761488230CF010E0112349F0CE018E581C
S1130D909F4F21E030E0FC013183208374C0CE01F9
S1130DA082599F4F11E0FC0160817181828193819E
S1130DB020E03FEF4FE757E40E94F31418160CF0BD
S1130DC010E0112309F44DC0CE0186599F4FFC0158
S1130DD0608171818281938120E030E040E251E4BE
S1130DE00E94F714DC01CB018E010E581F4FBC0189
S1130DF0CD010E947A14DC01CB01F8019183808338
S1130E0027C0CE018C589F4F20E931E0FC0131838B
S1130E102083CE018C589F4FFC01808191818C01ED
S1130E20C8010197F1F78C01CE018C589F4FFC014A
S1130E3011830083CE018E589F4F9E012E583F4F41
S1130E40F9012081318121503040FC01318320831C
S1130E50CE018E589F4FFC0180819181009789F6C5
S1130E602FC08E010E581F4FCE0182599F4FFC0197
S1130E7060817181828193810E947A14DC01CB01AB
S1130E80F80191838083CE018A589F4F9E012E588A
S1130E903F4FF90120813181FC0131832083CE0150
S1130EA08A589F4FFC01808191818C01C801019770
S1130EB0F1F78C01CE018A589F4FFC011183008306
S1130EC08B819C8101969C838B832B813C818E81B9
S1130ED09F812817390708F497CC8BE290E0FC0136
S1130EE010828D818093600185E290E025E230E0FC
S1130EF0F90120812D7FFC01208385E290E025E229
S1130F0030E0F90120812B7FFC012083C958DF4F99
S1130F100FB6F894DEBF0FBECDBFCF91DF911F9106
S1130F200F9108950F931F93DF93CF93CDB7DEB73F
S1130F30C757D0400FB6F894DEBF0FBECDBF85E2D1
S1130F4090E025E230E0F90120812260FC01208359
S1130F5085E290E025E230E0F90120812460FC0183
S1130F60208380916201909163010E94D9168D8340
S1130F708D81863008F0C3C58D81282F30E08091A3
S1130F806101882F90E0A901481B590BCA019923DC
S1130F901CF4909581959F4FAC0122E330E0429F71
S1130FA0C001439F900D529F900D11249F838E8307
S1130FB08D81282F30E080916001882F90E0F90125
S1130FC0E81BF90BCF01181619060CF025C21A827A
S1130FD0198219C28BE290E020E3FC01208380E0B7
S1130FE090E0A0E8BFE388879987AA87BB876885D4
S1130FF079858A859B8520E030E04AE755E40E94A4
S1131000F714DC01CB018C879D87AE87BF8711E085
S11310106C857D858E859F8520E030E040E85FE328
S11310200E94761488230CF010E0112329F081E04B
S113103090E0998B888B46C011E06C857D858E8508
S11310409F8520E03FEF4FE757E40E94F314181602
S11310500CF010E0112361F1688579858A859B8500
S113106020E030E040E251E40E94F714DC01CB01BF
S1131070BC01CD010E947A14DC01CB01998B888BD1
S113108012C080E991E09B8B8A8B8A899B898C01B1
S1131090C8010197F1F78C011B8B0A8B8889998908
S11310A00197998B888B88899989009751F717C084
S11310B06C857D858E859F850E947A14DC01CB0129
S11310C0998B888B888999899D8B8C8B8C899D8938
S11310D08C01F8013197F1F78F011D8B0C8B8BE29A
S11310E090E020E6FC01208380E090E0A0E8BFE3EC
S11310F08E8B9F8BA88FB98F6E897F89888D998DF0
S113110020E030E04AE755E40E94F714DC01CB010B
S11311108A8F9B8FAC8FBD8F11E06A8D7B8D8C8DF8
S11311209D8D20E030E040E85FE30E947614882340
S11311300CF010E0112329F081E090E09F8F8E8F56
S113114046C011E06A8D7B8D8C8D9D8D20E03FEF34
S11311504FE757E40E94F31418160CF010E0112323
S113116061F16E897F89888D998D20E030E040E2BD
S113117051E40E94F714DC01CB01BC01CD010E94B3
S11311807A14DC01CB019F8F8E8F12C080E991E02D
S113119099A388A388A199A18C01C8010197F1F7AB
S11311A08C0119A308A38E8D9F8D01979F8F8E8F1D
S11311B08E8D9F8D009751F717C06A8D7B8D8C8D16
S11311C09D8D0E947A14DC01CB019F8F8E8F8E8DB2
S11311D09F8D9BA38AA38AA19BA18C01F8013197BF
S11311E0F1F78F011BA30AA38BE290E020ECFC0132
S11311F0208380E090E0A0E8BFE38CA39DA3AEA38E
S1131200BFA36CA17DA18EA19FA120E030E04AE79D
S113121055E40E94F714DC01CB0188A799A7AAA77B
S1131220BBA711E068A579A58AA59BA520E030E0BD
S113123040E85FE30E94761488230CF010E0112349
S113124029F081E090E09DA78CA746C011E068A535
S113125079A58AA59BA520E03FEF4FE757E40E94BC
S1131260F31418160CF010E0112361F16CA17DA1A8
S11312708EA19FA120E030E040E251E40E94F714E7
S1131280DC01CB01BC01CD010E947A14DC01CB014D
S11312909DA78CA712C080E991E09FA78EA78EA579
S11312A09FA58C01C8010197F1F78C011FA70EA718
S11312B08CA59DA501979DA78CA78CA59DA500979E
S11312C051F717C068A579A58AA59BA50E947A1431
S11312D0DC01CB019DA78CA78CA59DA599AB88AB00
S11312E088A999A98C01F8013197F1F78F0119ABFD
S11312F008AB8BE290E020E9FC01208380E090E0E1
S1131300A0E8BFE38AAB9BABACABBDAB6AA97BA93E
S11313108CA99DA920E030E04AE755E40E94F71427
S1131320DC01CB018EAB9FABA8AFB9AF11E06EA9C6
S11313307FA988AD99AD20E030E040E85FE30E94EA
S1131340761488230CF010E0112329F081E090E05A
S11313509BAF8AAF46C011E06EA97FA988AD99AD55
S113136020E03FEF4FE757E40E94F31418160CF007
S113137010E0112361F16AA97BA98CA99DA920E041
S113138030E040E251E40E94F714DC01CB01BC01DF
S1131390CD010E947A14DC01CB019BAF8AAF12C04D
S11313A080E991E09DAF8CAF8CAD9DAD8C01C801FF
S11313B00197F1F78C011DAF0CAF8AAD9BAD01977E
S11313C09BAF8AAF8AAD9BAD009751F717C06EA94A
S11313D07FA988AD99AD0E947A14DC01CB019BAF43
S11313E08AAF8AAD9BAD9FAF8EAF8EAD9FAD8C01A2
S11313F0F8013197F1F78F011FAF0EAF89819A8100
S113140001969A83898329813A818E819F81281745
S1131410390708F4DFCD6CC31C821B8261C38BE2E5
S113142090E020ECFC0120839E01205C3F4F80E093
S113143090E0A0E8BFE3F90180839183A283B383A2
S11314408E010C5B1F4FCE01805C9F4FFC016081BD
S113145071818281938120E030E04AE755E40E9463
S1131460F714DC01CB01F80180839183A283B38359
S1131470CE018C5B9F4F11E0FC0160817181828100
S1131480938120E030E040E85FE30E9476148823F3
S11314900CF010E0112349F0CE01885B9F4F21E04E
S11314A030E0FC013183208374C0CE018C5B9F4FFC
S11314B011E0FC01608171818281938120E03FEF22
S11314C04FE757E40E94F31418160CF010E01123B0
S11314D009F44DC0CE01805C9F4FFC016081718195
S11314E08281938120E030E040E251E40E94F714CD
S11314F0DC01CB018E01085B1F4FBC01CD010E94B2
S11315007A14DC01CB01F8019183808327C0CE01DA
S1131510865B9F4F20E931E0FC0131832083CE01BB
S1131520865B9F4FFC01808191818C01C8010197EA
S1131530F1F78C01CE01865B9F4FFC011183008380
S1131540CE01885B9F4F9E01285B3F4FF9012081AC
S1131550318121503040FC0131832083CE01885BEE
S11315609F4FFC0180819181009789F62FC08E01E5
S1131570085B1F4FCE018C5B9F4FFC016081718122
S1131580828193810E947A14DC01CB01F80191835A
S11315908083CE01845B9F4F9E01285B3F4FF901FE
S11315A020813181FC0131832083CE01845B9F4FF4
S11315B0FC01808191818C01C8010197F1F78C01B4
S11315C0CE01845B9F4FFC01118300838BE290E08A
S11315D020E6FC0120839E01225B3F4F80E090E0E7
S11315E0A0E8BFE3F90180839183A283B3838E01D2
S11315F00E5A1F4FCE01825B9F4FFC0160817181A7
S11316008281938120E030E04AE755E40E94F71498
S1131610DC01CB01F80180839183A283B383CE01E3
S11316208E5A9F4F11E0FC01608171818281938108
S113163020E030E040E85FE30E94761488230CF059
S113164010E0112349F0CE018A5A9F4F21E030E087
S1131650FC013183208374C0CE018E5A9F4F11E068
S1131660FC01608171818281938120E03FEF4FE72B
S113167057E40E94F31418160CF010E0112309F437
S11316804DC0CE01825B9F4FFC01608171818281DC
S1131690938120E030E040E251E40E94F714DC0141
S11316A0CB018E010A5A1F4FBC01CD010E947A144E
S11316B0DC01CB01F8019183808327C0CE01885AD5
S11316C09F4F20E931E0FC0131832083CE01885A09
S11316D09F4FFC01808191818C01C8010197F1F732
S11316E08C01CE01885A9F4FFC0111830083CE01E7
S11316F08A5A9F4F9E012A5A3F4FF9012081318116
S113170021503040FC0131832083CE018A5A9F4FFF
S1131710FC0180819181009789F62FC08E010A5ABD
S11317201F4FCE018E5A9F4FFC01608171818281CF
S113173093810E947A14DC01CB01F80191838083A8
S1131740CE01865A9F4F9E012A5A3F4FF9012081AC
S11317503181FC0131832083CE01865A9F4FFC01E5
S1131760808191818C01C8010197F1F78C01CE0130
S1131770865A9F4FFC01118300838BE290E020E3A3
S1131780FC0120839E01245A3F4F80E090E0A0E8B2
S1131790BFE3F90180839183A283B3838E01005A4E
S11317A01F4FCE01845A9F4FFC0160817181828159
S11317B0938120E030E04AE755E40E94F714DC010D
S11317C0CB01F80180839183A283B383CE01805A35
S11317D09F4F11E0FC01608171818281938120E03F
S11317E030E040E85FE30E94761488230CF010E0B8
S11317F0112349F0CE018C599F4F21E030E0FC01C8
S11318003183208374C0CE01805A9F4F11E0FC01C4
S1131810608171818281938120E03FEF4FE757E43B
S11318200E94F31418160CF010E0112309F44DC0B3
S1131830CE01845A9F4FFC01608171818281938122
S113184020E030E040E251E40E94F714DC01CB01D7
S11318508E010C591F4FBC01CD010E947A14DC018A
S1131860CB01F8019183808327C0CE018A599F4F11
S113187020E931E0FC0131832083CE018A599F4F56
S1131880FC01808191818C01C8010197F1F78C01E1
S1131890CE018A599F4FFC0111830083CE018C59DC
S11318A09F4F9E012C593F4FF901208131812150D6
S11318B03040FC0131832083CE018C599F4FFC01C1
S11318C080819181009789F62FC08E010C591F4F9A
S11318D0CE01805A9F4FFC01608171818281938186
S11318E00E947A14DC01CB01F80191838083CE013C
S11318F088599F4F9E012C593F4FF9012081318116
S1131900FC0131832083CE0188599F4FFC018081E3
S113191091818C01C8010197F1F78C01CE0188599E
S11319209F4FFC01118300838BE290E020E9FC01CE
S113193020839E0126593F4F80E090E0A0E8BFE35A
S1131940F90180839183A283B3838E0102591F4FCF
S1131950CE0186599F4FFC01608171818281938100
S113196020E030E04AE755E40E94F714DC01CB01A3
S1131970F80180839183A283B383CE0182599F4F60
S113198011E0FC01608171818281938120E030E06B
S113199040E85FE30E94761488230CF010E01123E2
S11319A049F0CE018E589F4F21E030E0FC01318395
S11319B0208374C0CE0182599F4F11E0FC016081E5
S11319C071818281938120E03FEF4FE757E40E94C9
S11319D0F31418160CF010E0112309F44DC0CE01D5
S11319E086599F4FFC01608171818281938120E03F
S11319F030E040E251E40E94F714DC01CB018E0197
S1131A000E581F4FBC01CD010E947A14DC01CB019A
S1131A10F8019183808327C0CE018C589F4F20E921
S1131A2031E0FC0131832083CE018C589F4FFC01AF
S1131A30808191818C01C8010197F1F78C01CE015D
S1131A408C589F4FFC0111830083CE018E589F4F09
S1131A509E012E583F4FF9012081318121503040A1
S1131A60FC0131832083CE018E589F4FFC0180817D
S1131A709181009789F62FC08E010E581F4FCE0119
S1131A8082599F4FFC0160817181828193810E9400
S1131A907A14DC01CB01F80191838083CE018A584A
S1131AA09F4F9E012E583F4FF90120813181FC0147
S1131AB031832083CE018A589F4FFC01808191811C
S1131AC08C01C8010197F1F78C01CE018A589F4F10
S1131AD0FC01118300838B819C8101969C838B8301
S1131AE02B813C818E819F812817390708F497CC7C
S1131AF08BE290E0FC0110828D818093610185E28C
S1131B0090E025E230E0F90120812D7FFC01208363
S1131B1085E290E025E230E0F90120812B7FFC0191
S1131B202083C958DF4F0FB6F894DEBF0FBECDBF78
S1131B30CF91DF911F910F9108950F931F93DF931E
S1131B40CF93CDB7DEB76D970FB6F894DEBF0FBE57
S1131B50CDBF85E290E025E230E0F90120812D7FC0
S1131B60FC01208385E290E025E230E0F901208148
S1131B702B7FFC012083198217C185E290E025E2C6
S1131B8030E0F901308122E02327FC01208380E04A
S1131B9090E0AAEFB2E48A839B83AC83BD836A811D
S1131BA07B818C819D8120E030E04AE755E40E94EE
S1131BB0F714DC01CB018E839F83A887B98711E0DA
S1131BC06E817F818885998520E030E040E85FE37D
S1131BD00E94761488230CF010E0112329F081E090
S1131BE090E09B878A8746C011E06E817F8188855B
S1131BF0998520E03FEF4FE757E40E94F31418164D
S1131C000CF010E0112361F16A817B818C819D814C
S1131C1020E030E040E251E40E94F714DC01CB0103
S1131C20BC01CD010E947A14DC01CB019B878A8719
S1131C3012C080E991E09D878C878C859D858C01FD
S1131C40C8010197F1F78C011D870C878A859B8554
S1131C5001979B878A878A859B85009751F717C0D0
S1131C606E817F81888599850E947A14DC01CB017D
S1131C709B878A878A859B859F878E878E859F858C
S1131C808C01F8013197F1F78F011F870E8785E2E8
S1131C9090E025E230E0F901308124E02327FC01C3
S1131CA0208380E090E0AAEFB2E4888B998BAA8B22
S1131CB0BB8B688979898A899B8920E030E04AE76F
S1131CC055E40E94F714DC01CB018C8B9D8BAE8B09
S1131CD0BF8B11E06C897D898E899F8920E030E07B
S1131CE040E85FE30E94761488230CF010E011238F
S1131CF029F081E090E0998F888F46C011E06C89CB
S1131D007D898E899F8920E03FEF4FE757E40E9449
S1131D10F31418160CF010E0112361F16889798925
S1131D208A899B8920E030E040E251E40E94F71464
S1131D30DC01CB01BC01CD010E947A14DC01CB0192
S1131D40998F888F12C080E991E09B8F8A8F8A8D4A
S1131D509B8D8C01C8010197F1F78C011B8F0A8FB1
S1131D60888D998D0197998F888F888D998D00978B
S1131D7051F717C06C897D898E899F890E947A14D6
S1131D80DC01CB01998F888F888D998D9D8F8C8FE5
S1131D908C8D9D8D8C01F8013197F1F78F011D8F8A
S1131DA00C8F89818F5F89838981883008F4E5CE1F
S1131DB06D960FB6F894DEBF0FBECDBFCF91DF9105
S1131DC01F910F910895DF93CF9300D000D000D0DE
S1131DD0CDB7DEB778940E94300F80E060E00E94B7
S1131DE0231401C000000E94B211882369F185E226
S1131DF090E025E230E0F90120812460FC01208399
S1131E0080916801909169010E94E11180916801BB
S1131E1090916901AE014E5F5F4F22E631E0BA0155
S1131E20A9010E94A60089838981882321F08D81DC
S1131E309E81FC01099585E290E025E230E0F901FC
S1131E4020812B7FFC0120830E943910982F81E090
S1131E508927882339F280E060E00E942314C3CFED
S1131E60DF93CF93CDB7DEB78AE290E02FEFFC018A
S1131E70208384E290E02FE2FC01208387E290E05B
S1131E802FEDFC012083CF91DF910895DF93CF9351
S1131E90CDB7DEB70E94631380E00E94971381E000
S1131EA00E94B713CF91DF910895DF93CF9300D0B1
S1131EB0CDB7DEB789836A838A8180936B01898178
S1131EC080936C0185E069810E94E61281E160E003
S1131ED00E94E61290916B0182E1692F0E94E61242
S1131EE083E160E00E94E61284E160E00E94E61271
S1131EF085E160E00E94E61286E160E00E94E6125D
S1131F0086E066E00E94E61280E068E00E94E61245
S1131F1081E063E00E94E61282E063E00E94E61240
S1131F2084E06FE40E94E6128CE160E00E94E61215
S1131F300F900F90CF91DF910895DF93CF93CDB79A
S1131F40DEB790916C0185E0692F41E00E94441353
S1131F50982F81E08927882311F080E087C081E1F0
S1131F6060E041E00E944413982F81E08927882390
S1131F7011F080E07BC090916B0182E1692F41E018
S1131F800E944413982F81E08927882311F080E070
S1131F906DC083E160E041E00E944413982F81E02A
S1131FA08927882311F080E061C084E160E041E08A
S1131FB00E944413982F81E08927882311F080E040
S1131FC055C085E160E041E00E944413982F81E010
S1131FD08927882311F080E049C086E160E041E070
S1131FE00E944413982F81E08927882311F080E010
S1131FF03DC086E066E041E00E944413982F81E0F2
S11320008927882311F080E031C080E068E041E056
S11320100E944413982F81E08927882311F080E0DF
S113202025C081E063E041E00E944413982F81E0E1
S11320308927882311F080E019C084E06FE441E02F
S11320400E944413982F81E08927882311F080E0AF
S11320500DC08CE160E041E00E944413982F81E0C0
S11320608927882311F080E001C081E0CF91DF91BE
S11320700895DF93CF93CDB7DEB790916C0185E0DF
S1132080692F41E00E944413882311F081E001C0CC
S113209080E0CF91DF9108950F931F93DF93CF9347
S11320A0CDB7DEB76D970FB6F894DEBF0FBECDBFC8
S11320B085E290E025E230E0F90120812D7FFC01EA
S11320C0208319828DC085E290E025E230E0F90199
S11320D0308122E02327FC01208380E090E0AAEFF6
S11320E0B2E48A839B83AC83BD836A817B818C81C8
S11320F09D8120E030E04AE755E40E94F714DC01BA
S1132100CB018E839F83A887B98711E06E817F817D
S11321108885998520E030E040E85FE30E947614EA
S113212088230CF010E0112329F081E090E09B87D4
S11321308A8746C011E06E817F818885998520E079
S11321403FEF4FE757E40E94F31418160CF010E029
S1132150112361F16A817B818C819D8120E030E0D3
S113216040E251E40E94F714DC01CB01BC01CD0133
S11321700E947A14DC01CB019B878A8712C080E914
S113218091E09D878C878C859D858C01C801019782
S1132190F1F78C011D870C878A859B8501979B87A6
S11321A08A878A859B85009751F717C06E817F8146
S11321B0888599850E947A14DC01CB019B878A87E4
S11321C08A859B859F878E878E859F858C01F801E4
S11321D03197F1F78F011F870E8789818F5F89837C
S11321E08981863008F46FCF80E090E0AAE7B3E4F9
S11321F0888B998BAA8BBB8B688979898A899B89FF
S113220020E030E04AE755E40E94F714DC01CB01FA
S11322108C8B9D8BAE8BBF8B11E06C897D898E89F5
S11322209F8920E030E040E85FE30E947614882331
S11322300CF010E0112329F081E090E0998F888F51
S113224046C011E06C897D898E899F8920E03FEF2B
S11322504FE757E40E94F31418160CF010E0112312
S113226061F1688979898A899B8920E030E040E2BC
S113227051E40E94F714DC01CB01BC01CD010E94A2
S11322807A14DC01CB01998F888F12C080E991E028
S11322909B8F8A8F8A8D9B8D8C01C8010197F1F7E2
S11322A08C011B8F0A8F888D998D0197998F888F48
S11322B0888D998D009751F717C06C897D898E8917
S11322C09F890E947A14DC01CB01998F888F888DB5
S11322D0998D9D8F8C8F8C8D9D8D8C01F8013197FC
S11322E0F1F78F011D8F0C8F6D960FB6F894DEBF3A
S11322F00FBECDBFCF91DF911F910F910895DF9352
S1132300CF9300D0CDB7DEB79A83898380E00E9453
S1132310971329813A818BE0B90145E00E94231388
S113232081E00E9497130F900F90CF91DF91089551
S1132330DF93CF9300D0CDB7DEB79A838983298109
S11323403A818AE0B90145E00E94231329813A8148
S113235080E1B90145E00E9423130F900F90CF91C3
S1132360DF910895DF93CF930F92CDB7DEB70E942C
S1132370031289838981882F90E08074907000977C
S113238011F081E007C00E94CE11982F81E09923BB
S113239009F080E00F90CF91DF910895DF93CF9300
S11323A00F92CDB7DEB787E19E012F5F3F4FB90192
S11323B041E00E940013898181700F90CF91DF91D9
S11323C00895DF93CF9300D0CDB7DEB79A83898386
S11323D080E00E94B71381E60E94431240916B0192
S11323E089819A8129813A81B9010E948B1281E005
S11323F00E94B71387E060E40E94E6120F900F90EA
S1132400CF91DF910895DF93CF930F92CDB7DEB7CD
S113241080E00E94B7138FEF0E944312898381E00A
S11324200E94B71389810F90CF91DF910895DF93B4
S1132430CF93CDB7DEB780E00E94B71382EE0E943F
S1132440431281E00E94B71387E060E70E94E6121E
S113245080E00E94971380E06BE00E94E61281E026
S11324600E949713CF91DF910895DF93CF93CDB757
S1132470DEB780E00E94971380E068E00E94E612D5
S1132480CF91DF910895DF93CF9300D00F92CDB712
S1132490DEB78B8319821A8280E00E94D7131982D7
S11324A030C08B81882F90E02981222F30E047E0D3
S11324B050E0BA01621B730B9B01022E02C095957A
S11324C087950A94E2F781709070882321F081E067
S11324D00E94F71303C080E00E94F71381E00E947A
S11324E0D7138A81880F8A830E941714882319F0CE
S11324F08A8181608A8380E00E94D71389818F5FFB
S113250089838981883068F28A810F900F900F90B7
S1132510CF91DF9108950F931F93DF93CF9300D052
S113252000D000D0CDB7DEB79B838A837D836C83D4
S11325304E83198218C08981882F90E02C813D81B7
S11325408901080F191F8981882F90E02A813B8116
S1132550820F931FFC0180810E944312F801808343
S113256089818F5F898399818E81981720F32696BC
S11325700FB6F894DEBF0FBECDBFCF91DF911F9190
S11325800F910895DF93CF9300D000D0CDB7DEB77D
S11325909B838A836C8319820EC08981882F90E083
S11325A02A813B81820F931FFC0180810E94431288
S11325B089818F5F898399818C81981770F30F903B
S11325C00F900F900F90CF91DF910895DF93CF93E9
S11325D000D0CDB7DEB789836A8380E00E94B71349
S11325E089818F7180620E9443128A810E94431202
S11325F081E00E94B7130F900F90CF91DF9108955F
S1132600DF93CF9300D000D0CDB7DEB789837B832F
S11326106A834C8380E00E94B71389818F710E9482
S113262043128A819B812A813B81B9014C810E949A
S11326308B1281E00E94B7130F900F900F900F90B0
S1132640CF91DF910895DF93CF9300D000D0CDB721
S1132650DEB789837B836A834C8380E00E94B7134F
S113266089818F7180620E9443128A819B816C816F
S11326700E94C21281E00E94B7130F900F900F9036
S11326800F90CF91DF910895DF93CF9300D000D0C6
S1132690CDB7DEB78A836B834C838A819E012F5F1B
S11326A03F4FB9014C810E94001399818B81981787
S11326B011F481E001C080E00F900F900F900F9013
S11326C0CF91DF910895DF93CF93CDB7DEB787E243
S11326D090E027E230E0F90120812160FC012083B1
S11326E087E290E027E230E0F90120812260FC01DA
S11326F0208387E290E027E230E0F9012081246022
S1132700FC01208387E290E027E230E0F901208198
S11327102860FC01208387E290E027E230E0F901A1
S113272020812F7EFC012083CF91DF910895DF93D8
S1132730CF930F92CDB7DEB789838981882351F077
S113274088E290E028E230E0F90120812160FC0178
S1132750208309C088E290E028E230E0F90120817A
S11327602E7FFC0120830F90CF91DF910895DF939A
S1132770CF930F92CDB7DEB789838981882351F037
S113278088E290E028E230E0F90120812260FC0137
S1132790208309C088E290E028E230E0F90120813A
S11327A02D7FFC0120830F90CF91DF910895DF935B
S11327B0CF930F92CDB7DEB789838981882351F0F7
S11327C088E290E028E230E0F90120812460FC01F5
S11327D0208309C088E290E028E230E0F9012081FA
S11327E02B7FFC0120830F90CF91DF910895DF931D
S11327F0CF930F92CDB7DEB789838981882351F0B7
S113280088E290E028E230E0F90120812860FC01B0
S1132810208309C088E290E028E230E0F9012081B9
S1132820277FFC0120830F90CF91DF910895DF93E0
S1132830CF93CDB7DEB786E290E0FC018081807152
S1132840CF91DF910895DF93CF9300D00F92CDB74E
S1132850DEB78A836B830E945300198212C00E94E0
S113286035120E94460F8091500160E20E94550F7C
S11328700E949D0F882319F081E0898302C00E9481
S11328804C10998181E08927882349F78B81813015
S113289099F480914E0190914F010E9498118A8180
S11328A0882F90E0880F991F885B9E4FFC018081E0
S11328B091810E947F1112C08A81882F90E0880F35
S11328C0991F885B9E4FFC01808191810E94981121
S11328D080914E0190914F010E947F110E94171226
S11328E00F900F900F90CF91DF9108952FD008F49F
S11328F081E0089557D088F09F5790F0B92F992719
S1132900B751A0F0D1F0660F771F881F991F1AF0F6
S1132910BA95C9F712C0B13081F05ED0B1E0089524
S11329205BC0672F782F8827B85F39F0B93FCCF3A5
S1132930869577956795B395D9F73EF490958095EC
S1132940709561957F4F8F4F9F4F0895990F0008A1
S1132950550FAA0BE0E8FEEF16161706E807F9076D
S1132960C0F012161306E407F50798F0621B730B08
S1132970840B950B39F40A2661F0232B242B252B89
S113298021F408950A2609F4A140A6958FEF811D2C
S1132990811D089557FD9058440F551F59F05F3F0E
S11329A071F04795880F97FB991F61F09F3F79F06D
S11329B087950895121613061406551FF2CF4695EF
S11329C0F1DF08C0161617061806991FF1CF869571
S11329D07105610508940895E894BB276627772755
S11329E0CB0197F90895B2DF08F48FEF08950BD067
S11329F078C069D028F06ED018F0952309F05AC039
S1132A005FC01124EACFC6DFA0F3959FD1F3950FE1
S1132A1050E0551F629FF001729FBB27F00DB11D5E
S1132A20639FAA27F00DB11DAA1F649F6627B00DEE
S1132A30A11D661F829F2227B00DA11D621F739FD7
S1132A40B00DA11D621F839FA00D611D221F749FE5
S1132A503327A00D611D231F849F600D211D822F2C
S1132A60762F6A2F11249F5750408AF0E1F0882373
S1132A704AF0EE0FFF1FBB1F661F771F881F915080
S1132A805040A9F79E3F510570F014C0A6CF5F3F98
S1132A90ECF3983EDCF3869577956795B795F795B3
S1132AA0E7959F5FC1F7FE2B880F911D969587953B
S1132AB097F9089597F99F6780E870E060E00895BA
S1132AC09FEF80EC089500240A9416161706180642
S1132AD00906089500240A9412161306140605061E
S1132AE00895092E0394000C11F4882352F0BB0FAF
S1132AF040F4BF2B11F460FF04C06F5F7F4F8F4F12
S1132B009F4F0895EF92FF920F931F93CF93DF93FC
S1132B10689F8001699F100D789F100D1124C801D2
S1132B200E94A615E82EE7017E01F92EE701209701
S1132B3031F08E2D60E070E0A8010E9433177E0111
S1132B40CE01CDB7DEB7E6E00C945717CF93DF93F1
S1132B508230910510F482E090E0E0916F01F091F1
S1132B60700140E050E020E030E026C060817181D7
S1132B7068177907E0F06817790781F482819381F7
S1132B802115310531F0D90113969C938E93129738
S1132B902BC09093700180936F0126C0411551059D
S1132BA019F06417750718F4AB01E901DF019F01FF
S1132BB072816381E72FF62F3097C1F641155105D5
S1132BC001F1481B590B4430510580F412968D9144
S1132BD09C911397209719F09B838A8304C0909348
S1132BE0700180936F01FD01329646C0FD01E40F30
S1132BF0F51F819391934250504011965C934E93EC
S1132C003BC020916D0130916E012115310541F4D5
S1132C10209135013091360130936E0120936D017E
S1132C2020913701309138012115310541F42DB738
S1132C303EB74091330150913401241B350BE09190
S1132C406D01F0916E01E217F307A0F42E1B3F0B08
S1132C502817390778F0AC014E5F5F4F241735070A
S1132C6048F04E0F5F1F50936E0140936D018193A6
S1132C70919302C0E0E0F0E0CF01DF91CF9108959D
S1132C80CF93DF93009709F491C0FC01329713822C
S1132C90128260916F01709170016115710581F468
S1132CA020813181280F391F80916D0190916E012F
S1132CB08217930799F5F0936E01E0936D0176C046
S1132CC0DB0180E090E002C0CD01D901AE17BF075F
S1132CD048F412962D913C91139721153105A1F7D3
S1132CE0CD0121C0B383A283EF01499159919E0183
S1132CF0240F351FA217B30779F42D913C91119736
S1132D00240F351F2E5F3F4F3183208312962D9160
S1132D103C91139733832283009729F4F093700135
S1132D20E0936F0143C0DC011396FC93EE9312977A
S1132D304D915D91A40FB51FEA17FB0769F420813B
S1132D403181240F351F2E5F3F4FEC0139832883D7
S1132D50228133813B832A83E0E0F0E002C0FB015F
S1132D60BC01DB0112968D919C9113970097B9F7E2
S1132D709B012E5F3F4F8D919C911197820F931F62
S1132D8040916D0150916E014817590779F43097BD
S1132D9029F41092700110926F0102C01382128202
S1132DA02250304030936E0120936D01DF91CF911A
S1132DB00895FC0188279927E89421912032E9F3AA
S1132DC0293010F02E30C8F32B3241F02D3239F473
S1132DD0689404C00E944317820F911D21912053CF
S1132DE02A30C0F31EF4909581959F4F0895FC01FD
S1132DF04150504030F001900616D1F73197CF0181
S1132E000895882799270895FB01DC0102C00190E9
S1132E100D9241505040D8F708952115310511F114
S1132E201F930F93240F351F680F791FFA01119117
S1132E30AF01DC01A617B70780F40D910117D1F794
S1132E40CD01FA01E217F30750F4A617B70728F4E7
S1132E500D9101900015B1F3ECCF81E090E0019762
S1132E600F911F910895DC0101C06D9341505040B2
S1132E70E0F70895FC0101900020E9F78095909512
S1132E808E0F9F1F08957AE0979F902D879F802D26
S1132E90910D112408952A88398848885F846E84A6
S1132EA07D848C849B84AA84B984C884DF80EE806A
S1132EB0FD800C811B81AA81B981CE0FD11D0FB673
S1132EC0F894DEBF0FBECDBFED010895F894FFCF97
S1132ED043414C4C5F4E5552534500435552544167
S1132EE0494E5F504F535F4348414E47450053544A
S1132EF0524554434845525F504F535F4348414EF7
S1132F00474500200071010000C9C9C9C9C9A4A46A
S1132F10A4A4A4F0F0F0F0F03E014301390139011A
S1132F20700001009D0D0B010187011E0101920734
S9030000FC
