S0120000554152545F44554D4D592E73726563EB
S11300000C9434000C9451000C9451000C94510045
S11300100C9451000C9451000C9451000C94510018
S11300200C9451000C9451000C9451000C94510008
S11300300C9451000C9451000C9451000C945100F8
S11300400C9451000C9451000C9476040C945100BF
S11300500C943C040C9451000C9451000C945100E9
S11300600C9451000C94510011241FBECFEFD8E022
S1130070DEBFCDBF11E0A0E0B1E0EAE6F1E102C0ED
S113008005900D92A032B107D9F711E0A0E2B1E0DA
S113009001C01D92AE35B107E1F70E948E020C94A7
S11300A0B3080C940000DF93CF93CDB7DEB780E0A4
S11300B0CF91DF910895DF93CF930F92CDB7DEB741
S11300C0898389810F90CF91DF9108950F931F93B6
S11300D0DF93CF9300D0CDB7DEB780914B01882357
S11300E011F080E06AC087E190E061E070E00E9476
S11300F04A06909321018093200182E090E061E020
S113010070E00E944A06909324018093230182E0C8
S113011090E061E070E00E944A069093270180938A
S1130120260183E0898317C08981082F10E081E0CC
S113013090E061E070E00E944A069C01C801880FCB
S1130140991F800F911F805E9E4FFC013183208395
S113015089818F5F898389818C3030F380E290E0DC
S113016061E070E00E944A0690934A01809349013D
S11301708091490190914A01009711F480E01DC0DB
S11301801A8214C08A81282F30E0C901880F991F70
S1130190820F931F805E9E4FFC01808191810097A6
S11301A011F480E00AC08A818F5F8A838A818C304F
S11301B048F381E080934B0181E00F900F90CF9141
S11301C0DF911F910F910895DF93CF93CDB7DEB7E1
S11301D029970FB6F894DEBF0FBECDBF80914901B9
S11301E090914A019A8389838091490190914A01AF
S11301F04F969C838B83F0C089819A81FC01808116
S1130200813009F0E4C089819A810396FC018081E0
S1130210823009F0DCC0CEC08B819C81FC018081DE
S1130220873109F0C2C08B819C810297FC018081D7
S1130230833009F0BAC08B819C810297282F898171
S11302409A81F22FF81B8F2F88870E945300898789
S11302508885282F30E049815A818985BA01A9010E
S11302600E942602898789850E945B0089878B8189
S11302709C810197FC0190818985981711F083E096
S1130280B9C089819A810296FC01808180934C01D6
S113029089819A810496FC018081853010F085E083
S11302A0A9C089819A810496FC018081882F90E0FD
S11302B0880F991F8B5E9E4FFC01808191819093E2
S11302C046018093450189819A810196FC018081D0
S11302D08093480189819A8105969E838D831F822C
S11302E05CC08F81282F30E0C901880F991F820FCD
S11302F0931F805E9E4FFC01808191812D813E8100
S1130300F9012081222F30E0B9010E94A1078F81D9
S1130310282F30E08D819E81FC014081C901880F26
S1130320991F820F931F8E5D9E4FFC0140838F8126
S1130330282F30E0C901880F991F820F931F805E18
S11303409E4FFC01808191812D813E81A9014F5FE7
S11303505F4F2D813E81F9012081222F30E0BA01C7
S1130360A9010E946C088D819E81FC018081882FE7
S113037090E001962D813E81820F931F9E838D8391
S11303808B819C819C01225030408D819E81281755
S1130390390740F48F818F5F8F838F818C3008F40D
S11303A0A0CF01C0000080E025C08B819C81019713
S11303B09C838B838091490190914A019C012A5F1F
S11303C03F4F8B819C812817390709F025CF8981FC
S11303D09A8101969A8389838091490190914A0177
S11303E09C012A5E3F4F89819A812817390709F0B9
S11303F003CF81E029960FB6F894DEBF0FBECDBFC0
S1130400CF91DF910895DF93CF93CDB7DEB7CF912E
S1130410DF910895DF93CF93CDB7DEB7CF91DF910E
S11304200895DF93CF93CDB7DEB7CF91DF910895D1
S1130430DF93CF93CDB7DEB7CF91DF910895DF93EC
S1130440CF93CDB7DEB7CF91DF910895DF93CF93EC
S1130450CDB7DEB72B970FB6F894DEBF0FBECDBF76
S11304608F83798768875B874A87888599859A838C
S113047089833CC089819A81FC0180818E83898132
S11304809A8101969A83898380E890E09C838B8388
S113049029C08F81882F90E08078907021E00097A8
S11304A009F420E02D838E81282F30E08B819C81FC
S11304B082239323009731F09D8181E08927882F3F
S11304C090E08D838F81880F8F838D81882321F025
S11304D09F8187E089278F838B819C81969587955F
S11304E09C838B838B819C81009799F621E08A857C
S11304F09B85009709F420E08A859B8501979B875B
S11305008A87222309F0B6CF8F812B960FB6F894F1
S1130510DEBF0FBECDBFCF91DF9108950F931F9320
S1130520DF93CF93CDB7DEB72E970FB6F894DEBF27
S11305300FBECDBFF8940E9428030E943E030E9480
S1130540EE03789486E091E06FE00E946A0380E015
S113055090E8ABE3B5E489839A83AB83BC83698178
S11305607A818B819C8120E030E04AE755E40E9447
S1130570BF05DC01CB018D839E83AF83B88711E077
S11305806D817E818F81988520E030E040E85FE3D3
S11305900E943E0588230CF010E0112329F081E02D
S11305A090E09A87898746C011E06D817E818F81B2
S11305B0988520E03FEF4FE757E40E94BB051816EB
S11305C00CF010E0112361F169817A818B819C81A7
S11305D020E030E040E251E40E94BF05DC01CB01A1
S11305E0BC01CD010E944205DC01CB019A878987B9
S11305F012C080E991E09C878B878B859C858C0158
S1130600C8010197F1F78C011C870B8789859A85AE
S113061001979A87898789859A85009751F792CFA0
S11306206D817E818F8198850E944205DC01CB011A
S11306309A87898789859A859E878D878D859E85EA
S11306408C01C8010197F1F78C011E870D877ACFC1
S1130650DF93CF93CDB7DEB78AE290E02EEFFC01B3
S1130660208384E290E029E2FC01208387E290E089
S11306702FEDFC012083CF91DF910895DF93CF9379
S1130680CDB7DEB785EC90E0FC01108284EC90E0FD
S11306902FECFC01208380EC90E020EC30E0F901A9
S11306A020812260FC01208382EC90E022EC30E087
S11306B0F90120812660FC0120830E94660080915C
S11306C0490190914A019093560180935501CF912D
S11306D0DF910895DF93CF9300D00F92CDB7DEB7AB
S11306E09A8389836B83000080EC90E0FC01808115
S11306F0882F90E0807290700097B1F38091490147
S113070090914A019093560180935501209149019B
S113071030914A018B81882F90E0820F931F909330
S11307205801809357018091490190914A012B818E
S1130730222F30E049815A81BA01A9010E946C0834
S113074080EC90E020EC30E0F9012081206CFC0189
S1130750208381EC90E021EC30E0F90120812864D1
S1130760FC01208381EC90E021EC30E0F901208150
S11307702F76FC01208380915501909156010196BA
S1130780909356018093550186EC90E020914901A5
S113079030914A01F9012081FC01208300000E946C
S11307A0D9038823E1F70F900F900F90CF91DF9139
S11307B00895DF93CF93CDB7DEB7209155013091E3
S11307C0560180915701909158012817390711F06B
S11307D081E001C080E0CF91DF910895DF93CF9352
S11307E0CDB7DEB7000080EC90E0FC018081882F5B
S11307F090E0807290700097B1F3809149019091DC
S11308004A01909356018093550180EC90E020ECCE
S113081030E0F9012081206CFC01208381EC90E020
S113082021EC30E0F9012081277BFC01208381EC5D
S113083090E021EC30E0F90120812069FC01208363
S1130840CF91DF910895DF93CF93CDB7DEB781ECDD
S113085090E021EC30E0F9012081277BFC0120832A
S113086081EC90E021EC30E0F90120812F76FC014D
S11308702083CF91DF9108951F920F920FB60F92AC
S113088011242F933F938F939F93EF93FF93DF93C1
S1130890CF93CDB7DEB720915501309156018091A9
S11308A05701909158012817390799F086EC90E088
S11308B02091550130915601F9012081FC012083DA
S11308C08091550190915601019690935601809321
S11308D05501CF91DF91FF91EF919F918F913F91BE
S11308E02F910F900FBE0F901F9018951F920F928B
S11308F00FB60F9211242F933F934F935F936F93EF
S11309007F938F939F93AF93BF93EF93FF93DF9363
S1130910CF930F92CDB7DEB78091490190914A01F0
S11309209C01205E3F4F80915501909156012817FC
S1130930390709F47DC0809155019091560126EC48
S113094030E0F9012081FC012083809155019091D0
S11309505601FC018081873151F40E94E400882310
S113096031F40E94230481E08093590173C0809183
S1130970550190915601FC0180818F3709F04EC0DA
S113098081E0898345C020915501309156018981C8
S1130990882F90E0909581959F4F280F391F809163
S11309A0490190914A012817390748F48091490177
S11309B090914A014F96909356018093550120914E
S11309C05501309156018981882F90E09095819549
S11309D09F4F820F931FFC0180818F3709F01DC048
S11309E08981833049F48091490190914A0190931F
S11309F056018093550111C0809155019091560183
S1130A000196909356018093550189818F5F898364
S1130A108981843008F4B7CF1DC01CC08091550172
S1130A20909156010196909356018093550112C0FE
S1130A308091490190914A01909356018093550108
S1130A40809155019091560126EC30E0F901208106
S1130A50FC0120830F90CF91DF91FF91EF91BF9123
S1130A60AF919F918F917F916F915F914F913F9142
S1130A702F910F900FBE0F901F9018952FD008F450
S1130A8081E0089557D088F09F5790F0B92F9927A7
S1130A90B751A0F0D1F0660F771F881F991F1AF085
S1130AA0BA95C9F712C0B13081F05ED0B1E00895B3
S1130AB05BC0672F782F8827B85F39F0B93FCCF334
S1130AC0869577956795B395D9F73EF4909580957B
S1130AD0709561957F4F8F4F9F4F0895990F000830
S1130AE0550FAA0BE0E8FEEF16161706E807F907FC
S1130AF0C0F012161306E407F50798F0621B730B97
S1130B00840B950B39F40A2661F0232B242B252B17
S1130B1021F408950A2609F4A140A6958FEF811DBA
S1130B20811D089557FD9058440F551F59F05F3F9C
S1130B3071F04795880F97FB991F61F09F3F79F0FB
S1130B4087950895121613061406551FF2CF46957D
S1130B50F1DF08C0161617061806991FF1CF8695FF
S1130B607105610508940895E894BB2766277727E3
S1130B70CB0197F90895B2DF08F48FEF08950BD0F5
S1130B8078C069D028F06ED018F0952309F05AC0C7
S1130B905FC01124EACFC6DFA0F3959FD1F3950F70
S1130BA050E0551F629FF001729FBB27F00DB11DED
S1130BB0639FAA27F00DB11DAA1F649F6627B00D7D
S1130BC0A11D661F829F2227B00DA11D621F739F66
S1130BD0B00DA11D621F839FA00D611D221F749F74
S1130BE03327A00D611D231F849F600D211D822FBB
S1130BF0762F6A2F11249F5750408AF0E1F0882302
S1130C004AF0EE0FFF1FBB1F661F771F881F91500E
S1130C105040A9F79E3F510570F014C0A6CF5F3F26
S1130C20ECF3983EDCF3869577956795B795F79541
S1130C30E7959F5FC1F7FE2B880F911D96958795C9
S1130C4097F9089597F99F6780E870E060E0089548
S1130C509FEF80EC089500240A94161617061806D0
S1130C600906089500240A941216130614060506AC
S1130C700895092E0394000C11F4882352F0BB0F3D
S1130C8040F4BF2B11F460FF04C06F5F7F4F8F4FA0
S1130C909F4F0895EF92FF920F931F93CF93DF938B
S1130CA0689F8001699F100D789F100D1124C80161
S1130CB00E946E06E82EE7017E01F92EE7012097D7
S1130CC031F08E2D60E070E0A8010E9475087E016D
S1130CD0CE01CDB7DEB7E6E00C94A408CF93DF9342
S1130CE08230910510F482E090E0E0915C01F09193
S1130CF05D0140E050E020E030E026C06081718179
S1130D0068177907E0F06817790781F48281938185
S1130D102115310531F0D90113969C938E931297C6
S1130D202BC090935D0180935C0126C04115510551
S1130D3019F06417750718F4AB01E901DF019F018D
S1130D4072816381E72FF62F3097C1F64115510563
S1130D5001F1481B590B4430510580F412968D91D2
S1130D609C911397209719F09B838A8304C09093D6
S1130D705D0180935C01FD01329646C0FD01E40FE4
S1130D80F51F819391934250504011965C934E937A
S1130D903BC020915A0130915B012115310541F48A
S1130DA0209102013091030130935B0120935A0199
S1130DB020910401309105012115310541F42DB72D
S1130DC03EB74091000150910101241B350BE09185
S1130DD05A01F0915B01E217F307A0F42E1B3F0BBD
S1130DE02817390778F0AC014E5F5F4F2417350799
S1130DF048F04E0F5F1F50935B0140935A0181935B
S1130E00919302C0E0E0F0E0CF01DF91CF9108952B
S1130E10CF93DF93009709F491C0FC0132971382BA
S1130E20128260915C0170915D016115710581F41C
S1130E3020813181280F391F80915A0190915B01E3
S1130E408217930799F5F0935B01E0935A0176C0FA
S1130E50DB0180E090E002C0CD01D901AE17BF07ED
S1130E6048F412962D913C91139721153105A1F761
S1130E70CD0121C0B383A283EF01499159919E0111
S1130E80240F351FA217B30779F42D913C911197C4
S1130E90240F351F2E5F3F4F3183208312962D91EF
S1130EA03C91139733832283009729F4F0935D01D7
S1130EB0E0935C0143C0DC011396FC93EE9312971C
S1130EC04D915D91A40FB51FEA17FB0769F42081CA
S1130ED03181240F351F2E5F3F4FEC013983288366
S1130EE0228133813B832A83E0E0F0E002C0FB01EE
S1130EF0BC01DB0112968D919C9113970097B9F771
S1130F009B012E5F3F4F8D919C911197820F931FF0
S1130F1040915A0150915B014817590779F4309771
S1130F2029F410925D0110925C0102C013821282B6
S1130F302250304030935B0120935A01DF91CF91CE
S1130F400895A0E0B0E0E7EAF7E00C9482088C0191
S1130F50CB010115110529F40E946E06082F192FE3
S1130F60B5C0D80112979801260F371F2A173B07DF
S1130F7008F4AAC0ED90FC901197E616F706D0F09D
S1130F8045E0E416F10408F4A1C0A7014450504020
S1130F904617570708F49AC0A70142505040461B11
S1130FA0570BF901419351936D937C93CF010E94A8
S1130FB008078CC05B01AE18BF0848018E0C9F1C4B
S1130FC0E0915C01F0915D01CC24DD24C0E0D0E02F
S1130FD041C0E815F90599F560817181AB014E5F57
S1130FE05F4F4A155B0558F1AB014A195B09CC24E4
S1130FF0DD246894C1F8C40ED51E8280A380E5E088
S1131000CE16D10448F0F9018282A3825183408331
S113101011969C938E9309C0C7010296860F971F61
S113102011969C938E93E82DFA2D209719F0FB834B
S1131030EA834CC0F0935D01E0935C0147C04081BA
S11310405181C416D50608F46A01EF015281438127
S1131050E52FF42F309709F0BCCF40915A015091FD
S11310605B0148155905E9F4C816D906D0F4409136
S11310700401509105014115510541F44DB75EB786
S11310806091000170910101461B570B241735072D
S1131090D8F430935B0120935A0111969C938E935C
S11310A015C00E946E06C82EE6016E01D92EE60117
S11310B0209751F08C2DB801A7010E946C08C8013B
S11310C00E940807860102C000E010E0C801CDB705
S11310D0DEB7ECE00C949E08FB01DC0102C0019039
S11310E00D9241505040D8F70895DC0101C06D9332
S11310F041505040E0F708952F923F924F925F92F3
S11311006F927F928F929F92AF92BF92CF92DF9213
S1131110EF92FF920F931F93CF93DF93CDB7DEB778
S1131120CA1BDB0B0FB6F894DEBF0FBECDBF09940C
S11311302A88398848885F846E847D848C849B8463
S1131140AA84B984C884DF80EE80FD800C811B8171
S1131150AA81B981CE0FD11D0FB6F894DEBF0FBEA0
S10D1160CDBFED010895F894FFCF10
S113116A20005E010000017F000201027272037214
S113117A727203EA1703020A02110218021F02001A
S9030000FC
