:1000000019C033C032C031C030C02FC02EC02DC087
:100010002CC02BC02AC029C028C027C026C025C09C
:1000200024C023C022C021C020C01FC01EC01DC0CC
:100030001CC01BC011241FBECFEFD4E0DEBFCDBF5C
:1000400011E0A0E0B1E0E0E9FEE102C005900D9210
:10005000A039B107D9F711E0A0E9B1E001C01D92C4
:10006000AF39B107E1F7CBD511CFCACFDF93CF932B
:10007000CDB7DEB780919801882311F080E042C0AF
:100080008CE190E061E070E021DD9093910180933C
:1000900090018CE190E061E070E018DD90939301B5
:1000A000809392018CE190E061E070E00FDD90932D
:1000B00095018093940180E290E061E070E006DDBC
:1000C0009093970180939601809190019091910176
:1000D000009791F08091920190919301009761F0C7
:1000E0008091940190919501009731F08091960153
:1000F00090919701009711F480E004C081E0809313
:10010000980181E0CF91DF9108950F931F93DF93C2
:10011000CF93CDB7DEB760970FB6F894DEBF0FBEB2
:10012000CDBF9C878B877E876D87588B4F871982C1
:100130004CC08981282F30E0C901880F991F880F92
:10014000991F820F931F89599E4FFC0100811181D5
:100150008981282F30E0C901880F991F880F991FC6
:10016000820F931F89599E4FFC018081918162DE2D
:100170009C018B859C8560E270E0A8012EDE0097D3
:10018000E1F08981282F30E04D855E85C901880F17
:10019000991F880F991F820F931F9C0129593E4F69
:1001A000CA0145E0F90100802F5F3F4FFC0100824A
:1001B000019641504423B1F70CC08981853011F478
:1001C00080E074C089818F5F89838981863008F4DB
:1001D000B0CF1A8260C08B859C856BE570E040E2F1
:1001E00050E0E5DD9C838B838B859C856DE570E01D
:1001F00040E250E0DCDD9E838D838B819C81009703
:1002000021F08D819E81009731F48A81882309F045
:100210004BC080E04BC08B819C8120E2FC0120839D
:100220008D819E8120E2FC0120838B819C8101963F
:100230009C838B832D813E818B819C81A901481BEE
:10024000590BCA01AA2797FDA095BA2F8F839887CB
:10025000A987BA878F819885A985BA858D3191053F
:10026000A105B10510F080E021C08A81882F90E0BF
:10027000880F991F2F853889820F931FFC01808179
:1002800091812F8138854B815C81BA01A9019CDD68
:100290008A818F5F8A838D859E85FC0192818A8108
:1002A000891708F498CF01C0000081E060960FB66E
:1002B000F894DEBF0FBECDBFCF91DF911F910F919C
:1002C0000895DF93CF930F92CDB7DEB78091900161
:1002D000909191014FDD89838981882F90E0813051
:1002E0009105B9F0823091051CF4009741F02FC0C0
:1002F00082309105C1F083309105F9F028C08BE27E
:1003000090E02BE230E0F90120812860FC0120839D
:100310001EC08BE290E02BE230E0F90120812460E6
:10032000FC01208314C08BE290E02BE230E0F90165
:1003300020812064FC0120830AC08BE290E02BE244
:1003400030E0F90120812062FC01208300000F9041
:10035000CF91DF910895DF93CF930F92CDB7DEB7A2
:10036000809190019091910105DD89838981882F89
:1003700090E081309105B9F0823091051CF400972E
:1003800041F02FC082309105C1F083309105F9F022
:1003900028C08BE290E02BE230E0F9012081277F3A
:1003A000FC0120831EC08BE290E02BE230E0F901DB
:1003B00020812B7FFC01208314C08BE290E02BE294
:1003C00030E0F90120812F7BFC0120830AC08BE201
:1003D00090E02BE230E0F90120812F7DFC012083A9
:1003E00000000F90CF91DF9108950F931F93DF933B
:1003F000CF93CDB7DEB72F970FB6F894DEBF0FBE01
:10040000CDBF198291C08BE290E02BE230E0F90180
:10041000308120E82327FC01208385E290E025E25B
:1004200030E0F901308121E02327FC01208380E0C6
:1004300090E0AAE7B3E48A839B83AC83BD836A819F
:100440007B818C819D8120E030E04AE755E4B3DA7E
:10045000DC01CB018E839F83A887B98711E06E8171
:100460007F818885998520E030E040E85FE322DAEB
:1004700088230CF010E0112329F081E090E09B87A5
:100480008A8742C011E06E817F818885998520E04E
:100490003FEF4FE757E48BDA18160CF010E011230A
:1004A00051F16A817B818C819D8120E030E040E2C6
:1004B00051E481DADC01CB01BC01CD01FFD9DC01C3
:1004C000CB019B878A8712C080E991E09D878C874A
:1004D0008C859D858C01C8010197F1F78C011D87E2
:1004E0000C878A859B8501979B878A878A859B8550
:1004F000009751F716C06E817F8188859985DED976
:10050000DC01CB019B878A878A859B859F878E87A5
:100510008E859F858C01F8013197F1F78F011F8738
:100520000E8789818F5F89838981883008F46BCF3A
:100530008BE290E02BE230E0F90120812F77FC0183
:10054000208385E290E025E230E0F90120812E7FD2
:10055000FC0120832F960FB6F894DEBF0FBECDBFEF
:10056000CF91DF911F910F910895DF93CF93CDB776
:10057000DEB78BE290E02BE230E0F90120812860C9
:10058000FC0120838BE290E02BE230E0F901208136
:100590002460FC0120838BE290E02BE230E0F90143
:1005A00020812064FC0120838BE290E02BE230E08C
:1005B000F90120812062FC012083CF91DF91089511
:1005C000DF93CF93CDB7DEB78BE290E02BE230E044
:1005D000F9012081277FFC0120838BE290E02BE250
:1005E00030E0F90120812B7FFC0120838BE290E039
:1005F0002BE230E0F90120812F7BFC0120838BE28C
:1006000090E02BE230E0F90120812F7DFC01208376
:10061000CF91DF9108950F931F93DF93CF93CDB7C1
:10062000DEB7C654D0400FB6F894DEBF0FBECDBFC4
:100630008BE290E02BE230E0F90120812062FC01A6
:10064000208380E090E0AAEFB3E489839A83AB83B0
:10065000BC8369817A818B819C8120E030E04AE70C
:1006600055E4A9D9DC01CB018D839E83AF83B88784
:1006700011E06D817E818F81988520E030E040E837
:100680005FE318D988230CF010E0112329F081E0F2
:1006900090E09A87898742C011E06D817E818F81C9
:1006A000988520E03FEF4FE757E481D918160CF00A
:1006B00010E0112351F169817A818B819C8120E0C6
:1006C00030E040E251E477D9DC01CB01BC01CD013F
:1006D000F5D8DC01CB019A87898712C080E991E0C7
:1006E0009C878B878B859C858C01C8010197F1F7CE
:1006F0008C011C870B8789859A8501979A87898742
:1007000089859A85009751F716C06D817E818F810A
:100710009885D4D8DC01CB019A87898789859A8509
:100720009E878D878D859E858C01F8013197F1F725
:100730008F011E870D878BE290E02BE230E0F901FC
:1007400020812F7DFC01208380E090E0AAEFB3E4BC
:100750008F87988BA98BBA8B6F85788989899A89BD
:1007600020E030E04AE755E426D9DC01CB018B8B51
:100770009C8BAD8BBE8B11E06B897C898D899E89AA
:1007800020E030E040E85FE395D888230CF010E0EB
:10079000112329F081E090E0988F8F8B42C011E007
:1007A0006B897C898D899E8920E03FEF4FE757E474
:1007B000FED818160CF010E0112351F16F857889DE
:1007C00089899A8920E030E040E251E4F4D8DC01E4
:1007D000CB01BC01CD0172D8DC01CB01988F8F8B8E
:1007E00012C080E991E09A8F898F898D9A8D8C0152
:1007F000C8010197F1F78C011A8F098F8F89988DA5
:100800000197988F8F8B8F89988D009751F716C01D
:100810006B897C898D899E8951D8DC01CB01988FA9
:100820008F8B8F89988D9C8F8B8F8B8D9C8D8C015E
:10083000F8013197F1F78F011C8F0B8F8BE290E05D
:100840002BE230E0F90120812062FC01208380E06E
:1008500090E0AAEFB3E48D8F9E8FAF8FB8A36D8D1C
:100860007E8D8F8D98A120E030E04AE755E4A3D833
:10087000DC01CB0189A39AA3ABA3BCA311E069A1BE
:100880007AA18BA19CA120E030E040E85FE312D880
:1008900088230CF010E0112329F081E090E09EA362
:1008A0008DA342C011E069A17AA18BA19CA120E097
:1008B0003FEF4FE757E47BD818160CF010E01123F8
:1008C00051F16D8D7E8D8F8D98A120E030E040E25A
:1008D00051E471D8DC01CB01BC01CD01EFD7DC01C3
:1008E000CB019EA38DA312C080E991E098A78FA3AE
:1008F0008FA198A58C01C8010197F1F78C0118A769
:100900000FA38DA19EA101979EA38DA38DA19EA152
:10091000009751F716C069A17AA18BA19CA1CED7EF
:10092000DC01CB019EA38DA38DA19EA19AA789A7CF
:1009300089A59AA58C01F8013197F1F78F011AA7C3
:1009400009A78BE290E02BE230E0F90120812F7DB6
:10095000FC01208380E090E0AAEFB3E48BA79CA782
:10096000ADA7BEA76BA57CA58DA59EA520E030E018
:100970004AE755E420D8DC01CB018FA798ABA9AB9F
:10098000BAAB11E06FA578A989A99AA920E030E057
:1009900040E85FE38FD788230CF010E0112329F0A3
:1009A00081E090E09CAB8BAB42C011E06FA578A9D1
:1009B00089A99AA920E03FEF4FE757E4F8D7181626
:1009C0000CF010E0112351F16BA57CA58DA59EA51F
:1009D00020E030E040E251E4EED7DC01CB01BC0185
:1009E000CD016CD7DC01CB019CAB8BAB12C080E995
:1009F00091E09EAB8DAB8DA99EA98C01C80101979A
:100A0000F1F78C011EAB0DAB8BA99CA901979CAB98
:100A10008BAB8BA99CA9009751F716C06FA578A93D
:100A200089A99AA94BD7DC01CB019CAB8BAB8BA9D5
:100A30009CA998AF8FAB8FA998AD8C01F801319725
:100A4000F1F78F0118AF0FAB8BE290E02BE230E0B3
:100A5000F90120812062FC01208380E090E0AAEF70
:100A6000B3E489AF9AAFABAFBCAF69AD7AAD8BAD34
:100A70009CAD20E030E04AE755E49DD7DC01CB0196
:100A80009E01235C3F4FF90180839183A283B3834E
:100A900011E0CE01CD96FC0160817181828193814C
:100AA00020E030E040E85FE305D788230CF010E059
:100AB000112349F0CE018F5B9F4F21E030E0FC0114
:100AC000318320836AC011E0CE01CD96FC016081A4
:100AD00071818281938120E03FEF4FE757E467D730
:100AE00018160CF010E0112309F447C069AD7AAD77
:100AF0008BAD9CAD20E030E040E251E45CD7DC01FE
:100B0000CB018E010F5B1F4FBC01CD01D7D6DC019D
:100B1000CB01F8019183808327C0CE018D5B9F4F6D
:100B200020E931E0FC0131832083CE018D5B9F4FB2
:100B3000FC01808191818C01C8010197F1F78C0142
:100B4000CE018D5B9F4FFC0111830083CE018F5B33
:100B50009F4F9E012F5B3F4FF90120813181215032
:100B60003040FC0131832083CE018F5B9F4FFC011D
:100B700080819181009789F62DC08E010F5B1F4FF8
:100B8000CE01CD96FC01608171818281938196D6E0
:100B9000DC01CB01F80191838083CE018B5B9F4FF9
:100BA0009E012F5B3F4FF90120813181FC01318390
:100BB0002083CE018B5B9F4FFC01808191818C0152
:100BC000C8010197F1F78C01CE018B5B9F4FFC01AF
:100BD000118300838BE290E02BE230E0F901208169
:100BE0002F7DFC012083CA5BDF4F0FB6F894DEBF78
:100BF0000FBECDBFCF91DF911F910F9108950F933D
:100C00001F93DF93CF93CDB7DEB764970FB6F894F9
:100C1000DEBF0FBECDBFC4D0E5D001C00000EED214
:100C2000882309F4AEC085E290E025E230E0F901C6
:100C300020812E7FFC012083809196019091970165
:100C400009D38BE290E02BE230E0F90120812068AB
:100C5000FC01208380E090E0AAEFB3E48A839B83C9
:100C6000AC83BD836A817B818C819D8120E030E0F3
:100C70004AE755E4A0D6DC01CB018E839F83A88789
:100C8000B98711E06E817F818885998520E030E009
:100C900040E85FE30FD688230CF010E0112329F021
:100CA00081E090E09B878A8742C011E06E817F815E
:100CB0008885998520E03FEF4FE757E478D61816EE
:100CC0000CF010E0112351F16A817B818C819D81B0
:100CD00020E030E040E251E46ED6DC01CB01BC0103
:100CE000CD01ECD5DC01CB019B878A8712C080E95E
:100CF00091E09D878C878C859D858C01C80101972B
:100D0000F1F78C011D870C878A859B8501979B874E
:100D10008A878A859B85009751F716C06E817F81EF
:100D200088859985CBD5DC01CB019B878A878A850D
:100D30009B859F878E878E859F858C01F8013197D3
:100D4000F1F78F011F870E8780919601909197018F
:100D5000AE01405F5F4F20E931E0BA01A901D5D96A
:100D600089838981882321F08B899C89FC010995DD
:100D70008BE290E02BE230E0F90120812F77FC013B
:100D80002083FCD1982F81E08927882309F446CF5E
:100D9000000028D0982F81E089278823D1F73FCF02
:100DA000DF93CF93CDB7DEB78AE290E02EEFFC0160
:100DB000208384E290E029E2FC01208387E290E036
:100DC0002FEDFC0120838BE290E0FC01108288E291
:100DD00090E0FC01108285E290E0FC011082CF914E
:100DE000DF910895DF93CF93CDB7DEB72A970FB683
:100DF000F894DEBF0FBECDBFCE01019625E831E0ED
:100E000045E0F90100802F5F3F4FFC010082019611
:100E100041504423B1F7CE0106962AE831E045E07F
:100E2000F90100802F5F3F4FFC0100820196415085
:100E30004423B1F71BD9DDD2CAD080E760E2D3D01A
:100E40000DD1982F81E08927882319F013D080E0F5
:100E500008C0CE010196BAD1CE010696A1D128D202
:100E600081E02A960FB6F894DEBF0FBECDBFCF91BA
:100E7000DF9108950F931F93DF93CF93CDB7DEB724
:100E80002F970FB6F894DEBF0FBECDBF8BE290E078
:100E90002BE230E0F90120812F77FC0120831982B9
:100EA00087C08BE290E02BE230E0F901308120E84E
:100EB0002327FC01208380E090E0AAEFB2E48A833C
:100EC0009B83AC83BD836A817B818C819D8120E083
:100ED00030E04AE755E46FD5DC01CB018E839F8378
:100EE000A887B98711E06E817F818885998520E088
:100EF00030E040E85FE3DED488230CF010E01123FB
:100F000029F081E090E09B878A8742C011E06E81E2
:100F10007F818885998520E03FEF4FE757E447D5EB
:100F200018160CF010E0112351F16A817B818C813D
:100F30009D8120E030E040E251E43DD5DC01CB0171
:100F4000BC01CD01BBD4DC01CB019B878A8712C0D9
:100F500080E991E09D878C878C859D858C01C801F7
:100F60000197F1F78C011D870C878A859B85019776
:100F70009B878A878A859B85009751F716C06E816B
:100F80007F81888599859AD4DC01CB019B878A87EC
:100F90008A859B859F878E878E859F858C01F8012A
:100FA0003197F1F78F011F870E8789818F5F8983C2
:100FB0008981863008F475CF2F960FB6F894DEBF7E
:100FC0000FBECDBFCF91DF911F910F910895DF9399
:100FD000CF93CDB7DEB7AED380E0E0D381E0FED3D0
:100FE000CF91DF910895DF93CF9300D0CDB7DEB7D7
:100FF00089836A838A8180939901898180939A0188
:1010000085E0698127D381E160E024D39091990143
:1010100082E1692F1FD383E160E01CD384E160E0AB
:1010200019D385E160E016D386E160E013D386E052
:1010300066E010D380E068E00DD381E063E00AD37E
:1010400082E063E007D384E06FE404D38CE160E0E6
:1010500001D30F900F90CF91DF910895DF93CF933D
:10106000CDB7DEB790919A0185E0692F41E044D376
:10107000982F81E08927882311F080E07CC081E1EE
:1010800060E041E039D3982F81E08927882311F06F
:1010900080E071C09091990182E1692F41E02CD3E9
:1010A000982F81E08927882311F080E064C083E1D4
:1010B00060E041E021D3982F81E08927882311F057
:1010C00080E059C084E160E041E016D3982F81E0D0
:1010D0008927882311F080E04EC085E160E041E07F
:1010E0000BD3982F81E08927882311F080E043C03B
:1010F00086E160E041E000D3982F81E089278823D2
:1011000011F080E038C086E066E041E0F5D2982F2B
:1011100081E08927882311F080E02DC080E068E01D
:1011200041E0EAD2982F81E08927882311F080E0FE
:1011300022C081E063E041E0DFD2982F81E089277F
:10114000882311F080E017C084E06FE441E0D4D23E
:10115000982F81E08927882311F080E00CC08CE172
:1011600060E041E0C9D2982F81E08927882311F0FF
:1011700080E001C081E0CF91DF910895DF93CF93AC
:10118000CDB7DEB790919A0185E0692F41E0B4D2E6
:10119000882311F081E001C080E0CF91DF910895B4
:1011A000DF93CF9300D0CDB7DEB79A83898380E0F9
:1011B000F5D229813A818BE0B90145E080D281E006
:1011C000EDD20F900F90CF91DF910895DF93CF93E1
:1011D00000D0CDB7DEB79A83898329813A818AE02E
:1011E000B90145E06CD229813A8180E1B90145E03D
:1011F00066D20F900F90CF91DF910895DF93CF9338
:101200000F92CDB7DEB743D089838981882F90E0D4
:1012100080749070009711F081E006C009D0982F7B
:1012200081E0992309F080E00F90CF91DF9108953C
:10123000DF93CF930F92CDB7DEB787E19E012F5F8B
:101240003F4FB90141E01CD2898181700F90CF914D
:10125000DF910895DF93CF9300D0CDB7DEB79A83A7
:10126000898380E0BBD281E65AD14091990189817E
:101270009A8129813A81B90194D181E0AFD287E086
:1012800060E4E8D10F900F90CF91DF910895DF9344
:10129000CF930F92CDB7DEB780E0A0D28FEF3FD1D2
:1012A000898381E09BD289810F90CF91DF9108954E
:1012B0000F931F93DF93CF93CDB7DEB72E970FB663
:1012C000F894DEBF0FBECDBF80E088D282EE27D17A
:1012D00081E084D287E060E7BDD180E05FD280E02A
:1012E0006BE0B8D181E05AD280E090E0A0EAB0E4AF
:1012F00089839A83AB83BC8369817A818B819C814A
:1013000020E030E04AEF54E456D3DC01CB018D837A
:101310009E83AF83B88711E06D817E818F81988530
:1013200020E030E040E85FE3C5D288230CF010E015
:10133000112329F081E090E09A87898742C011E06B
:101340006D817E818F81988520E03FEF4FE757E4E4
:101350002ED318160CF010E0112351F169817A8117
:101360008B819C8120E030E040E251E424D3DC0119
:10137000CB01BC01CD01A2D2DC01CB019A878987C8
:1013800012C088EC90E09C878B878B859C858C01B4
:10139000C8010197F1F78C011C870B8789859A8515
:1013A00001979A87898789859A85009751F716C092
:1013B0006D817E818F81988581D2DC01CB019A87F6
:1013C000898789859A859E878D878D859E858C01E5
:1013D000C8010197F1F78C011E870D872E960FB675
:1013E000F894DEBF0FBECDBFCF91DF911F910F915B
:1013F00008950F931F93DF93CF93CDB7DEB72E974A
:101400000FB6F894DEBF0FBECDBF80E0C7D180E03D
:1014100068E020D180E090E0A0EAB0E489839A837C
:10142000AB83BC8369817A818B819C8120E030E031
:101430004AEF54E4C0D2DC01CB018D839E83AF839D
:10144000B88711E06D817E818F81988520E030E042
:1014500040E85FE32FD288230CF010E0112329F03D
:1014600081E090E09A87898742C011E06D817E819A
:101470008F81988520E03FEF4FE757E498D2181608
:101480000CF010E0112351F169817A818B819C81EC
:1014900020E030E040E251E48ED2DC01CB01BC011F
:1014A000CD010CD2DC01CB019A87898712C088EC70
:1014B00090E09C878B878B859C858C01C801019768
:1014C000F1F78C011C870B8789859A8501979A878C
:1014D000898789859A85009751F716C06D817E812D
:1014E0008F819885EBD1DC01CB019A87898789852B
:1014F0009A859E878D878D859E858C01C801019771
:10150000F1F78C011E870D872E960FB6F894DEBF7B
:101510000FBECDBFCF91DF911F910F910895DF9343
:10152000CF9300D00F92CDB7DEB78B8319821A828A
:1015300080E074D119822BC08B81882F90E02981A3
:10154000222F30E047E050E0BA01621B730B9B0191
:10155000022E02C0959587950A94E2F781709070EB
:10156000882319F081E07AD102C080E077D181E050
:1015700055D18A81880F8A8391D1882319F08A8175
:1015800081608A8380E04AD189818F5F89838981E4
:10159000883090F28A810F900F900F90CF91DF9159
:1015A00008950F931F93DF93CF9300D000D000D006
:1015B000CDB7DEB79B838A837D836C834E8319828C
:1015C00017C08981882F90E02C813D818901080F07
:1015D000191F8981882F90E02A813B81820F931FF8
:1015E000FC0180819CDFF801808389818F5F898382
:1015F00099818E81981728F326960FB6F894DEBF4E
:101600000FBECDBFCF91DF911F910F910895DF9352
:10161000CF9300D000D0CDB7DEB79B838A836C8395
:1016200019820DC08981882F90E02A813B81820F29
:10163000931FFC01808173DF89818F5F898399818A
:101640008C81981778F30F900F900F900F90CF9197
:10165000DF910895DF93CF9300D0CDB7DEB78983B4
:101660006A8380E0BBD089818F71806258DF8A8174
:1016700056DF81E0B3D00F900F90CF91DF910895A6
:10168000DF93CF9300D000D0CDB7DEB789837B83C3
:101690006A834C8380E0A2D089818F7140DF8A8188
:1016A0009B812A813B81B9014C817BDF81E096D00F
:1016B0000F900F900F900F90CF91DF910895DF93CF
:1016C000CF9300D000D0CDB7DEB789837B836A8308
:1016D0004C8380E083D089818F71806220DF8A8192
:1016E0009B816C8194DF81E079D00F900F900F90F7
:1016F0000F90CF91DF910895DF93CF9300D000D06A
:10170000CDB7DEB78A836B834C838A819E012F5FBE
:101710003F4FB9014C81B4DF99818B81981711F447
:1017200081E001C080E00F900F900F900F90CF915B
:10173000DF910895DF93CF93CDB7DEB787E290E0D6
:1017400027E230E0F90120812160FC01208387E25B
:1017500090E027E230E0F90120812260FC01208343
:101760008AE290E02AE230E0F90120812E7FFC013C
:1017700020838AE290E02AE230E0F90120812260B1
:10178000FC0120838AE290E02AE230E0F901208126
:101790002061FC012083CF91DF910895DF93CF93E7
:1017A0000F92CDB7DEB789838981882351F088E213
:1017B00090E028E230E0F90120812160FC012083E3
:1017C00009C088E290E028E230E0F90120812E7F14
:1017D000FC0120830F90CF91DF910895DF93CF9389
:1017E0000F92CDB7DEB789838981882351F088E2D3
:1017F00090E028E230E0F90120812260FC012083A2
:1018000009C088E290E028E230E0F90120812D7FD4
:10181000FC0120830F90CF91DF910895DF93CF9348
:101820000F92CDB7DEB789838981882351F08BE28F
:1018300090E02BE230E0F90120812061FC0120835F
:1018400009C08BE290E02BE230E0F90120812F7E8D
:10185000FC0120830F90CF91DF910895DF93CF9308
:101860000F92CDB7DEB789838981882351F08BE24F
:1018700090E02BE230E0F90120812260FC0120831E
:1018800009C08BE290E02BE230E0F90120812D7F4E
:10189000FC0120830F90CF91DF910895DF93CF93C8
:1018A000CDB7DEB789E290E0FC0180818170CF91F5
:1018B000DF9108952FD008F481E0089557D088F083
:1018C0009F5790F0B92F9927B751A0F0D1F0660F2C
:1018D000771F881F991F1AF0BA95C9F712C0B13047
:1018E00081F05ED0B1E008955BC0672F782F882724
:1018F000B85F39F0B93FCCF3869577956795B39586
:10190000D9F73EF490958095709561957F4F8F4FF4
:101910009F4F0895990F0008550FAA0BE0E8FEEFBE
:1019200016161706E807F907C0F012161306E407A3
:10193000F50798F0621B730B840B950B39F40A269C
:1019400061F0232B242B252B21F408950A2609F47A
:10195000A140A6958FEF811D811D089557FD9058D8
:10196000440F551F59F05F3F71F04795880F97FB63
:10197000991F61F09F3F79F087950895121613061D
:101980001406551FF2CF4695F1DF08C0161617064C
:101990001806991FF1CF8695710561050894089581
:1019A000E894BB2766277727CB0197F90895B2DF24
:1019B00008F48FEF08950BD078C069D028F06ED06E
:1019C00018F0952309F05AC05FC01124EACFC6DF92
:1019D000A0F3959FD1F3950F50E0551F629FF00142
:1019E000729FBB27F00DB11D639FAA27F00DB11D9B
:1019F000AA1F649F6627B00DA11D661F829F222724
:101A0000B00DA11D621F739FB00DA11D621F839FAA
:101A1000A00D611D221F749F3327A00D611D231F80
:101A2000849F600D211D822F762F6A2F11249F57CE
:101A300050408AF0E1F088234AF0EE0FFF1FBB1FF1
:101A4000661F771F881F91505040A9F79E3F510590
:101A500070F014C0A6CF5F3FECF3983EDCF38695A0
:101A600077956795B795F795E7959F5FC1F7FE2B3B
:101A7000880F911D9695879597F9089597F99F6717
:101A800080E870E060E008959FEF80EC0895002406
:101A90000A941616170618060906089500240A94D3
:101AA00012161306140605060895092E0394000C59
:101AB00011F4882352F0BB0F40F4BF2B11F460FFE8
:101AC00004C06F5F7F4F8F4F9F4F0895EF92FF923B
:101AD0000F931F93CF93DF93689F8001699F100D31
:101AE000789F100D1124C80112D0E82EE7017E0165
:101AF000F92EE701209729F08E2D60E070E0A80113
:101B000092D17E01CE01CDB7DEB7E6E0B0C1CF9372
:101B1000DF938230910510F482E090E0E0919D0126
:101B2000F0919E0140E050E020E030E026C060816E
:101B3000718168177907E0F06817790781F482816D
:101B400093812115310531F0D90113969C938E9321
:101B500012972BC090939E0180939D0126C0411542
:101B6000510519F06417750718F4AB01E901DF019D
:101B70009F0172816381E72FF62F3097C1F64115DF
:101B8000510501F1481B590B4430510580F4129660
:101B90008D919C911397209719F09B838A8304C0A1
:101BA00090939E0180939D01FD01329646C0FD01F8
:101BB000E40FF51F819391934250504011965C932E
:101BC0004E933BC020919B0130919C012115310522
:101BD00041F4209163013091640130939C01209382
:101BE0009B0120916501309166012115310541F479
:101BF0002DB73EB74091610150916201241B350B16
:101C0000E0919B01F0919C01E217F307A0F42E1BD9
:101C10003F0B2817390778F0AC014E5F5F4F241750
:101C2000350748F04E0F5F1F50939C0140939B0176
:101C30008193919302C0E0E0F0E0CF01DF91CF917A
:101C40000895CF93DF93009709F491C0FC01329778
:101C50001382128260919D0170919E016115710540
:101C600081F420813181280F391F80919B0190914F
:101C70009C018217930799F5F0939C01E0939B01D7
:101C800076C0DB0180E090E002C0CD01D901AE1743
:101C9000BF0748F412962D913C91139721153105F9
:101CA000A1F7CD0121C0B383A283EF0149915991DE
:101CB0009E01240F351FA217B30779F42D913C9193
:101CC0001197240F351F2E5F3F4F318320831296CB
:101CD0002D913C91139733832283009729F4F0933D
:101CE0009E01E0939D0143C0DC011396FC93EE93AB
:101CF00012974D915D91A40FB51FEA17FB0769F488
:101D000020813181240F351F2E5F3F4FEC01398335
:101D10002883228133813B832A83E0E0F0E002C004
:101D2000FB01BC01DB0112968D919C9113970097EA
:101D3000B9F79B012E5F3F4F8D919C911197820FB8
:101D4000931F40919B0150919C014817590779F4CA
:101D5000309729F410929E0110929D0102C01382C7
:101D600012822250304030939C0120939B01DF91DE
:101D7000CF910895FC0188279927E894219120327A
:101D8000E9F3293010F02E30C8F32B3239F02D3220
:101D900031F4689403C057D0820F911D21912053D4
:101DA0002A30C8F31EF4909581959F4F0895FC0149
:101DB0004150504030F001900616D1F73197CF01D5
:101DC0000895882799270895FB01DC0102C001903E
:101DD0000D9241505040D8F708952115310511F169
:101DE0001F930F93240F351F680F791FFA0111916C
:101DF000AF01DC01A617B70780F40D910117D1F7E9
:101E0000CD01FA01E217F30750F4A617B70728F43B
:101E10000D9101900015B1F3ECCF81E090E00197B6
:101E20000F911F910895DC0101C06D934150504006
:101E3000E0F70895FC0101900020E9F78095909566
:101E40008E0F9F1F08957AE0979F902D879F802D7A
:101E5000910D112408952A88398848885F846E84FA
:101E60007D848C849B84AA84B984C884DF80EE80BE
:101E7000FD800C811B81AA81B981CE0FD11D0FB6C7
:101E8000F894DEBF0FBECDBFED010895F894FFCFEB
:101E90005455524E5F52454C41595F4F4E00545578
:101EA000524E5F52454C41595F4F4646004255499C
:101EB0004C545F494E5F4C45445F54455354005465
:101EC00055524E5F45564552595448494E475F4F0B
:101ED0004E005455524E5F45564552595448494E4E
:101EE000475F4F46460043414C4C5F4E5552534569
:101EF0000020009F01000000010161010E0101AB03
:101F0000011D0100F5012F0100B502420100E002B0
:101F10005601000B03D7D7D7D7D7E7E7E7E7E700A6
:00000001FF
