:100000000C9434000C9451000C9451000C94510049
:100010000C9451000C9451000C9451000C9451001C
:100020000C9451000C9451000C9451000C9451000C
:100030000C9451000C9451000C9451000C945100FC
:100040000C9451000C9451000C9422080C94510013
:100050000C94E8070C9451000C9451000C9451003E
:100060000C9451000C94510011241FBECFEFD8E026
:10007000DEBFCDBF12E0A0E0B1E0E8E5FCE102C0E8
:1000800005900D92A033B107D9F712E0A0E3B2E0DA
:1000900001C01D92A334B107E1F70E94CE030C9476
:1000A0002A0E0C940000DF93CF93CDB7DEB780917A
:1000B0003802882311F080E046C08CE190E061E0D6
:1000C00070E00E949F0990933102809330028CE18E
:1000D00090E061E070E00E949F099093330280936A
:1000E00032028CE190E061E070E00E949F09909301
:1000F00035028093340280E290E061E070E00E947B
:100100009F0990933702809336028091300290913C
:100110003102009791F08091320290913302009762
:1001200061F08091340290913502009731F0809116
:10013000360290913702009711F480E004C081E00C
:100140008093380281E0CF91DF9108950F931F9340
:10015000DF93CF93CDB7DEB72C970FB6F894DEBF01
:100160000FBECDBF98878F837A8769875C874B875F
:100170008F81988529853A85F90120813181B901DE
:100180000E94390B0F81188589859A85FC01808131
:1001900091810E94400B800F911F9A8389838B85E8
:1001A0009C85FC01808191810E94400B01962981F0
:1001B0003A81820F931F9C838B831D8241C089816A
:1001C0009A812BE5FC01208389819A8101962B85F8
:1001D0003C85F90120813181B9010E94390B8B8165
:1001E0009C812DE5FC0120838B819C8101969A8363
:1001F00089838D81282F30E089859A85FC01828151
:10020000882F90E0019728173907B9F08B859C85D6
:1002100002969C878B878B859C85FC0180819181D0
:100220000E94400B8E838E81882F90E00196298159
:100230003A81820F931F9C838B838D818F5F8D8387
:1002400089859A85FC0192818D81891708F4B7CF41
:1002500089819A81FC0110822C960FB6F894DEBF3A
:100260000FBECDBFCF91DF911F910F9108950F93D6
:100270001F93DF93CF93CDB7DEB760970FB6F89497
:10028000DEBF0FBECDBF9C878B877E876D87588B67
:100290004F8719824EC08981282F30E0C901880F0D
:1002A000991F880F991F820F931F885F9D4FFC0134
:1002B000008111818981282F30E0C901880F991FA1
:1002C000880F991F820F931F885F9D4FFC018081CB
:1002D00091810E94400B9C018B859C8560E270E0BF
:1002E000A8010E940C0B0097E1F08981282F30E0D3
:1002F0004D855E85C901880F991F880F991F820F50
:10030000931F9C01285F3D4FCA0145E0F901008021
:100310002F5F3F4FFC010082019641504423B1F70B
:100320000CC08981873011F480E075C089818F5FAE
:1003300089838981883008F4AECF1A8261C08B85A9
:100340009C856BE570E040E250E00E94F60A9C83D9
:100350008B838B859C856DE570E040E250E00E94C8
:10036000F60A9E838D838B819C81009721F08D817D
:100370009E81009731F48A81882309F04AC080E089
:100380004AC08B819C8120E2FC0120838D819E816B
:1003900020E2FC0120838B819C8101969C838B83CE
:1003A0002D813E818B819C81A901481B590BCA017B
:1003B000AA2797FDA095BA2F8F839887A987BA8718
:1003C0008F819885A985BA858D319105A105B105E3
:1003D00010F080E020C08A81882F90E0880F991F5C
:1003E000805D9D4FFC01808191812F8138854B81FB
:1003F0005C81BA01A9010E94030B8A818F5F8A8305
:100400008D859E85FC0192818A81891708F497CF9A
:1004100001C0000081E060960FB6F894DEBF0FBE09
:10042000CDBFCF91DF911F910F910895DF93CF93AF
:10043000CDB7DEB7CF91DF910895DF93CF93CDB7DE
:10044000DEB7CF91DF910895DF93CF93CDB7DEB7BD
:10045000CF91DF910895DF93CF93CDB7DEB7CF91E2
:10046000DF910895DF93CF9300D000D0CDB7DEB7F2
:1004700080913602909137024CE152E020E332E065
:10048000BA01A9010E94A60080913602909137021C
:100490000E94D20400000E94FF048823E1F70E941A
:1004A000290589838981882331F483E791E06DE10F
:1004B0000E94EF0608C08981813029F481E991E02A
:1004C0006DE10E94EF060E94BD048A838A81282F75
:1004D00030E000D000D000D08DB79EB701964B81A0
:1004E0005C81FC01518340834FEA51E0FC0153835E
:1004F0004283FC01358324830E94490B8DB79EB74C
:1005000006960FB6F8949EBF0FBE8DBF8B819C815F
:100510000E94400B282F8B819C81622F0E94EF0646
:100520000F900F900F900F90CF91DF910895DF9370
:10053000CF9300D000D0CDB7DEB780913602909136
:10054000370241E252E020E332E0BA01A9010E9401
:10055000A60080913602909137020E94D2040000DA
:100560000E94FF048823E1F70E942905898389817D
:10057000882331F483E791E06DE10E94EF0608C023
:100580008981813029F481E991E06DE10E94EF06D3
:100590000E94BD048A838A81282F30E000D000D0D9
:1005A00000D08DB79EB701964B815C81FC015183D1
:1005B00040834FEA51E0FC0153834283FC013583C1
:1005C00024830E94490B8DB79EB706960FB6F89408
:1005D0009EBF0FBE8DBF8B819C810E94400B282F38
:1005E0008B819C81622F0E94EF060F900F900F90DD
:1005F0000F90CF91DF910895DF93CF93CDB7DEB702
:100600008AEC91E06EE10E94EF06CF91DF910895B0
:100610000F931F93DF93CF93CDB7DEB72F970FB60E
:10062000F894DEBF0FBECDBF198297C08BE290E079
:100630002BE230E0F901308120E82327FC01208300
:1006400085E290E025E230E0F901308121E02327C6
:10065000FC01208380E090E0AAE7B3E48A839B83D7
:10066000AC83BD836A817B818C819D8120E030E0F9
:100670004AE755E40E941409DC01CB018E839F8375
:10068000A887B98711E06E817F818885998520E0F0
:1006900030E040E85FE30E94930888230CF010E00C
:1006A000112329F081E090E09B878A8746C011E002
:1006B0006E817F818885998520E03FEF4FE757E481
:1006C0000E94100918160CF010E0112361F16A81E4
:1006D0007B818C819D8120E030E040E251E40E94EA
:1006E0001409DC01CB01BC01CD010E949708DC019B
:1006F000CB019B878A8712C080E991E09D878C8718
:100700008C859D858C01C8010197F1F78C011D87AF
:100710000C878A859B8501979B878A878A859B851D
:10072000009751F717C06E817F81888599850E9457
:100730009708DC01CB019B878A878A859B859F87E9
:100740008E878E859F858C01F8013197F1F78F0197
:100750001F870E8789818F5F89838981883008F49C
:1007600065CF8BE290E02BE230E0F90120812F771A
:10077000FC01208385E290E025E230E0F901208150
:100780002E7FFC0120832F960FB6F894DEBF0FBE9C
:10079000CDBFCF91DF911F910F9108950F931F93BC
:1007A000DF93CF93CDB7DEB72F970FB6F894DEBFA8
:1007B0000FBECDBF78940E94C3060E949E0419828A
:1007C000AAC08FEE91E00E94400B282F8FEE91E09F
:1007D000622F0E94EF0686E290E0FC018081882F64
:1007E00090E080729070009751F08BE290E02BE2E5
:1007F00030E0F90120812068FC01208309C08BE2F0
:1008000090E02BE230E0F90120812F77FC0120837A
:1008100080E090E0AAE7B4E48A839B83AC83BD8345
:100820006A817B818C819D8120E030E04AE755E43C
:100830000E941409DC01CB018E839F83A887B987AE
:1008400011E06E817F818885998520E030E040E865
:100850005FE30E94930888230CF010E0112329F035
:1008600081E090E09B878A8746C011E06E817F819E
:100870008885998520E03FEF4FE757E40E941009F3
:1008800018160CF010E0112361F16A817B818C81D4
:100890009D8120E030E040E251E40E941409DC0137
:1008A000CB01BC01CD010E949708DC01CB019B87E5
:1008B0008A8712C080E991E09D878C878C859D8511
:1008C0008C01C8010197F1F78C011D870C878A857F
:1008D0009B8501979B878A878A859B85009751F71F
:1008E00017C06E817F81888599850E949708DC01F9
:1008F000CB019B878A878A859B859F878E878E857C
:100900009F858C01F8013197F1F78F011F870E87C2
:1009100089818F5F89838981843608F452CF0E9450
:100920007307000090913E0281E089278823D1F768
:100930000E94A8070E9473070000F4CFDF93CF93B3
:10094000CDB7DEB78AE290E02EEFFC01208384E28F
:1009500090E029E2FC01208387E290E02FEDFC018A
:1009600020838BE290E02BE230E0F90120812B7FA5
:10097000FC012083CF91DF910895DF93CF930F92F5
:10098000CDB7DEB788E09E012F5F3F4FB90141E050
:100990000E94140689818F70898389810F90CF917D
:1009A000DF910895DF93CF9300D0CDB7DEB79A8360
:1009B000898380E00E9437060E94480580E00E94FB
:1009C000570681EE0E94570581E00E94570680E09D
:1009D0000E94570680EA0E945705209139028981BA
:1009E0009A81622F0E94D60581E00E94570681E01D
:1009F0000E9437060F900F90CF91DF910895DF93FB
:100A0000CF930F92CDB7DEB70E94150589838981F8
:100A1000882F90E080739070009711F080E001C003
:100A200081E00F90CF91DF910895DF93CF930F92E4
:100A3000CDB7DEB780E00E9457068FEF0E945705C2
:100A4000898381E00E94570689810F90CF91DF91C1
:100A50000895DF93CF930F92CDB7DEB70E941505AF
:100A600089838981882F90E080729070009711F0BF
:100A700080E00AC08981882F90E080719070009793
:100A800011F081E001C08FEF0F90CF91DF910895B9
:100A9000DF93CF93CDB7DEB787E060E70E94FA051A
:100AA00080E06AE00E94FA05CF91DF910895DF931C
:100AB000CF9300D00F92CDB7DEB78B8319821A8205
:100AC00080E00E947706198230C08B81882F90E0E9
:100AD0002981222F30E047E050E0BA01621B730BFE
:100AE0009B01022E02C0959587950A94E2F78170CA
:100AF0009070882321F081E00E94970603C080E077
:100B00000E94970681E00E9477068A81880F8A8377
:100B10000E94B706882319F08A8181608A8380E069
:100B20000E94770689818F5F89838981883068F286
:100B30008A810F900F900F90CF91DF9108950F93BE
:100B40001F93DF93CF9300D000D000D0CDB7DEB796
:100B50009B838A837D836C834E83198218C089812D
:100B6000882F90E02C813D818901080F191F898110
:100B7000882F90E02A813B81820F931FFC018081A6
:100B80000E945705F801808389818F5F898399814D
:100B90008E81981720F326960FB6F894DEBF0FBE0D
:100BA000CDBFCF91DF911F910F910895DF93CF9328
:100BB00000D000D0CDB7DEB79B838A836C831982C7
:100BC0000EC08981882F90E02A813B81820F931F7C
:100BD000FC0180810E94570589818F5F89839981FB
:100BE0008C81981770F30F900F900F900F90CF910A
:100BF000DF910895DF93CF9300D0CDB7DEB789831F
:100C00006A8380E00E94570689818F7180620E940A
:100C100057058A810E94570581E00E9457060F9070
:100C20000F90CF91DF910895DF93CF9300D000D044
:100C3000CDB7DEB789837B836A834C8380E00E94D3
:100C4000570689818F710E9457058A819B812A816D
:100C50003B81B9014C810E949F0581E00E945706AB
:100C60000F900F900F900F90CF91DF910895DF9329
:100C7000CF930F92CDB7DEB789838981882351F056
:100C800088E290E028E230E0F90120812160FC0157
:100C9000208309C088E290E028E230E0F901208159
:100CA0002E7FFC0120830F90CF91DF910895DF9379
:100CB000CF930F92CDB7DEB789838981882351F016
:100CC00088E290E028E230E0F90120812260FC0116
:100CD000208309C088E290E028E230E0F901208119
:100CE0002D7FFC0120830F90CF91DF910895DF933A
:100CF000CF930F92CDB7DEB789838981882351F0D6
:100D000088E290E028E230E0F90120812460FC01D3
:100D1000208309C088E290E028E230E0F9012081D8
:100D20002B7FFC0120830F90CF91DF910895DF93FB
:100D3000CF930F92CDB7DEB789838981882351F095
:100D400088E290E028E230E0F90120812860FC018F
:100D5000208309C088E290E028E230E0F901208198
:100D6000277FFC0120830F90CF91DF910895DF93BF
:100D7000CF93CDB7DEB786E290E0FC018081807131
:100D8000CF91DF910895DF93CF93CDB7DEB785EC98
:100D900090E0FC01108284EC90E02FECFC012083B9
:100DA00080EC90E020EC30E0F90120812260FC0131
:100DB000208382EC90E022EC30E0F9012081266073
:100DC000FC0120830E9453008091360290913702EB
:100DD00090933B0280933A02CF91DF910895DF9385
:100DE000CF9300D00F92CDB7DEB79A8389836B8300
:100DF000000080EC90E0FC018081882F90E0807200
:100E000090700097B1F380913602909137029093E1
:100E10003B0280933A0220913602309137028B8157
:100E2000882F90E0820F931F90933D0280933C02A5
:100E300080913602909137022B81222F30E0498138
:100E40005A81BA01A9010E94030B80EC90E020ECCA
:100E500030E0F9012081206CFC01208381EC90E0DE
:100E600021EC30E0F90120812864FC01208381EC31
:100E700090E021EC30E0F90120812F76FC01208305
:100E800080913A0290913B02019690933B028093AD
:100E90003A0286EC90E02091360230913702F90157
:100EA0002081FC01208300000E945E078823E1F777
:100EB0000F900F900F90CF91DF910895DF93CF9314
:100EC000CDB7DEB720913A0230913B0280913C02CF
:100ED00090913D022817390711F081E001C080E0B0
:100EE000CF91DF910895DF93CF93CDB7DEB70000A8
:100EF00080EC90E0FC018081882F90E080729070FF
:100F00000097B1F3809136029091370290933B02A3
:100F100080933A0280EC90E020EC30E0F9012081EF
:100F2000206CFC01208381EC90E021EC30E0F901A1
:100F30002081277BFC01208381EC90E021EC30E0D4
:100F4000F90120812069FC012083CF91DF91089570
:100F5000DF93CF9300D000D000D0CDB7DEB7109292
:100F60003E028091360290913702AE014E5F5F4F94
:100F700020E332E0BA01A9010E9437018983898107
:100F8000882321F08D819E81FC01099526960FB65C
:100F9000F894DEBF0FBECDBFCF91DF910895DF93F0
:100FA000CF93CDB7DEB781EC90E021EC30E0F901D2
:100FB0002081277BFC01208381EC90E021EC30E054
:100FC000F90120812F76FC012083CF91DF910895D4
:100FD0001F920F920FB60F9211242F933F938F936E
:100FE0009F93EF93FF93DF93CF93CDB7DEB720911D
:100FF0003A0230913B0280913C0290913D022817C9
:10100000390799F086EC90E020913A0230913B024A
:10101000F9012081FC01208380913A0290913B02EA
:10102000019690933B0280933A02CF91DF91FF911A
:10103000EF919F918F913F912F910F900FBE0F9045
:101040001F9018951F920F920FB60F9211242F9395
:101050003F934F935F936F937F938F939F93AF9340
:10106000BF93EF93FF93DF93CF93CDB7DEB780911C
:101070003602909137029C01205E3F4F80913A02E8
:1010800090913B022817390799F180913A0290918B
:101090003B0226EC30E0F9012081FC0120838091A5
:1010A0003A0290913B02FC0180818432D9F0809118
:1010B0003A0290913B02FC0180818F3251F0809185
:1010C0003A0290913B02019690933B0280933A0240
:1010D00017C0809136029091370290933B02809323
:1010E0003A020EC00E94CF0781E080933E0208C002
:1010F000809136029091370290933B0280933A029E
:10110000CF91DF91FF91EF91BF91AF919F918F911F
:101110007F916F915F914F913F912F910F900FBEF3
:101120000F901F9018952FD008F481E0089557D0A4
:1011300088F09F5790F0B92F9927B751A0F0D1F0C0
:10114000660F771F881F991F1AF0BA95C9F712C04A
:10115000B13081F05ED0B1E008955BC0672F782F89
:101160008827B85F39F0B93FCCF3869577956795B6
:10117000B395D9F73EF490958095709561957F4F22
:101180008F4F9F4F0895990F0008550FAA0BE0E865
:10119000FEEF16161706E807F907C0F01216130639
:1011A000E407F50798F0621B730B840B950B39F479
:1011B0000A2661F0232B242B252B21F408950A26DF
:1011C00009F4A140A6958FEF811D811D089557FD5B
:1011D0009058440F551F59F05F3F71F04795880FA5
:1011E00097FB991F61F09F3F79F08795089512163C
:1011F00013061406551FF2CF4695F1DF08C01616E8
:1012000017061806991FF1CF869571056105089498
:101210000895E894BB2766277727CB0197F90895AF
:10122000B2DF08F48FEF08950BD078C069D028F0B2
:101230006ED018F0952309F05AC05FC01124EACF90
:10124000C6DFA0F3959FD1F3950F50E0551F629F25
:10125000F001729FBB27F00DB11D639FAA27F00D0F
:10126000B11DAA1F649F6627B00DA11D661F829F36
:101270002227B00DA11D621F739FB00DA11D621F1B
:10128000839FA00D611D221F749F3327A00D611D38
:10129000231F849F600D211D822F762F6A2F11241A
:1012A0009F5750408AF0E1F088234AF0EE0FFF1F6D
:1012B000BB1F661F771F881F91505040A9F79E3FA4
:1012C000510570F014C0A6CF5F3FECF3983EDCF3FD
:1012D000869577956795B795F795E7959F5FC1F7E1
:1012E000FE2B880F911D9695879597F9089597F98C
:1012F0009F6780E870E060E008959FEF80EC0895BC
:1013000000240A94161617061806090608950024E4
:101310000A9412161306140605060895092E03945E
:10132000000C11F4882352F0BB0F40F4BF2B11F4D2
:1013300060FF04C06F5F7F4F8F4F9F4F0895EF9204
:10134000FF920F931F93CF93DF93689F8001699F54
:10135000100D789F100D1124C8010E94C309E82EBA
:10136000E7017E01F92EE701209731F08E2D60E034
:1013700070E0A8010E94320B7E01CE01CDB7DEB72E
:10138000E6E00C941B0ECF93DF938230910510F4AE
:1013900082E090E0E0914102F091420240E050E0B2
:1013A00020E030E026C06081718168177907E0F0A5
:1013B0006817790781F4828193812115310531F015
:1013C000D90113969C938E9312972BC0909342024F
:1013D0008093410226C04115510519F06417750725
:1013E00018F4AB01E901DF019F0172816381E72FEE
:1013F000F62F3097C1F64115510501F1481B590BE5
:101400004430510580F412968D919C91139720974A
:1014100019F09B838A8304C0909342028093410217
:10142000FD01329646C0FD01E40FF51F81939193B3
:101430004250504011965C934E933BC020913F0226
:10144000309140022115310541F42091EB0130919A
:10145000EC013093400220933F022091ED01309146
:10146000EE012115310541F42DB73EB74091E90158
:101470005091EA01241B350BE0913F02F0914002AC
:10148000E217F307A0F42E1B3F0B2817390778F05B
:10149000AC014E5F5F4F2417350748F04E0F5F1FBA
:1014A0005093400240933F028193919302C0E0E049
:1014B000F0E0CF01DF91CF910895CF93DF930097B4
:1014C00009F491C0FC0132971382128260914102AB
:1014D000709142026115710581F420813181280FDC
:1014E000391F80913F02909140028217930799F52E
:1014F000F0934002E0933F0276C0DB0180E090E091
:1015000002C0CD01D901AE17BF0748F412962D9144
:101510003C91139721153105A1F7CD0121C0B3836B
:10152000A283EF01499159919E01240F351FA21703
:10153000B30779F42D913C911197240F351F2E5F3D
:101540003F4F3183208312962D913C911397338323
:101550002283009729F4F0934202E093410243C0B2
:10156000DC011396FC93EE9312974D915D91A40FBD
:10157000B51FEA17FB0769F420813181240F351F5D
:101580002E5F3F4FEC0139832883228133813B83D7
:101590002A83E0E0F0E002C0FB01BC01DB0112960F
:1015A0008D919C9113970097B9F79B012E5F3F4F48
:1015B0008D919C911197820F931F40913F02509102
:1015C00040024817590779F4309729F410924202E3
:1015D0001092410202C01382128222503040309396
:1015E000400220933F02DF91CF910895FC014150CA
:1015F000504030F001900616D1F73197CF01089591
:10160000882799270895FB01DC0102C001900D9203
:1016100041505040D8F708952115310511F11F931D
:101620000F93240F351F680F791FFA011191AF0135
:10163000DC01A617B70780F40D910117D1F7CD0192
:10164000FA01E217F30750F4A617B70728F40D9133
:1016500001900015B1F3ECCF81E090E001970F917C
:101660001F910895DC0101C06D9341505040E0F797
:101670000895FB01DC0101900D920020E1F708952F
:10168000FC0101900020E9F7809590958E0F9F1F37
:101690000895AEE0B0E0EFE4FBE00C94010E0D899C
:1016A0001E8986E08C831A8309838FEF9FE79E83D0
:1016B0008D839E01275E3F4FCE0101966F89788D05
:1016C000A9010E946C0BEF81F885E00FF11F1082D9
:1016D0002E96E4E00C941D0EACE0B0E0E2E7FBE0F7
:1016E0000C94F30D6C011B018A01FC011782168218
:1016F000838181FFD1C12E010894411C511CF60148
:101700009381F10193FD859193FF81911F018823BE
:1017100009F4BEC1853239F493FD859193FF81911F
:101720001F01853229F490E0B6010E94690DE7CFD0
:10173000EE24FF2420E02032B0F48B3269F08C32AA
:1017400028F4803251F0833271F40BC08D3239F0BD
:10175000803349F421602CC02260246029C02860B5
:1017600027C0206125C027FD2CC0382F30533A30C8
:1017700098F426FF08C08E2D880FE82EEE0CEE0C94
:10178000E80EE30E15C08F2D880FF82EFF0CFF0C0E
:10179000F80EF30E20620CC08E3221F426FD78C1C3
:1017A000206406C08C3611F4206802C0883649F4E3
:1017B000F10193FD859193FF81911F01882309F029
:1017C000BACF982F9554933018F09052933028F454
:1017D0000C5F1F4FFFE3F9830DC0833631F0833771
:1017E00071F0833509F060C022C0F80180818983DF
:1017F0000E5F1F4F420171E0A72EB12C16C062E0B0
:10180000662E712C600E711EF8018080918026FF7B
:1018100003C06E2D70E002C06FEF7FEFC4012C8714
:101820000E945E0D5C0183012C852F7717C052E06A
:10183000652E712C600E711EF8018080918026FF4C
:1018400003C06E2D70E002C06FEF7FEFC4012C87E4
:101850000E94530D5C012C852068830123FD20C06C
:1018600008C080E290E0B6012C870E94690DFA94CE
:101870002C858F2D90E0A816B90698F311C0F401BD
:1018800027FD859127FF81914F0190E0B6012C87BC
:101890000E94690D2C85F110FA940894A108B108F2
:1018A000A114B10461F7F1C0843611F0893649F50D
:1018B00027FF08C0F80160817181828193810C5FEC
:1018C0001F4F09C0F80160817181882777FD8095DD
:1018D000982F0E5F1F4F4FE6B42EB22297FF09C01C
:1018E00090958095709561957F4F8F4F9F4FF0E851
:1018F000BF2AA2012AE030E00E94950D782E7418CC
:1019000045C0853731F43FEEB32EB2222AE030E0F5
:1019100025C099EFB92EB2228F36C1F0803720F45E
:10192000883509F0B5C00DC0803721F0883709F03F
:10193000AFC002C020E1B22AB4FE0BC084E0B82AD6
:1019400008C0B4FE09C0E6E0BE2A06C028E030E0C8
:1019500005C020E130E002C020E132E0B7FE08C05F
:10196000F80160817181828193810C5F1F4F07C0F4
:10197000F8016081718180E090E00E5F1F4FA2014D
:101980000E94950D782E7418FFE7BF22B6FE0BC09B
:101990002EEFB2227E1438F4B4FE07C0B2FC05C0AC
:1019A0008FEEB82202C0A72C01C0AE2C8B2D90E088
:1019B000B4FE0DC0FE01E70DF11D2081203319F4A6
:1019C000E9EEBE2209C0A394B2FE06C004C0867828
:1019D0009070009709F0A3948B2C9924B3FC14C049
:1019E000B0FE0FC0AF1428F4E72CEF0CEA18AF2CB0
:1019F00008C0E72C06C080E290E0B6010E94690DA5
:101A0000A394AF14C0F304C0AF1410F4FA1801C0CB
:101A1000FF2484FE0FC080E390E0B6010E94690DB0
:101A200082FE1FC081FE03C088E590E010C088E7F9
:101A300090E00DC0C40186789070009791F081FC11
:101A400002C080E201C08BE2B7FC8DE290E0B601FB
:101A50000E94690D06C080E390E0B6010E94690D06
:101A6000EA947E14C0F37A94F201E70DF11D8081AF
:101A700090E0B6010E94690D7720A9F706C080E2C8
:101A800090E0B6010E94690DFA94FF20C1F737CEAD
:101A9000F6012681378102C02FEF3FEFC9012C9656
:101AA000E2E10C940F0EFC010590615070400110B2
:101AB000D8F7809590958E0F9F1F0895FC01615077
:101AC000704001900110D8F7809590958E0F9F1F60
:101AD00008950F931F93CF93DF938C01EB018B81BC
:101AE00081FF1BC082FF0DC02E813F818C819D81B3
:101AF0002817390764F4E881F9810193F983E883B1
:101B000006C0E885F985802F0995009731F48E810C
:101B10009F8101969F838E8302C00FEF1FEFC80144
:101B2000DF91CF911F910F910895FA01AA272830D4
:101B300051F1203181F1E8946F936E7F6E5F7F4F9A
:101B40008F4F9F4FAF4FB1E03ED0B4E03CD0670F16
:101B5000781F891F9A1FA11D680F791F8A1F911D69
:101B6000A11D6A0F711D811D911DA11D20D009F4B9
:101B700068943F912AE0269F11243019305D3193FB
:101B8000DEF6CF010895462F4770405D4193B3E0E4
:101B90000FD0C9F7F6CF462F4F70405D4A3318F08B
:101BA000495D31FD4052419302D0A9F7EACFB4E03C
:101BB000A6959795879577956795BA95C9F70097F4
:101BC0006105710508959B01AC010A2E0694579595
:101BD000479537952795BA95C9F7620F731F841FEC
:101BE000951FA01D08952F923F924F925F926F9282
:101BF0007F928F929F92AF92BF92CF92DF92EF929D
:101C0000FF920F931F93CF93DF93CDB7DEB7CA1B1D
:101C1000DB0B0FB6F894DEBF0FBECDBF09942A8848
:101C2000398848885F846E847D848C849B84AA84F0
:101C3000B984C884DF80EE80FD800C811B81AA817D
:101C4000B981CE0FD11D0FB6F894DEBF0FBECDBF48
:081C5000ED010895F894FFCFA7
:101C5800524F544154455F464F52574152445300E6
:101C6800524F544154455F4241434B5741524453AC
:101C7800005455524E5F4C45445F4F4E00545552E8
:101C88004E5F4C45445F4F4646005455524E5F5296
:101C9800454C41595F4F4E005455524E5F52454C8A
:101CA80041595F4F464600554152545F544553547D
:101CB800004255494C545F494E5F4C45445F54457A
:101CC8005354005375636365737366756C2052468D
:101CD800207472616E736D697373696F6E21200A67
:101CE800004661696C757265206F6E2052462074DB
:101CF80072616E736D697373696F6E21200A005289
:101D0800657472616E736D697373696F6E20636F4A
:101D1800756E743A202564200A00537563636573F1
:101D28007366756C2055415254207472616E736DE0
:101D3800697373696F6E210A002000430200005521
:101D48004152542054455354494E4720434F4D4D1A
:101D5800414E445321200A000001031602100101DC
:101D68001D0221010124022D01012B023A01013239
:101D7800024801019702570100FC026101000803B3
:00000001FF
