S01B0000506C616361206D6F7472697A20636F6469676F2E73726563CE
S11300000C9434000C943E000C943E000C943E007E
S11300100C943E000C943E000C943E000C943E0064
S11300200C943E000C943E000C943E000C943E0054
S11300300C943E000C943E000C943E000C943E0044
S11300400C943E000C943E000C943E000C943E0034
S11300500C943E000C943E000C943E000C943E0024
S11300600C943E000C943E0011241FBECFEFD8E048
S1130070DEBFCDBF0E9407010C9443010C94000025
S11300808FEF8AB98FE284B98FED87B9089584E13F
S1130090E3E036E02CE099E0EBB94FEF54E36CE099
S11300A0415050406040E1F700C000003BB94FEFC1
S11300B054E36CE0415050406040E1F700C0000060
S11300C02BB94FEF54E36CE0415050406040E1F7EE
S11300D000C000009BB94FEF54E36CE04150504026
S11300E06040E1F700C000008150B1F6ECE036E07A
S11300F023E099E0EBB94FEF54E36CE041505040FA
S11301006040E1F700C000003BB94FEF54E36CE0FE
S1130110415050406040E1F700C000002BB94FEF60
S113012054E36CE0415050406040E1F700C00000EF
S11301309BB94FEF54E36CE0415050406040E1F70D
S113014000C000008F5F8431A9F61BB8089584E1D4
S1130150E0E330E620EC90E9EBB94FEF54E36CE0D8
S1130160415050406040E1F700C000003BB94FEF00
S113017054E36CE0415050406040E1F700C000009F
S11301802BB94FEF54E36CE0415050406040E1F72D
S113019000C000009BB94FEF54E36CE04150504065
S11301A06040E1F700C000008150B1F6E0EC30E6B9
S11301B020E390E9EBB94FEF54E36CE04150504039
S11301C06040E1F700C000003BB94FEF54E36CE03E
S11301D0415050406040E1F700C000002BB94FEFA0
S11301E054E36CE0415050406040E1F700C000002F
S11301F09BB94FEF54E36CE0415050406040E1F74D
S113020000C000008F5F8431A9F61BB80895EF92F7
S1130210FF920F931F930E94400080E0EE24E3942A
S1130220FF246894F1F804E010E025C095B19E2500
S113023095B92FE73AE146E0215030404040E1F7DC
S113024000C0000095B19F2595B92FE73AE146E03B
S1130250215030404040E1F700C0000095B19027A4
S113026095B92FE73AE146E0215030404040E1F7AC
S113027000C000008F5F8630C8F20E9447000E94D1
S10D0280A700812FF8CFF894FFCFF8
S9030000FC
