:1000000096C0B1C0EAC0AEC0ADC0ACC0ABC0AAC063
:10001000A9C0A8C0A7C0A6C0A5C0A4C018C1A2C03E
:10002000A1C0A0C001C49EC0D0C39CC09BC09AC048
:1000300099C098C000407A10F35A00A0724E180977
:100040000010A5D4E80000E87648170000E40B543F
:10005000020000CA9A3B000000E1F505000080960E
:100060009800000040420F000000A0860100000040
:10007000102700000000E8030000000064000000FA
:1000800000000A00000000000100000000002C76C3
:10009000D888DC674F0823DFC1DFAE59E1B1B796DE
:1000A000E5E3E453C63AE651997696E8E6C284263B
:1000B000EB898C9B62ED407C6FFCEFBC9C9F40F217
:1000C000BAA56FA5F490055A2AF75C936B6CF96793
:1000D0006DC11BFCE0E40D47FEF520E6B500D0ED58
:1000E000902E0300943577050080841E08000020C0
:1000F0004E0A000000C80C333333330F986E12835E
:100100001141EF8D2114893BE65516CFFEE6DB1831
:10011000D1844B381BF77C1D901DA4BBE4242032F6
:1001200084725E228100C9F124ECA1E53D271124EF
:100130001FBECFEFD4E0DEBFCDBF12E0A0E0B1E044
:10014000E8E9F2E102C005900D92A433B107D9F7B6
:1001500023E0A4E3B2E001C01D92A734B207E1F7A7
:1001600017D298C84DCF1F920F920FB60F9211243D
:100170008F939F93EF93FF9380914002813041F4DE
:100180004A9B03C015BC16BC1FC085E085BD1CC0C2
:100190008091840090918500892B31F4E1E8F0E0B2
:1001A00080818260808310C0E1E8F0E080818D7FF3
:1001B0008083E4E8F0E0808191819093370280931E
:1001C0003602118210821DBAFF91EF919F918F919B
:1001D0000F900FBE0F901F9018951F920F920FB6A1
:1001E0000F9211248F939F93EF93FF93809140027E
:1001F000813041F44B9B03C015BC16BC1FC085E089
:1002000085BD1CC08091840090918500892B31F4BC
:10021000E1E8F0E080818260808310C0E1E8F0E0F6
:1002200080818D7F8083E4E8F0E0808191819093EC
:10023000370280933602118210821DBAFF91EF912E
:100240009F918F910F900FBE0F901F9018951F9246
:100250000F920FB60F9211248F938091400281303C
:1002600031F482E0809340021DBA15BC16BC8F9118
:100270000F900FBE0F901F90189588B18E7F88B990
:1002800088B988B18D7F88B988B981E387B9EEE7ED
:10029000F0E080818E7F80832FE738E381E021507A
:1002A00030408040E1F700C0000090E397B98081C2
:1002B000816080832FE73AE186E021503040804022
:1002C000E1F700C0000082E387B980818D7F8083E1
:1002D0002FE738E381E0215030408040E1F700C053
:1002E000000097B980818260808308954F925F9269
:1002F0006F927F928F929F92AF92BF92CF92DF9236
:10030000EF92FF920F931F93CF93DF93CDB7DEB79A
:100310002C970FB6F894DEBF0FBECDBF6B017C01EA
:1003200020911B0130911C0140911D0150911E0133
:1003300036D388235CF10BE611E08BE191E09A87DC
:1003400089870EC0A985BA85A356B14049F4D80162
:100350002D913D914D915C91C701B60173D479C047
:10036000A7019601E985FA85648175818681978167
:1003700065D418168CF089859A8504969A878987A2
:100380000C5F1F4F87569140E9F606C007E611E063
:10039000E7E1F1E0FA87E987D80114968D919D9104
:1003A0000D90BC91A02D89839A83AB83BC83D80127
:1003B0008D919D910D90BC91A02D8D839E83AF83D7
:1003C000B887E985FA85448055806680778080808B
:1003D0009180A280B380A5019401C301B2017AD2B9
:1003E00069877A878B879C87A30192016D817E81C3
:1003F0008F81988527D42B013C01A5019401698147
:100400007A818B819C811ED49B01AC01C301B20116
:1004100061D229853A854B855C85C5D24B015C014B
:100420002D813E814F81588569817A818B819C81A4
:1004300051D229853A854B855C85B5D2A7019601B5
:1004400001D49B01AC01C501B40145D2A7019601BD
:10045000F9D32C960FB6F894DEBF0FBECDBFDF9157
:10046000CF911F910F91FF90EF90DF90CF90BF90B1
:10047000AF909F908F907F906F905F904F90089576
:1004800040914403262F30E0240F311D20383105E0
:1004900024F040934303109244032091440330E03E
:1004A0002F5B3D4F3093420320934103662379F045
:1004B000A82FB92F80E090E02D91E0914103F091B9
:1004C0004203E80FF91F208301968617A8F3809155
:1004D0004403680F609344038091C00085FF0CC003
:1004E000E091450381E08E0F80934503F0E0EF5BE0
:1004F000FD4F80818093C600909145038091440315
:100500009813FECF0895CF93DF93C1ECD0E088819C
:100510008864888388818F7688836EE08BEC91E095
:10052000AFDF61E085E191E0ABDF60E185EE91E076
:10053000A7DF61E085E191E0A3DF69E18FEF91E062
:100540009FDF61E085E191E09BDF6FE089E192E070
:1005500097DF61E084E191E093DF8FE19EE4019712
:10056000F1F700C000008881806988838881877BDB
:1005700088839FE72AE186E0915020408040E1F7A0
:1005800000C0000088818F768883DF91CF91089525
:10059000CF93DF9300D000D0CDB7DEB77894109220
:1005A000C50087E68093C40082E08093C000E2EC3F
:1005B000F0E0808186608083E1ECF0E080818864F7
:1005C000808380818F76808385B7806185BFECE7EB
:1005D000F0E0808180648083EEE7F0E080818360DA
:1005E0008083EAE7F0E080818768808382EF8AB9C0
:1005F00080E387B91BB888B90F2EFCE7EF2EF12CEA
:10060000F02D0F2EF8E7CF2ED12CF02D0F2EF0E08D
:100610006F2EF1E07F2EF02D1092350210923402F1
:10062000E4E8F0E01182108216BC109237021092BA
:10063000360210923C0210923D0210923E0210923D
:100640003F02109238021092390210923A02109230
:100650003B0200EB14E0F70180818E7F8083EAE7A4
:10066000F0E0808180648083EAE7F0E0808186FDAD
:10067000FBCFF6016081718180E090E02DD22AE00D
:1006800038E240EA5BE3DED29B01AC0160913C02C0
:1006900070913D0280913E0290913F021CD1609387
:1006A0003C0270933D0280933E0290933F020150C2
:1006B000110989F600EB14E0F701808181608083E5
:1006C000EAE7F0E0808180648083EAE7F0E08081FF
:1006D00086FDFBCFF6016081718180E090E0FCD166
:1006E0002AE038E240EA5BE3ADD220913802309153
:1006F000390240913A0250913B02EDD04B015C012E
:10070000609338027093390280933A0290933B02CF
:100710000150110989F620E030E046E954E4609187
:100720003C0270913D0280913E0290913F023BD18C
:1007300069837A838B839C8320E030E046E954E42C
:10074000C501B40130D11B012C01609338027093B4
:10075000390280933A0290933B02F3012089318958
:100760004289538969817A818B819C816BD24B014B
:100770005C0160933C0270933D0280933E02909333
:100780003F02C201B101B2DD6093380270933902B9
:1007900080933A0290933B02C501B4016CD1DC0115
:1007A000CB014AE064ED71E0DCD2609138027091D7
:1007B000390280913A0290913B020EEE11E023E063
:1007C00045E0A3D25ADD9FDE27CF1F920F920FB6CE
:1007D0000F9211248F939F93EF93FF938091450382
:1007E00090914303891711F088232CF4109245034C
:1007F0008FE780934303E091450380914403E8171A
:1008000051F081E08E0F80934503F0E0EF5BFD4FE8
:1008100080818093C600FF91EF919F918F910F90FF
:100820000FBE0F901F9018951F920F920FB60F9248
:1008300011242F933F934F935F936F937F938F93E5
:100840009F93AF93BF93CF93DF93EF93FF93209149
:100850004603822F90E00196803891051CF010929B
:10086000460303C02F5F20934603C0914603D0E0A8
:100870008091C600FE01EF53FD4F80838432B9F4AE
:100880004AE050E0BE0168547D4F87EB91E05CD2B6
:10089000892B11F445980BC0BE0167547D4F49E088
:1008A00050E081EC91E050D2892B09F4459AFF91F8
:1008B000EF91DF91CF91BF91AF919F918F917F91F8
:1008C0006F915F914F913F912F910F900FBE0F90BD
:1008D0001F9018955058BB27AA270ED075C166D116
:1008E00030F06BD120F031F49F3F11F41EF45BC166
:1008F0000EF4E095E7FB51C1E92F77D180F3BA17E9
:10090000620773078407950718F071F49EF58FC18D
:100910000EF4E0950B2EBA2FA02D0B01B90190011A
:100920000C01CA01A0011124FF27591B99F0593F5E
:1009300050F4503E68F11A16F040A22F232F342FA6
:100940004427585FF3CF469537952795A795F040F4
:100950005395C9F77EF41F16BA0B620B730B840B09
:10096000BAF09150A1F0FF0FBB1F661F771F881FC1
:10097000C2F70EC0BA0F621F731F841F48F4879519
:1009800077956795B795F7959E3F08F0B3CF939508
:10099000880F08F09927EE0F979587950895D9D07D
:1009A00008F481E008950CD00FC107D140F0FED0CB
:1009B00030F021F45F3F19F0F0C0511139C1F3C09C
:1009C00014D198F39923C9F35523B1F3951B550B13
:1009D000BB27AA2762177307840738F09F5F5F4F12
:1009E000220F331F441FAA1FA9F333D00E2E3AF053
:1009F000E0E830D091505040E695001CCAF729D06D
:100A0000FE2F27D0660F771F881FBB1F26173707BB
:100A10004807AB07B0E809F0BB0B802DBF01FF27EB
:100A200093585F4F2AF09E3F510568F0B6C000C151
:100A30005F3FECF3983EDCF3869577956795B79525
:100A4000F7959F5FC9F7880F911D9695879597F940
:100A50000895E1E0660F771F881FBB1F62177307B9
:100A60008407BA0720F0621B730B840BBA0BEE1FCE
:100A700088F7E095089504D06894B111D9C008951D
:100A8000BCD088F09F5790F0B92F9927B751A0F0AC
:100A9000D1F0660F771F881F991F1AF0BA95C9F712
:100AA00012C0B13081F0C3D0B1E00895C0C0672F4B
:100AB000782F8827B85F39F0B93FCCF386957795C2
:100AC0006795B395D9F73EF49095809570956195AB
:100AD0007F4F8F4F9F4F0895E89409C097FB3EF4D6
:100AE00090958095709561957F4F8F4F9F4F99237B
:100AF000A9F0F92F96E9BB279395F69587957795F9
:100B00006795B795F111F8CFFAF4BB0F11F460FFB8
:100B10001BC06F5F7F4F8F4F9F4F16C0882311F010
:100B200096E911C0772321F09EE8872F762F05C024
:100B3000662371F096E8862F70E060E02AF09A95BF
:100B4000660F771F881FDAF7880F9695879597F9B4
:100B50000895990F0008550FAA0BE0E8FEEF16164E
:100B60001706E807F907C0F012161306E407F507A1
:100B700098F0621B730B840B950B39F40A2661F015
:100B8000232B242B252B21F408950A2609F4A140B8
:100B9000A6958FEF811D811D089597F99F6780E8C5
:100BA00070E060E008959FEF80EC089500240A94BF
:100BB0001616170618060906089500240A94121638
:100BC0001306140605060895092E0394000C11F46B
:100BD000882352F0BB0F40F4BF2B11F460FF04C018
:100BE0006F5F7F4F8F4F9F4F089557FD9058440F71
:100BF000551F59F05F3F71F04795880F97FB991F7C
:100C000061F09F3F79F08795089512161306140638
:100C1000551FF2CF4695F1DF08C0161617061806C5
:100C2000991FF1CF86957105610508940895E894A0
:100C3000BB2766277727CB0197F908958ADF08F449
:100C40008FEF08950BD0C0CFB1DF28F0B6DF18F0DA
:100C5000952309F0A2CFA7CF1124EACFC6DFA0F3D6
:100C6000959FD1F3950F50E0551F629FF001729F41
:100C7000BB27F00DB11D639FAA27F00DB11DAA1F60
:100C8000649F6627B00DA11D661F829F2227B00DAD
:100C9000A11D621F739FB00DA11D621F839FA00D38
:100CA000611D221F749F3327A00D611D231F849F88
:100CB000600D211D822F762F6A2F11249F575040DF
:100CC0008AF0E1F088234AF0EE0FFF1FBB1F661F7A
:100CD000771F881F91505040A9F79E3F510570F033
:100CE0005CCFA6CF5F3FECF3983EDCF3869577951B
:100CF0006795B795F795E7959F5FC1F7FE2B880F2E
:100D0000911D9695879597F90895EF920F931F93EC
:100D1000CF93DF93E80147FD02C034E001C034E126
:100D2000042E000C550B57FF03C0519541955109F6
:100D3000E32E022F242FAE0137D0CE01DF91CF91C9
:100D40001F910F91EF900895FB01DC0104C08D917C
:100D50000190801921F441505040C8F7881B990B2D
:100D60000895BB274A3031F4992322F4BDE29095CF
:100D700081959F4F01C0BB27FB015527AA27880FEC
:100D8000991FAA1FA41710F0A41B83955051B9F7FF
:100D9000A05DAA3308F0A95DA193009779F7B1117E
:100DA000B1931192CB012FC2A9E0B0E0E9EDF6E0DA
:100DB00040C26A01122FB02E2BE3201720F0FF242F
:100DC000F394F00E02C02CE3F22E0F2D27E0AE01BB
:100DD0004F5F5F4F40D1BC014981842F89708130C2
:100DE00031F0E1FC06C0E0FE06C090E205C09DE2E5
:100DF00003C09BE201C090E05E2D507143FF3CC0F8
:100E0000911102C083E001C084E0811718F4212F02
:100E1000281B01C020E051110BC0F601822F30E2E7
:100E2000882319F031938150FBCFC20ED11C20E0F2
:100E3000992329F0D6019C93F60131966F01C601E2
:100E40000396E2FE0AC03EE4D6013C9341E41196CB
:100E50004C93119712963C9306C03EE6F601308300
:100E600041E641833283FC01322F40E2332309F40F
:100E700042C041933150FACF42FF44C0911102C0A9
:100E800083E001C084E0811718F4212F281B01C0E2
:100E900020E051110BC0F601822F30E2882319F0B7
:100EA00031938150FBCFC20ED11C20E0992329F051
:100EB000D6019C93F60131966F01C6010396E2FEBE
:100EC0000BC039E4D6013C933EE411963C93119754
:100ED00036E412963C9307C039E6F60130833EE6CD
:100EE000318336E63283FC01322F40E2332319F09E
:100EF00041933150FBCFFC01E20FF11D10828EEFC8
:100F00009FEFA6C021E030E0911102C020E030E068
:100F1000161617061CF4FB01319602C0E1E0F0E062
:100F20002E0F3F1FBB2021F0EB2DF0E0319602C0C9
:100F3000E0E0F0E02E0F3F1FE12FF0E02E173F071B
:100F40001CF4121B212F01C020E08E2D887159F452
:100F5000F601822F30E2882319F031938150FBCFC4
:100F6000C20ED11C20E0992329F0D6019C93F601F2
:100F700031966F0151110BC0F601822F90E3882347
:100F800019F091938150FBCFC20ED11C20E00F2DA0
:100F9000060F9A81342F307144FF03C0913309F456
:100FA0000150101624F4093018F008E001C001E0E7
:100FB000AB0177FF02C040E050E0FB01E41BF50B02
:100FC000A1E0B0E0AC0FBD1FEA0FFB1F8EE2A82E20
:100FD0004B01801A91080B2D10E011950195110914
:100FE0004F3FBFEF5B0721F4D601AC9211966D0124
:100FF000641775072CF08416950614F4818101C0DE
:1010000080E3415051093196D60111967D01401778
:10101000510724F0D6018C936701E2CF641775075E
:1010200039F4963320F4953319F4311101C081E37A
:10103000F6018083F701822F90E2882319F09193C3
:101040008150FBCFF701E20FF11D108280E090E0AC
:101050002996ECE00AC1283008F027E03327DA01AE
:10106000990F311D87FD916000966105710539F476
:1010700032602E5F3D9330E32A95E1F708959F3F5C
:1010800030F080387105610509F03C5F3C5F3D93AD
:10109000913008F08068911DDF93CF931F930F93D9
:1010A000FF92EF92192F987F9695E92F9695969536
:1010B000E90FFF27E257FF4F99273327EE24FF243C
:1010C000A701E70105900894079428F4360FE71E5E
:1010D000F81E491F511D660F771F881F991F069420
:1010E000A1F70590079428F4E70EF81E491F561F34
:1010F000C11D770F881F991F661F0694A1F70590E1
:10110000079428F4F80E491F561FC71FD11D880FDA
:10111000991F661F771F0694A1F70590079420F486
:10112000490F561FC71FD81F990F661F771F881FAB
:101130000694A9F784911095177041F0D695C7953C
:1011400057954795F794E7941A95C1F7E4E3F0E0D3
:1011500068941590159135916591959105907FE270
:101160007395E118F10A430B560BC90BD009C0F770
:10117000E10CF11E431F561FC91FD01D7EF47033B2
:1011800011F48A95E6CFE894015030F0080F0AF484
:101190000027021708F4202F2395022F7A3328F016
:1011A00079E37D932A95E9F710C07D932A9589F616
:1011B000069497956795379517951794E118F10A56
:1011C000430B560BC90BD00998F023957E9173956C
:1011D0007A3308F070E37C932013B8F77E91706146
:1011E0007D9330F0839571E37D9370E32A95E1F769
:1011F0001124EF90FF900F911F91CF91DF919927CC
:1012000087FD90950895DC01FC01672F719177238C
:10121000E1F7329704C07C916D9370836291AE17B1
:10122000BF07C8F308952F923F924F925F926F923B
:101230007F928F929F92AF92BF92CF92DF92EF9266
:10124000FF920F931F93CF93DF93CDB7DEB7CA1BE7
:10125000DB0B0FB6F894DEBF0FBECDBF09942A8812
:10126000398848885F846E847D848C849B84AA84BA
:10127000B984C884DF80EE80FD800C811B81AA8147
:10128000B981CE0FD11D0FB6F894DEBF0FBECDBF12
:08129000ED010895F894FFCF71
:101298000000803F0000803F0000803F0000803F4A
:1012A80000007E42240A4B000000001B2FDD3DB2E7
:1012B8009DEF3D713D0A3E6210583E8FC2B53E6AB1
:1012C800BCF43E6666263FD7A3303FEC51383F5EFC
:1012D800BA893FD7A3A03FD7A3D03F6666E63F337E
:1012E80033F33F3333134000002040CDCC2C409AD9
:1012F800993940CDCC4C401F856B3EB81E853ECDFC
:10130800CCCC3EA69B043F2DB21D3F5EBA493F6040
:10131800E5503FE17A543F3D0A573F9A99593FF6C5
:10132800285C3F2DB25D3F52B85E3FAE47613FAE8D
:1013380047613FAE47613FAE47613FAE47613FAE51
:1013480047613FAE47613F52454C41595F4F464662
:101358002452454C41595F4F4E24002F564F4C5450
:101368004147453D3030202F2F000000000000008D
:1013780000000000002F43555252454E543D302E78
:10138800303030202F000000000000000000002F47
:10139800504F5745525F464143544F523D312E30CE
:1013A80030302020494E442F002F46524551554594
:1013B8004E43593D3030202F00000000000000004F
:0413C8000000000021
:00000001FF
